:020000040800F2
:1000000080620020ED010008A9690008255D000854
:10001000A5690008E1040008B573000800000000AD
:10002000000000000000000000000000F16B00086C
:10003000B105000800000000D1690008216C00082B
:10004000070200080702000807020008070200086C
:10005000070200080702000807020008070200085C
:100060000702000807020008070200080D05000843
:1000700019050008070200081D05000829050008E9
:1000800035050008390500081D03000807020008AF
:1000900007020008310600080702000807020008EE
:1000A000556C0008756C000807020008070200087C
:1000B00007020008070200080702000807020008FC
:1000C00007020008070200080702000807020008EC
:1000D00007020008A97300080702000807020008C9
:1000E0000702000807020008070200088D6C0008DC
:1000F000996C000807020008070200083D03000889
:1001000007020008070200080702000807020008AB
:10011000070200080702000807020008816C0008B7
:10012000070200080702000807020008070200088B
:100130000702000807020008490300080702000838
:10014000070200080702000807020008070200086B
:10015000070200080702000807020008070200085B
:10016000070200080702000807020008070200084B
:10017000070200080702000807020008070200083B
:10018000070200080702000807020008070200082B
:10019000070200080000000007020008070200082C
:1001A0000702000807020008070200083D5D00087A
:1001B00007020008070200080702000807020008FB
:1001C00007020008070200080702000807020008EB
:1001D0000702000807020008DFF80CD000F08CF8D6
:1001E00000480047418B0008806200200648804795
:1001F00006480047FEE7FEE7FEE7FEE7FEE7FEE70C
:10020000FEE7FEE7FEE7FEE7416C0008D9010008C3
:100210002DE9F05F0546002092469B46884606463B
:10022000814640241BE0284641464746224600F0CE
:1002300053F853465A46C01A914110D311461846F6
:10024000224600F03AF82D1A67EB01084F46224685
:100250000120002100F031F817EB00094E41201E6B
:10026000A4F10104DFDC484631462A464346BDE896
:10027000F09F40EA01039B0703D009E008C9121F61
:1002800008C0042AFAD203E011F8013B00F8013B50
:10029000521EF9D27047D2B201E000F8012B491E7C
:1002A000FBD270470022F6E710B513460A46044613
:1002B0001946FFF7F0FF204610BD202A04DB203A44
:1002C00000FA02F1002070479140C2F1200320FAA9
:1002D00003F3194390407047202A04DB203A21FAA7
:1002E00002F00021704721FA02F3D040C2F120024F
:1002F0009140084319467047064C074D06E0E068F8
:1003000040F0010394E8070098471034AC42F6D35C
:10031000FFF766FF14F1000834F1000880B540F2E1
:10032000CC40C2F2000001F04FF840F23850C2F267
:100330000000BDE8804001F047B8000040F2A45042
:10034000C2F2000001F040B840F21060C2F20000BA
:1003500001F03AB8B0B50446002021688B688A687D
:1003600013F0020F37D112F0010208BFB0BD886848
:1003700000F00D0001282FD188684FF6C072C7F633
:10038000FF72104040F0020088600320086002F015
:1003900053FA05462068806810F0010F04BF002062
:1003A000B0BD05E0806810F0010F04BF0020B0BDB3
:1003B00002F042FA411B20680229F3D9816811F04A
:1003C000010FEFD0E06D40F01000E065206E40F0CE
:1003D000010020660120B0BDE06D40F01000E06536
:1003E000206E40F0010020660120B0BD70B582B0E3
:1003F00004460020019021688A6812F0010F69D13B
:1004000088684FF6C076C7F6FF7606F17F02104285
:100410000AD0E06D40F01000E065206E40F0010071
:100420002066012002B070BD8868304040F00100B5
:10043000886040F20010C5F2000000F500728142B1
:10044000134618BF00F5C063B1F1A04F08BF1346B3
:10045000986810F4000F19D040F2040042F663517E
:10046000C2F20000C0F23E5100688009A0FB010109
:1004700088090C2100EB400001EB800002E000BF86
:1004800001980138019001980028F9D102F0D4F9BF
:1004900005462068016811F0010F1DD1816811F037
:1004A000010F01BF8168314041F00101816002F01C
:1004B000C3F9411B20680329ECD3016811F0010F37
:1004C000E8D1E06D40F01000E065206E40F00100E2
:1004D0002066012002B070BD002002B070BD000097
:1004E000FEE7000080B500BF01200AF063FAFBE7D9
:1004F0009FED052A30EEC11A80ED000A21EE020AB6
:1005000081ED000A704700BF3ACD133F40F2A4606E
:10051000C2F2000001F070BB07F030B940F6E40011
:10052000C2F2000001F068BB40F68400C2F2000095
:1005300001F062BB07F030B9704700004EF6FC5185
:10054000CEF200010A6842F080720A6041F20001B6
:100550000022CEF200014A600B6843F001030B60F9
:1005600044F24021C0F20F01484340F25C01C2F264
:100570000001086044F6D351C1F26201A0FB0113EF
:10058000990940F26003C2F2000319604DF68361DD
:10059000C4F21B31A0FB0101880C40F26401C2F2DD
:1005A0000001086040F26800C2F20000026070477B
:1005B00070470000EFF3108072B600BFFEE7000046
:1005C000B0B588B00025022040F6441402A9CDE958
:1005D000025504900120C2F2000405904FF400700F
:1005E000069040F2FF700790204601F019FD20466A
:1005F000022102220023009501F03EFD204602F078
:1006000009F820460121002201F088FC40F2780020
:1006100040F20221C2F20000C0E900150821856005
:10062000C0E90755C0E90555C0E9031508B0B0BDDC
:1006300040F64410C2F2000001F0D8BDB0B582B05F
:10064000044600200D46019094F85800012802BF8E
:10065000022002B0B0BD012084F858002046FFF708
:1006600079FEE16D10B141F010012DE041F2021070
:100670004FF6C07221EA0000C3F6FF7240F002009C
:10068000E06520688168114005F08042114341F027
:10069000004181604DF60261C0F204018268B2F14E
:1006A000FF3F0CDC019A01320192019A8A42F5D394
:1006B000E06D20F0120040F01001012004E0E16D37
:1006C000012060F301010020E165002184F8581049
:1006D00002B0B0BD704700002DE9F04381B00022A8
:1006E000009290F85820012A02D14FF0020E27E222
:1006F000012280F8582044F200024369C0F21042FF
:10070000002B1CBF0E6A012E16D14B68092B3DD160
:100710008F6A0B684FF4785606EA5343002F1FBFC9
:1007200007F07C073B43CF6A3B430768FE6C3240CF
:100730001A43FA64436629E0876E17B1436E0025B9
:100740000FE00023751EC0E919368F6A002F1FBF06
:1007500007F07C032B43CF6A43EA070518BF002349
:100760003746D1E90064013F876604F01F07C6F3EE
:10077000846606FA07F747EA050743EA0703436674
:1007800004D10768FE6C32401A43FA6403689A6821
:1007900012F0080F0FD191F82560DA6891F82670F1
:1007A0007F05002E22F4401204BF91F8246047EA2E
:1007B00006573A43DA609A689F684FF6FF7CC0F2AA
:1007C000070CFF0847EA9202D20710D18F6A91F80E
:1007D0002520002F1CBFCF6A002F0BD1DF68012A14
:1007E00027F0007608BF47F00076DE600FE04FF09C
:1007F000000EC7E0012A06D1C26D4FF0010E42F093
:100800002002C26505E0DA6822F00072DA604FF07B
:10081000000E91F830401A69012C08D1D1E90D453C
:1008200022F4FF7222432A4342F0020201E022F046
:1008300002021A6103F1140207240F68D1F808803C
:10084000C7F34065B8F1004F52F82550C7F304567E
:1008500004FA06F425EA04054FF0040404EAD75725
:1008600004D1D551126842F0004206E008FA06F4BD
:100870002C43D451126822F000425A61D1E9042479
:10088000DD68042A50D11A6E1C6E0A68C2F38465B2
:1008900092FAA2F612EA0C0F18BFB6FA86F5C4F364
:1008A0008464AC4201BF1A6E22F000421A660A68E4
:1008B0005C6EC2F3846492FAA2F512EA0C0F18BFC0
:1008C000B5FA85F45D6EC5F38465A54201BF5A6E25
:1008D00022F000425A660A689C6EC2F3846492FA5F
:1008E000A2F512EA0C0F18BFB5FA85F49D6EC5F398
:1008F0008465A54201BF9A6E22F000429A660A689A
:10090000DC6EC2F3846492FAA2F512EA0C0F18BFEF
:10091000B5FA85F4DA6EC2F38462A24202BFDA6EDF
:1009200022F00042DA662DE003F16007D1F8008082
:100930004FF2000657F82290C0F2FF3609EA060986
:10094000062606EA9505AC4008F0F8452C4344EA33
:10095000090444F0004447F822400A698C6957F8BA
:10096000225025F080752C4347F822400C690A7FFD
:1009700057F82450012A25F0007508BF45F000758E
:1009800047F824509A6812F0010F43D10A68CD68E5
:10099000D3F8B04042F0784705F0180602EA0C0898
:1009A00047F0FF672CFA06F687EA0C0706EA080606
:1009B00027403743C3F8B0700027C4F27F07BD4219
:1009C00028D192FAA2F7B8F1000F4FF00106B7FA5A
:1009D00087F708BF970E7A1C02F01E0702F01F026D
:1009E00096400A2F24BF46F000760A3A02EB4202F4
:1009F00046EA02520726C2F30457C2F340628D68EA
:100A000003EB8202BE40546905FA07F724EA0606A2
:100A1000374357610D680021C8F208010D4200F00C
:100A20008C8040F200310022C5F20001CCF221326C
:100A3000A1F5007401F58068A342464604BF40F268
:100A40000036C5F20006B3F1A04F04BF40F20036F5
:100A5000C5F200069542B76807F0E07C04D010228A
:100A6000C9F2C00295422CD1390266D440F200612D
:100A7000C5F200018B4218BFB3F1A04F5DD1B16840
:100A800042F66352C0F23E5221F0E07141EA0C019D
:100A900041F40001B16040F20401C2F200010968B2
:100AA0008909A1FB02129109182201EB410102EB15
:100AB000810101E000990139009100990029F9D1E3
:100AC0003BE0FA011ED40022CCF25272954219D1B9
:100AD000B3F1A04F0ED040F20012C5F200029342D3
:100AE0002BD040F20052C5F20002934225D0A3421F
:100AF00018BF41468A6822F0E07242EA0C0242F0D6
:100B0000807219E07A0218D40022CCF68432954221
:100B100013D1B3F1A04F08D040F20012C5F2000289
:100B200093420AD0A34218BF41468A6822F0E0727D
:100B300042EA0C0242F480028A60002180F85810D8
:100B40005FFA8EF001B0BDE8F083000080B540F29E
:100B5000CC4240F2003EC2F20002C4F2010E9042CA
:100B60006BD040F23851C2F20001884200F0B780E9
:100B700040F2A452C2F20002904200F0B88040F26B
:100B80001062C2F20002904218BF80BD116840F2AC
:100B9000A00C40F2A803C2F2000CC2F20003D1F88C
:100BA0008000ACF80400D1F880101986596B01312F
:100BB0005963DEF8001001F0010219601A71C1F3E7
:100BC00000225A71C1F38431D980DEF8081001F097
:100BD000010259611A76C1F300225A76C1F38431B9
:100BE0005983DEF80C1001F00102996283F82C2081
:100BF000C1F3002283F82D20C1F38431D98540F65A
:100C00009021C2F2000191F83A10196140F6CC210E
:100C1000C2F2000191F83A10596240F60831C2F26E
:100C2000000191F83A109963BCF800109987BCF85C
:100C30000210D987A3F8400080BD136840F2A00CD1
:100C4000C2F2000CD3F88020ACF80020D3F880006A
:100C500040F2A803C2F200031881D8680130D860BE
:100C6000DEF8000000F0010118601971C0F30021E6
:100C70005971C0F38430D880DEF8080000F001011B
:100C800058611976C0F300215976C0F38430588337
:100C9000DEF80C0000F00101986283F82C10C0F31C
:100CA000002183F82D10C0F38430D88540F69020C1
:100CB000C2F2000090F83A00186140F6CC20C2F26F
:100CC000000090F83A00586240F60830C2F2000086
:100CD00090F83A0098639A87BCF8020058E040F216
:100CE0003850C2F20000BDE8804006F095BC1168A3
:100CF00040F2A00C40F2A803C2F2000CC2F20003C2
:100D0000D1F88000ACF80200D1F880109983196AFC
:100D100001311962DEF8001001F0010219601A7148
:100D2000C1F300225A71C1F38431D980DEF8081072
:100D300001F0010259611A76C1F300225A76C1F31B
:100D400084315983DEF80C1001F00102996283F8B6
:100D50002C20C1F3002283F82D20C1F38431D985E2
:100D600040F69021C2F2000191F83A10196140F664
:100D7000CC21C2F2000191F83A10596240F60831D4
:100D8000C2F2000191F83A109963BCF800109987FB
:100D9000D887BCF80400A3F8400080BD704700006D
:100DA00070B5044640F200452068C5F20005A5F57F
:100DB0004071A5F580728842114618BF05F5407153
:100DC000B0F1A04F08BF11468E68816811F0080F7E
:100DD0001CBF022070BDC168C06C002908DB10F484
:100DE000C07005D1E06D40F02000E065012070BDCD
:100DF00094F85800012804BF022070BD012084F837
:100E000058002046FFF7F2FA00281EBF002184F8A0
:100E1000581070BDE06D43F2010240F2001C06F074
:100E20001F01C5F2000C10F4807F1ABF206E20F065
:100E3000080000202066E06D904340F48050E0659B
:100E40002068604507D040F20053C5F20003984285
:100E500007D12B4601E04FF0A043002918BF834281
:100E600003D1E36D23F48013E36560236FF0400644
:100E70000360002384F85830C36813F4001F1EBFBA
:100E8000436843F480634360A369082B08BF6FF095
:100E900020064268082B02EA060242604FF0200258
:100EA00008BF40224368604542EA0302426015D011
:100EB00040F20052C5F20002904213D1854211D097
:100EC000072905D8012202FA01F111F0C10F09D159
:100ED000E06D40F48010E065002070BD4FF0A0454B
:100EE0008542EDD1C16811F0007F1CBF002070BDAC
:100EF00081684FF6C072C7F6FF72114041F00801D9
:100F00008160002070BD0000704700007047000045
:100F100090F85820012A02BF0221C8B27047B0B52C
:100F200082B0012240F2001580F858200022C5F25C
:100F300000050192009205F540740368A34208BFC2
:100F400005F58062B3F1A04F04BF40F20012C5F274
:100F500000023AB392689C682243520722D405F5F6
:100F60000072AB42944618BF05F5C06CB3F1A04FB8
:100F700008BF9446D1F800E0DCF80820BEF1000F6D
:100F800022F460421BD04C68224390F8384042EA79
:100F90004432CCF8082043F48072AA4218D155F8A4
:100FA000F82C1CE0C16D41F02001C1650121002237
:100FB00080F8582002B0BDE8B040C8B2704743F492
:100FC0008071CCF80820A94219D155F8F81C1DE011
:100FD000D5F80823D5F8083405F5A0651A43AB68A1
:100FE0001A43D20709D1DCF80820896840F61F733C
:100FF0009A4342EA0E02114311E00021D7E7D5F8E7
:101000000813D5F8082405F5A0651143AA68114313
:10101000C90708D1DCF8081040F61F729143CCF8DC
:1010200008100021C3E70021C1E700002DE9F041CD
:1010300081B00022009290F85820012A01D10221AB
:10104000BAE1012280F858200768BB6813F0040F4A
:1010500039D1D1E900361F244FF6FF7CC0F2070CCE
:1010600006F01F05C6F3012607EB8606AC40326B7F
:10107000C3F38463AB40A2431A433263BA68BB68CC
:10108000DB0843EA9202D20740F0B1800A68D1F847
:10109000088007F114060725C2F34063B8F1004F3A
:1010A00056F82340C2F3045305FA03F524EA050E6B
:1010B0004FF0040404EAD2540BD146F804E032683D
:1010C00042F000430DE0C16D41F02001C1650121F6
:1010D0006FE108FA03F242EA0E023251326822F05E
:1010E00000437B61D1E90465FC68042E50D13A6E5F
:1010F0003A6E0C68C4F3846394FAA4F614EA0C0FF5
:1011000018BFB6FA86F3C2F384629A4201BF3A6E00
:1011100022F000423A660C687A6EC4F3846294FA54
:10112000A4F314EA0C0F18BFB3FA83F27B6EC3F377
:101130008463934201BF7A6E22F000427A660C68A3
:10114000BA6EC4F3846294FAA4F314EA0C0F18BFC5
:10115000B3FA83F2BB6EC3F38463934201BFBA6EEA
:1011600022F00042BA660C68FA6EC4F3846294FA04
:10117000A4F314EA0C0F18BFB3FA83F2FB6EC3F3A7
:101180008463934202BFFA6E22F00042FA662EE0B8
:1011900007F16003D1F800E04FF2000253F8268017
:1011A000C0F2FF3208EA0208062202EA940205FAB7
:1011B00002F20EF0F8452A4342EA080242F00042E9
:1011C00043F826200A698E6953F8225025F080756D
:1011D0002E4343F822600E690A7F53F82650012AF5
:1011E00025F0007508BF45F0007543F82650BA6831
:1011F00012F0010F42D10E68CA68D7F8B05046F01D
:10120000784402F0180306EA0C0E44F0FF642CFA4E
:1012100003F384EA0C0403EA0E0325402B43C7F8CA
:10122000B0300023C4F27F039A4227D196FAA6F287
:10123000BEF1000FB2FA82F208BFB20E01260132EF
:1012400002F01E0302F01F0296400A2B24BF46F054
:1012500000760A3A02EB420246EA02520726C2F33D
:101260000453C2F340628D6807EB82029E405469CA
:1012700005FA03F324EA0606334353610D6800219F
:10128000C8F208010D4200F0938040F200330022C2
:10129000C5F20003CCF22132A3F5007403F5806E91
:1012A000A742714604BF40F20031C5F20001B7F118
:1012B000A04F04BF40F20031C5F2000195428E6894
:1012C00006F0E07C04D01022C9F2C002954230D171
:1012D00032026DD440F20062C5F20002974218BF9C
:1012E000B7F1A04F64D18A6822F0E07242EA0C02A2
:1012F00042F400028A6040F2040142F66352C2F2F4
:101300000001C0F23E5209688909A1FB021291094D
:101310000C2201EB410102EB8101009100990029AF
:1013200046D000BF00990139009100990029F9D1F8
:101330003EE0F1011FD40021CCF252718D421AD14E
:10134000B7F1A04F0FD040F200120021C5F2000209
:1013500097422ED040F20052C5F20002974228D0A8
:10136000A74218BF7346996821F0E07141EA0C0169
:1013700041F080711BE071024FF0000119D400228E
:10138000CCF68432954214D1B7F1A04F08D040F288
:101390000011C5F200018F420AD0A74218BF734660
:1013A000996821F0E07141EA0C0141F480019960F3
:1013B0000021002280F85820C8B201B0BDE8F081B9
:1013C00070470000704700002DE9F047044640F2E6
:1013D000001A2068C5F2000A0AF5C0680AF500760E
:1013E0004146504508BF3146B0F1A04F08BF3146D5
:1013F000026843688F6802EA0305A9070DD5E06D0E
:1014000010F0100F02BFE06D40F40060E065204670
:10141000FFF760F9206802210160690707F01F09E2
:1014200058BF5FEA057151D5214651F85C2F12F083
:10143000100F02BF0A6842F400720A60C26812F418
:10144000406F3DD10AF5806203469042024608BFD4
:101450000AF54072504508BF4FF0A04282420CD0BE
:10146000B9F1090F00F20481012340F2212703FAA8
:1014700009F33B42034608BF1346DA6812F4005FE3
:101480001ED1026812F0080F1AD0826812F0040F01
:101490000CD1426822F00C024260086820F480708F
:1014A0000860086810F4805F06D009E0E06D04F180
:1014B000600140F01000E065086840F0010008603D
:1014C0002046FFF77DFF20680C210160A90658BF68
:1014D0005FEA456132D5214651F85C2F12F0100FBA
:1014E00002BF0A6842F400520A605045C26C02F41E
:1014F000C073C26809D040F20057C5F20007B84275
:10150000074613D10AF5407701E04FF0A047874224
:1015100007460BD0B9F1070F00F29080012707FAB8
:1015200009F717F0C10F074600F08880FF68F3B392
:101530002046FFF70BFB206860210160290609D5D2
:10154000E06D40F48030E065204600F0A3F92068AB
:1015500080210160E9050AD5E06D40F40030E065C6
:101560002046FFF7D1FC20684FF480710160A90587
:101570000AD5E06D40F48020E0652046FFF7C6FC08
:1015800020684FF400710160E90643D5E16B99B31F
:10159000B9F1000F2AD050454FF4604208BFB04661
:1015A000B0F1A04F08BFB04608F1080121E0BB012F
:1015B00005D502F4406207F400531A43B8D102681B
:1015C000BB02B5D412F04002B2D0826812F0080F0C
:1015D00040D1426822F060024260086820F48050E6
:1015E0000860086810F4807FA2D139E000F10C0196
:1015F0000122096811420BD0E06D40F48060E06583
:10160000206E40F0020020662046FFF7DBFE2068D7
:1016100010210160690558BFBDE8F087E16D41F414
:101620008041E165216E41F0080121664FF480613F
:1016300001602046BDE8F047FFF7B0BB504514D02D
:1016400040F20057C5F20007B842074608BF0AF546
:1016500040776BE7E06D04F1600140F01000E06559
:10166000086840F00100086062E74FF0A0475DE7BE
:10167000134602E770B582B004460020002C0190AA
:1016800002BF012002B070BDE06D30B9204600F00D
:1016900003F90020206684F8580021684FF6C070D6
:1016A000C5F6FF708A6812F0005F1EBF8A680240AC
:1016B0008A608A6812F0805F1ED18A6800F18050CB
:1016C000104042F6635240F08050C0F23E528860B3
:1016D00040F20400C2F2000000688009A0FB020290
:1016E0009009022202EB400002E000BF019801389D
:1016F000019001980028F9D1886810F0805F09D125
:10170000E06D40F01000E065206E40F001002066C2
:10171000012000E000208A68C2F38006E26DE36DDC
:1017200002F01002324303D043F010010120ADE07B
:1017300023F4817242F00202E2658A6812F0010F1E
:101740002BD140F2001E41F48072C5F2000E7245AA
:1017500003D15EF8F8CC734607E0DEF80823DEF824
:10176000083443EA020C0EF5A0639A6842EA0C02C0
:10177000D20712D10EF500727145134618BF0EF54F
:10178000C063B1F1A04F08BF1346D4F804C09A68F3
:1017900022F47C1242EA0C029A60627FE36B43EA15
:1017A0004232D4E902352A4394F824501A4342EADB
:1017B0000543012D06D1A26A0025CFF6FE7505EB83
:1017C00042421343E26A44F20705CFF6F075002A5D
:1017D0001FBF02F478721A43236B1343CA682A406E
:1017E0001A43CA600A69636B22F040621A430A61B5
:1017F0008A68C2F3C00232433AD194F83830227F6B
:10180000CE6844F202055B00AE4343EA82323243C3
:10181000CA6022690B694AB143F4803343F6FF760C
:101820000B61D1F8C030B3431A4307E023F4803290
:1018300043F6FF730A61D1F8C0209A43C1F8C02073
:1018400094F840300A69012B0FD140F2FD7322EA6F
:10185000030CD4E91136D4E9135243EA0C033343A1
:101860002B431A4342F0010201E022F001020A6117
:1018700063690A6B22F00F02012B02BF236A013B4E
:101880001A430A630122E16D62F30101E16502B0CE
:1018900070BD000070470000F0B59BB0044600200A
:1018A00054211A90CDE91800CDE9160001A8FEF7E1
:1018B000F9FC206800F130404FEA3020062800F2A1
:1018C000EE8041F24C0540F20044C4F20205C4F639
:1018D0000004DFE800F00448E4E494E4BD004FF4C1
:1018E000004001904FF00050129001A801F0F8FA6A
:1018F000002818BFFEF75EFE40F26C00C2F2000046
:1019000001684A1C0029026008D1286840F4005090
:101910002860286800F4005000900098286803268A
:10192000002740F001002860286800F001000090C6
:101930000098286840F002002860286816AD294603
:1019400000F0020000900098042016904FF09040A4
:101950001796189700F082FE41F2020016A9C1C145
:101960002046294642E04FF4004001904FF00050DD
:10197000129001A801F0B4FA002818BFFEF71AFE71
:1019800040F26C00C2F2000001684A1C00290260AB
:1019900008D1286840F400502860286800F40050FE
:1019A000009000982868002640F00400286028680D
:1019B00000F0040000900098286840F001002860C2
:1019C0002868032500F00100009000981820169068
:1019D00004F5806016AC17951896214600F03EFE7F
:1019E000012016A961C14FF09040214600F036FE5B
:1019F00012200221002201F0C7F8122024E04FF447
:101A0000803001904FF00040139001A801F068FA77
:101A1000002818BFFEF7CEFD40F27000C2F20000B1
:101A200001684A1C0029026008D1286840F48040FF
:101A30002860286800F48040009000982F20022140
:101A4000002201F0A1F82F2001F08EF81BB0F0BDAC
:101A50004FF4803001904FF00040139001A801F046
:101A60003FFA002818BFFEF7A5FD40F27000C2F251
:101A7000000001684A1C0029026008D1286840F46F
:101A800080402860286800F48040009000983E2044
:101A90000221002201F078F83E2001F065F81BB029
:101AA000F0BD000010B50446002C04BF012010BD9D
:101AB00094F8210028B9002084F82000204600F086
:101AC0000BF8002001216062C4E90100C4E90300B1
:101AD000606184F8211010BD016841F24800C4F231
:101AE0000200A0F58962914218BF704781B0016879
:101AF00041F008010160006800F0080000900098C3
:101B000001B07047002802BF01210846704790F8D5
:101B10002510022925D1016801230A6822F001025B
:101B20000A600A6822F00E020A60816C0A6822F4D8
:101B300080720A60D0E9101202F01F0203FA02F26A
:101B40004A60D0E913124A60416D00291FBF0A683C
:101B500022F480720A60D0E9161218BF4A60002190
:101B600002E00421C1630121012280F82520002226
:101B700080F824200846704790F82510022931D1BA
:101B800001680A6822F001020A600A6822F00E0267
:101B90000A60816C0A6822F480720A60D0E9102120
:101BA00001F01F03012101FA03F35360D0E913236D
:101BB0005360426D002A1FBF136823F480731360C3
:101BC000D0E9162318BF536080F82510002180F853
:101BD0002410826B22B180B590470021BDE880407F
:101BE0000846704704210022C163012180F82510B6
:101BF00080F8242008467047B0B5D0E910C4DCF85E
:101C00000010026804F01F0E136813F0040F1EBFCB
:101C1000042404FA0EF414EA01050ED0116811F040
:101C2000200F02BF116821F004011160CCF80440BC
:101C3000016BD9B3BDE8B04008479C071AD5022410
:101C400004FA0EF414EA010514D0116811F0200F03
:101C500006D1116821F00A011160012180F82510D8
:101C60000021CCF8044080F82410C16AF1B1BDE82D
:101C7000B04008471B0719D5082303FA0EF3194093
:101C800008BFB0BD116821F00E011160012101FAF9
:101C90000EF2CCF80420C16380F82510002180F8F2
:101CA0002410416B11B1BDE8B0400847B0BD000041
:101CB0000121002800F0A7802DE9F04F02680027DD
:101CC0004FF6F83500F1180CC4F20207CBF6FD759B
:101CD00007F581633E464CF6CD47CCF6CC479A4299
:101CE00038BF05F580659A4205EB0204A4FB074561
:101CF0004FF6FC74C3F6FF7404EA950906F5806498
:101D000047F6F076C0F844903CBF0024C4F20204C9
:101D10009A4204644FF0020480F825401468D0E928
:101D20000287D0E904E524EA060A9CE840184AEA5A
:101D3000080444EA070444EA0E0747EA050747EAAD
:101D4000060740F2000647EA0B07C4F2020647EA1C
:101D50000C07176006F5026738BF06F500679A4260
:101D600009EB070506F508674CF6CD468564C764A0
:101D70006FF00707CCF6CC4657FA82F7A7FB06763A
:101D80004FF0080707EB161738BF3709B8F5804F33
:101D900007F01F0201FA02F240F68401C4F20201C8
:101DA000026504D1002343602B600A601EE0436893
:101DB00003F07F072F600A605A1E032A16D84FF4DB
:101DC000FE7201F1BC06012502EA83021F330A44B8
:101DD00003F01F0302F1780705FA03F3C0E9157653
:101DE0000027C3659767C1F8C03003E00021C0E950
:101DF0001511C16500210122C16380F8252080F8FA
:101E00002410BDE8F04F08467047000090F824C049
:101E1000BCF1010F44D04FF0010C80F824C090F8C1
:101E200025C0BCF1010F38D170B54FF0020C01266E
:101E300080F825C04FF0000CC0F83CC0D0F800C0BE
:101E4000DCF800E02EF0010ECCF800E0D0E913E45D
:101E5000CEF80440D0F854E0BEF1000F1CBFD0E92A
:101E600016456560D0E9104505F01F0506FA05F531
:101E70006560CCF804308368102B0B4608BF13460E
:101E8000CCF8083008BF0A46CCF80C20026BDCF80E
:101E9000001042B141F00E010DE0002180F8241045
:101EA0000220C0B2704721F00401CCF80010DCF829
:101EB000001041F00A01CCF80010806C016811F4A8
:101EC000803F1EBF016841F480710160BEF1000FC8
:101ED0001EBFDEF8000040F48070CEF80000DCF891
:101EE000000040F00100CCF800000020BDE8704088
:101EF000C0B27047B0B5044600F09EFC054640F203
:101F00004800611CC2F20000006818BF044400BF12
:101F100000F092FC401BA042FAD3B0BD90F85C30B8
:101F2000013BDBB2012B72D810B5006811F0070C31
:101F3000D0F858E00EF0010300D01BB311F0380FB9
:101F400002D01EF002041DD011F4E07F02D01EF07A
:101F5000040417D011F4F05F02D01EF0080411D071
:101F600011F4604F02D01EF010040BD011F4403F6A
:101F700002D01EF0200405D011F47C0F06D01EF014
:101F8000400403D1C46D44F00104C465002B18BFA4
:101F9000BCF1000F23D111F0380F18BF1EF002035F
:101FA0001DD111F4E07F18BF1EF0040317D111F406
:101FB000F05F18BF1EF0080311D111F4604F18BF75
:101FC0001EF010030BD111F4403F18BF1EF0200388
:101FD00005D111F47C0F18BF1EF0400303D0C36D70
:101FE00043F00203C3650B06BDE8104042BFD0F8C2
:101FF000DC301343C0F8DC30CB0542BFD0F8E03012
:102000001A43C0F8E02000F15402002003E000F180
:10201000600201200221136819431160704700001B
:10202000B0B590F85C20013AD2B2012A13D8D1E9B8
:102030000042D1E90253D1E904CEA9078CB1406C2A
:102040004CEA437341EA0E0140F8323000EBC20023
:1020500041600020B0BD016E41F002010166012027
:10206000B0BD006C41EA0E0141EAC36141EA0C4196
:1020700040F822100020B0BD90F85CC0BCF1010F08
:1020800010D100689200DDF800C042EA011141EA77
:10209000430150F8802F41EA0C0122F03F020A432D
:1020A000002104E050F8601F41F0040201210260A9
:1020B000084670477047000070470000F0B590F880
:1020C0005C50022D1ED1D0F800C040291ED1DCF892
:1020D000905015F00F0F00F08180DCF89040C4F3B1
:1020E000012EDCF8905015F0807F08D0DCF880508D
:1020F00015F4007F1EBF250A013505F0030E00F11F
:1021000048041CE0016E41F008016AE0DCF89850D8
:1021100015F00F0F62D0DCF89840C4F3012EDCF804
:10212000985015F0807F08D0DCF8805015F4807F3F
:102130001EBF250A013505F0030E00F14C0424688A
:102140000EEBCE0554F8356016F08046566054F814
:102150003560C6F38A4718BF26F06047176054F809
:10216000356006F00056966054F8356004EBC504FF
:1021700006F000461661A588D561E58815F00F05C3
:10218000D560656805F480155561656805F400152E
:102190009561E57905F07F05156265684FEAD575AB
:1021A000556211D04EF6300504F1080C0024C0F63B
:1021B000000500BF1CF804601E550134D668AE5DF2
:1021C000B442F7D3D0F800C00CF19C00402908BFFE
:1021D0000CF19400C0F800E00020F0BD016E41F465
:1021E000807101660120F0BD704700002DE9F04FBD
:1021F00085B004462068016D426DD0F85090D0F84B
:1022000054A0D0F850B0D0F8548001EA0205016D16
:102210000491416D0391016D0291416D0191416DF8
:10222000026D01EA0207790604D5402101652046C6
:10223000FFF7DAFF09EA0A0605F4E055F8050BD5C1
:1022400020684FF48073D0F8D810D0F8E0200365F0
:102250002046114000F0FAF908EA0B0806F00706DC
:102260002DB1206829460565204600F0F3F908F0F5
:1022700038052EB1206831460665204600F0BCF9CD
:102280002DB1206829460565204600F0C1F9B80542
:1022900006D520684FF400710165204600F0DCF996
:1022A00038060AD520688023D0F8D410D0F8DC2076
:1022B00003652046114000F0CBF9B80406D520682C
:1022C0004FF400510165204600F0BEF9DDE9011030
:1022D00000EA0105380406D520684FF40041016585
:1022E000204600F0AFF9DDE903107A0400EA0100AE
:1022F00005F4602107D522684FF480431365226EF0
:1023000042F08002226600F4710521B12068016567
:102310002046FFF7D1FE3DB120680565204650F804
:10232000601F2943016001E004F16000006800289B
:1023300004BF05B0BDE8F08F204605B0BDE8F04F02
:10234000FFF7B8BE2DE9F0410446002C04BF012080
:10235000BDE8F08194F85C0028B9002084F85D00A5
:10236000204600F0F5F82068816921F010018161B4
:1023700000F062FA054600BF2068816911F0080F7D
:1023800005D000F059FA401B0B28F5D310E0816905
:1023900041F00101816100F04FFA05462068816932
:1023A00011F0010F0ED100F047FA401B0B28F5D3B6
:1023B000206E032140F001002066012084F85C10AB
:1023C000BDE8F081816946F2004CC4F2000C604522
:1023D00041F00201816104BF6268CCF80021227CD7
:1023E000836943F04005012A08BF23F04005856159
:1023F000627C836923F48045012A08BF43F4804549
:102400008561A27C836943F48055012A08BF23F4C7
:10241000805585618369D4F808E023F4407343EA6A
:102420000E038361836923F0A4038361036923F0AE
:1024300010030361E368ABB1012B03D1836943F05F
:1024400004030EE08569022B09D045F08005032BBB
:102450008561056945F01005056103D1856945F081
:102460002003836104F114054FF07E466FF0FF08EE
:10247000BEF5407F2ACD226A06EB436608EB0525B0
:10248000A2F1010245EA060542EA050240F2000512
:10249000CFF6FF7505EB014141EA0201C16110D1A0
:1024A00004F124066FF00F0746CE236B07EB0313EE
:1024B00008EB0627013A05EB01413A431A43114361
:1024C000C160E16BD0F8C02011430CF58042C0F828
:1024D000C0100CF5806188420CF5006104BF4AF21F
:1024E0005072C4F20002884208BF02F5D46222642E
:1024F000D0F88010636B21F4F81141EA0341C0F871
:10250000801002F170016164D0F88010A36B21F09B
:10251000706141EA0361C0F8801002F1B00000214F
:10252000A06402F5C470E06402F51870206502F53D
:102530001E70606502F5547042F8041B8242FBD3A2
:1025400000200121A065206684F85C10BDE8F081C0
:1025500010B59CB00446002054211B90CDE9190011
:10256000CDE9170002A8FDF79DFE206846F2004164
:10257000C4F20001884201D01CB010BD4FF480505D
:1025800002904FF00070109002A800F0A9FC002803
:1025900018BFFEF70FF841F24C00C4F20200C16808
:1025A00041F00071C160C16801F0007101910199B1
:1025B000016841F00101016017A9006800F0010005
:1025C000019001984FF4C0501790022018900020FD
:1025D000199003201A9009201B904FF0904000F0B2
:1025E0003DF815200321002200F0CEFA152000F05E
:1025F000BBFA1CB010BD000041F2683241F26033FA
:102600004021C2F20002C2F20003FFF757BD0000F2
:102610007047000090F85C1001290BD1022180F86E
:102620005C1001688A6922F001028A61002101665A
:1026300008467047016E41F0040101660121084619
:1026400070470000704700007047000070470000AE
:102650007047000070470000704700002DE9F04F00
:1026600082B00E68002E00F0DC8041F200420627A6
:102670004FF0010B00250124C4F60002904200F146
:1026800038424FEAB22308BF0527052B4FF000035D
:1026900038BF4FEAB2270097A4F101090BFA09FCF1
:1026A00016EA0C0800F0B480D1F804A00AF0030E7A
:1026B000AEF10102012A15D8D0F808B0CF68032284
:1026C0009A402BEA02029F404FF0010B3A4382608E
:1026D000CAF30012476802FA09F227EA0C073A43E4
:1026E000426007E0BEF1030F04D18A68012A26D0B8
:1026F00001E000BF8A68C66803279A40BEF1020F56
:1027000007FA03F726EA070742EA0702C26016D172
:1027100005F01C020F2707FA02FC4FF6FC77C7F6FC
:10272000FF7707EA59060644376A27EA0C0C0F6957
:1027300007FA02F242EA0C023262D1F804A00668FB
:1027400003270AF003021AF4403F07FA03F702FADC
:1027500003F226EA070742EA0702026058D041F274
:10276000600240F2004E05F00C06C4F20202C4F210
:10277000010E17463A6842F001023A603A6802F0E8
:102780000102019229F00302019F72444FF60847AB
:10279000CFF6FF77B9460F2752F809C0B7402CEAA9
:1027A000070C009F07FA06F64CEA060742F8097084
:1027B000DEF808204F6822EA080217F4801F18BFCD
:1027C00042EA080217F4001FCEF8082040F20C423B
:1027D000C4F201021646326822EA080218BF42EA31
:1027E000080217F4003F3260DEF8042022EA0802F3
:1027F00018BF42EA080217F4803FCEF80420DEF842
:10280000002022EA080218BF42EA0802CEF800209F
:102810000E680233043536FA04F204F101047FF441
:102820003BAF02B0BDE8F08F00F12803002A18BFCB
:1028300000F118031960704745F2A460C2F200006D
:102840000068704790F84120202A03D190F840207A
:10285000012A02D10221C8B27047242280F8412007
:102860000268136823F001031360136823F4805394
:102870001360136819431160116841F00101116080
:10288000202180F84110002180F84010C8B2704724
:1028900090F84120202A03D190F84020012A02D14B
:1028A0000221C8B27047242280F8412002681368D0
:1028B00023F001031360136823F4706343EA0121DA
:1028C0001160116841F001011160202180F8411070
:1028D000002180F84010C8B27047000010B50446CF
:1028E000002C04BF012010BD94F8410028B900203D
:1028F00084F84000204600F045F824204FF40443BB
:1029000084F841002068016821F0010101606168DC
:1029100021F070610161816821F400418160D4E996
:102920000212012A08BF4FF40043022A41EA0301C0
:102930008160416821F4006308BF41F40063436093
:1029400004F11003416841F0007141F4004141601D
:10295000C16821F40041C1600ECB114341EA03215B
:10296000C160D4E9071211430160016841F001011F
:10297000016000202021606484F84110206384F805
:10298000420010BDB0B59CB00446002502A85421F9
:102990001B95CDE91955CDE91755FDF783FC206846
:1029A00045F20041C4F20001884201D01CB0B0BD24
:1029B0004020029002A8099500F092FA002818BF62
:1029C000FDF7F8FD41F24C0417A9C4F20204206897
:1029D00040F002002060206800F0020001900198A1
:1029E0004FF440701790122018900020CDE9190084
:1029F00004201B9040F20040C4F60000FFF72EFEBA
:102A0000E06840F40010E060E06800F4001001901D
:102A100001981CB0B0BD000040F2480045F2A4612E
:102A2000C2F20000C2F2000100680A6810440860A7
:102A30007047000080B5032000F0D8F80F2000F0A8
:102A400009F800281CBF012080BD00F055F80020C7
:102A500080BD0000B0B586B0044641F25800C4F213
:102A60000200016841F0200101606946006800F041
:102A700020000190019801A800F022FD00F042FD25
:102A80004DF6836540F6A44141F2004240F2E7333F
:102A9000C4F21B35C2F20001C4F20002A0FB05051E
:102AA0004FF0FF3000EB95400025C1E900200846BB
:102AB000C1E902530D6101F005FC0546CDB940F6B0
:102AC000A440C2F2000001F06BFD05468DB937202D
:102AD00000F04AF80F2C0BD83720214600220025A1
:102AE00000F052F840F24C00C2F20000046000E036
:102AF0000125284606B0B0BD80B582B041F258002D
:102B00000022C4F20200816841F001018160816805
:102B100001F0010101910199016841F080510160CA
:102B20000F21006800F08050009000986FF00100C5
:102B300000F02AF802B0BDE8804000F0C7B90000FC
:102B40000028B8BF704700F01F010122400902FAB7
:102B500001F14EF28012CEF2000242F82010BFF3D3
:102B60004F8FBFF36F8F70470028B8BF704700F0DA
:102B70001F010122400902FA01F14EF20012CEF2C9
:102B8000000242F82010704710B500F00F034EF617
:102B90000C5E00F1604CB0F1FF3FA3F10403CEF2F4
:102BA000000E734403F10C04C8BF0CF56444DEF856
:102BB0000000C0F3022000F1040CC31E80F00700E7
:102BC000BCF1070F4FF0010C38BF0023042828BFC9
:102BD00004200CFA00F0013808400CFA03F10F3120
:102BE0009840114008430001207010BD4EF60C5172
:102BF0004FF6FF03CEF200010A681A4060F30A2282
:102C000042F0806040F0FD700860704710B582B0FF
:102C100004463CB194F83A0005281CBF94F83A00E9
:102C2000022802D1012002B010BD41F26000C4F2BE
:102C30000200016841F001010160006800F001003C
:102C40000190019894F83A00002804BF002084F80D
:102C50003900204600F050F8A168E26A41F02000F7
:102C6000602809D1206804F1080C036823F01003E0
:102C70001A430260626809E0206804F10C0C0368E2
:102C800023F010031A43026062680A43036843F6A4
:102C90001161CEF200011940DCF800301A431143F3
:102CA00022691143D4E909231143227D012A08BF77
:102CB00041F480711943D4E90C2341EAC24141EA4D
:102CC00003610160816900290BDB816904F1180C43
:102CD0009CE80C1021F03F011143194341EA0C011B
:102CE000816194F83A00002804BF012084F83A007A
:102CF000002002B010BD000080B586B0002240F276
:102D00000C3141F24C0C0592CDE90322CDE90122B0
:102D1000C4F20101C4F2020C036840F20040C4F6A0
:102D200000008B4221D040F20831C4F201018B42F5
:102D300032D040F20030C4F2010083422AD1DCF8E4
:102D4000000001A940F00100CCF80000DCF8000010
:102D500000F00100009000980A20019003200290EA
:102D6000002003904FF0904029E0DCF8001041F083
:102D70000201CCF80010DCF8001001F00201009113
:102D800000994FF4406101910321CDE9021201A99C
:102D9000FFF764FC06B080BDDCF8001041F00201D2
:102DA000CCF80010DCF8001001F00201009100994D
:102DB00005210191032102910021039101A9FFF74F
:102DC0004DFC06B080BD000000281CBF90F83A10F2
:102DD00005290DD090F83A10012909D101680A6837
:102DE00042F001020A60042180F83A100020704786
:102DF0000120704747F200010028C4F200012FD0E3
:102E00000A68B0F5007F59D1D1F8800040F4807095
:102E1000C1F8800002F4C060B0F5806F52D108683C
:102E2000012262F34A203222086040F20400C2F21A
:102E30000000006850434DF68362C4F21B32A0FBD1
:102E400002026FEA924000BF4A6900281CBF0130AD
:102E500012F48062F8D1486910F4806F32D02AE011
:102E60000868D1F8802000F4C06022F48072B0F5C8
:102E7000806FC1F8802025D10868012262F34A20C2
:102E80003222086040F20400C2F2000000685043A1
:102E90004DF68362C4F21B32A0FB02026FEA92403D
:102EA0004A6900281CBF013012F48062F8D14869D9
:102EB00010F4806F06D00320C0B27047022060F388
:102EC0004A220A600020C0B27047000047F20800A2
:102ED000C4F20000016841F48041016070470000C5
:102EE0002DE9F04182B0044641F28806A078C4F290
:102EF0000206000701D4002061E056F8300C47F2CA
:102F00000007C4F2000710F0805F0ED156F8300CB5
:102F10004FF0010840F0805046F8300C56F8300C65
:102F200000F080500190019801E04FF000083868EF
:102F300040F480703860FFF77FFC0546386810F475
:102F4000807F06D1FFF778FC401B0228F6D90320CA
:102F50002CE0B06810F4407021D0216D88420BD075
:102F6000B068B16841F4803120F44070B160B1685C
:102F700021F48031B160B060C00710D0FFF75CFC75
:102F8000054641F2883700BFB06810F0020F06D145
:102F9000FFF752FC401BB842F6D9032006E0B068A8
:102FA000216D20F440700843B0600020B8F1010F9B
:102FB00002BF56F8301C21F0805146F8301C2168C1
:102FC00011F0010F3ED18A0744D44A074AD40A07B8
:102FD00050D4CA0656D48A065CD44A0662D40A067D
:102FE00068D4CA056ED48A0375D48A057CD44A0590
:102FF00000F183800A0500F19380CA0400F1A380E8
:103000008A0400F1B3804A0400F1C3800A0400F18D
:10301000D380CA0300F1E38049030FD57169E26CE4
:1030200021F44011B2F5001F41EA0201716102BFB3
:1030300056F87C1C41F4801146F87C1CC0B202B0EA
:10304000BDE8F0813268636822F003021A433260FF
:103050008A07BAD53268A36822F00C021A4332609C
:103060004A07B4D53268E36822F030021A4332606E
:103070000A07AED53268236922F0C0021A433260D3
:10308000CA06A8D53268636922F440721A433260D6
:103090008A06A2D53268A36922F440621A433260DC
:1030A0004A069CD53268E36922F440521A433260E2
:1030B0000A0696D53268236A22F440421A433260E7
:1030C000CA0590D53268636A22F440321A433260EE
:1030D0008A037FF58AAF7269A36A22F003021A435A
:1030E00072618A057FF583AF3268E36A22F4402279
:1030F0001A4332604A057FF57DAF3268236B22F4B4
:103100004012B3F5801F42EA0302326002BF56F854
:103110007C2C42F4801246F87C2C0A057FF56DAFBA
:103120003268636B22F44002B3F5800F42EA030277
:10313000326002BF56F87C2C42F4801246F87C2C98
:10314000CA047FF55DAF3268A36B22F04072B3F121
:10315000807F42EA0302326002BF56F87C2C42F4C0
:10316000801246F87C2C8A047FF54DAF3268E36B01
:1031700022F04062B3F1006F42EA0302326002BF04
:1031800056F87C2C42F4801246F87C2C4A047FF5D9
:103190003DAF3268236C22F04062B3F1006F42EA27
:1031A0000302326002BF56F87C2C42F4801246F8CB
:1031B0007C2C0A047FF52DAF3268636C22F04052FC
:1031C000B3F1805F42EA0302326002BF56F87C2C02
:1031D00042F4803246F87C2CCA037FF51DAF32687A
:1031E000A36C22F04042B3F1804F42EA0302326006
:1031F00002BF56F87C2C42F4803246F87C2C4903FE
:103200007FF51CAF0AE700002DE9F04704460D46A4
:10321000002C62D041F2080AC4F2020ADAF8F80F70
:1032200000F00F00A8420CD2DAF8F80F20F00F00DF
:103230002843CAF8F80FDAF8F80F00F00F00A84298
:103240004BD1216842F20048C0F2F40811F0010F9E
:103250000DD14FF00009880700F19A80B9F1800F75
:1032600040F0AF80DAF8000020F0F000A7E06068DE
:103270004BF2004CC0F2C44C032828D15AF8083C49
:1032800013F0007F29D0DAF804300222DAF8043093
:10329000DAF80470DAF80460C6F34166C3F3031386
:1032A000C7F30627013302EB4602B8FBF3F37B4377
:1032B000B3FBF2F262454BD9DAF8002012F0F00FBE
:1032C0003CD0890744D5A168002941D136E05AF89D
:1032D000081C022805D1890305D40120C0B2BDE82D
:1032E000F0874905F9D5DAF8001001F00C0104293E
:1032F0002ED0DAF8001001F00C01082928D0DAF8F5
:10330000001001F00C010C2922D1DAF80410022778
:10331000DAF80410DAF80420DAF80430C3F3416371
:10332000C1F30311C2F30622013107EB4303B8FBDB
:10333000F1F15143B1FBF3F1614509D9DAF800101D
:1033400008224FF0800962F30711CAF8001001E06B
:103350004FF00009DAF8001021F003010843CAF821
:103360000000FFF769FA064641F28837DAF80000F4
:10337000616800F00C00B0EB810F05D0FFF75CFA3C
:10338000801BB842F2D93AE0216888077FF566AF22
:10339000480742BFDAF8000040F4E060CAF80000D5
:1033A000080741BFDAF80000072262F30D20CAF8CF
:1033B0000000DAF80000A26820F0F0001043CAF81C
:1033C0000000DAF8F80F00F00F00A8421CD9DAF874
:1033D000F80F20F00F002843CAF8F80FFFF72CFA77
:1033E000064641F2883700BFDAF8F80F00F00F0008
:1033F000A84208D0FFF720FA801BB842F4D9032076
:10340000C0B2BDE8F0872168480707D5DAF80000A8
:10341000E26820F4E0601043CAF80000080708D50D
:10342000DAF80000216920F4605040EAC100CAF8CF
:103430000000DAF8000000F00C00042825D0DAF8CB
:10344000000000F00C0008281FD0DAF8000000F09F
:103450000C000C2817D1DAF804000223DAF8040073
:10346000DAF80410DAF80420C2F34162C0F3031062
:10347000C1F30621013003EB4202B8FBF0F04843F0
:10348000B0FBF2F801E04FF00008DAF800004EF26D
:10349000B471C0F60001C0F30310085C40F20401EF
:1034A000C2F2000100F01F0028FA00F0086040F2AC
:1034B0004C00C2F200000068BDE8F047FFF7CABA4E
:1034C0000F22026041F20802C4F20202136803F004
:1034D00003034360136803F0F0038360136803F48D
:1034E000E063C3604FF4E063126803EAD202026152
:1034F00042F20000C4F20200006800F00F00086011
:103500007047000040F2040041F208014EF2C4721C
:10351000C2F20000C4F20201C0F6000200680968AD
:10352000C1F30221515C01F01F01C8407047000047
:1035300040F2040041F208014EF2C472C2F20000EF
:10354000C4F20201C0F6000200680968C1F3C2219A
:10355000515C01F01F01C8407047000041F20C01AE
:10356000C4F2020151F8040C00F00C0242F20040D7
:10357000C0F2F400042A08BF704751F8042C02F08E
:103580000C02082A1BD051F8042C02F00C020C2A61
:103590001CBF002070470A6802230A68D1F800C0E7
:1035A0000968C1F34161C2F30312013203EB410127
:1035B000B0FBF2F0CCF306225043B0FBF1F07047C1
:1035C0002DE9F04381B004465CB3207841F2000954
:1035D00041F20C07C4F20209C4F20207C00725D168
:1035E000207880075AD42078000740F1C3806169B1
:1035F000D7F88800002900F0AA8040F00100C7F841
:103600008800FFF719F90546D7F8880010F0020F77
:1036100040F0B080FFF710F9401B0228F4D90320D6
:1036200000E00120C0B201B0BDE8F08357F8040CFF
:1036300000F00C01386808295FD000F003000C3955
:103640000338B1FA81F1B0FA80F049094009084025
:10365000012852D06668B6F5803F09D0D9F800003D
:10366000B6F5A02F40F0FB8040F48020C9F80000A0
:10367000D9F8000040F48030C9F80000FFF7DCF80A
:10368000054600BFD9F8000010F4003FA8D1FFF7AD
:10369000D3F8401B6428F5D90320C3E757F8040C7E
:1036A00000F00C013868042933D000F003000C3915
:1036B0000238B1FA81F1B0FA80F0490940090840B6
:1036C000012826D0E168D9F80000002900F0A88080
:1036D00040F48070C9F80000FFF7AEF8054600BF5F
:1036E000D9F8000010F4806F40F0AF80FFF7A4F825
:1036F000401B0228F4D9032094E7D9F8000010F405
:10370000003F3FF46DAF606800287FF469AF01208F
:1037100088E7D9F8000010F4806F03D0E068002833
:1037200000F0408157F8080C216920F0FE4040EA83
:10373000016047F8080C40F24C00C2F2000000683B
:10374000FFF788F900283FF44EAF01206AE720F028
:103750000100C7F88800FFF76FF80546D7F8880022
:1037600010F0020F06D0FFF767F8401B0228F5D9CA
:10377000032057E72078400740F1B380F86C10F041
:10378000805F0BD1F86C4FF0010840F08050F86476
:10379000F86C00F080500090009801E04FF00008B5
:1037A00046F20006CFF6FE7659F8060010F4807F48
:1037B00014D159F8060040F4807049F80600FFF76C
:1037C0003BF8054659F8060010F4807F06D1FFF754
:1037D00033F8401B0228F5D9032023E7A668012E01
:1037E00007D0D7F88400052E57D140F00400C7F861
:1037F0008400D7F8840040F00100C7F88400FFF788
:103800001BF8054641F28836D7F8840010F0020F05
:1038100060D1FFF711F8401BB042F5D9032001E752
:1038200020F48070C9F80000FFF706F8054600BFD5
:10383000D9F8000010F4806F3FF4D5AEFEF7FCFF1E
:10384000411B03200229F3D9ECE657F8080C216943
:1038500020F0FE4040EA016047F8080CC3E620F47F
:103860008030C9F80000D9F8000020F48020C9F8A1
:103870000000FEF7E1FF0546002E7FF403AF00BF16
:10388000D9F8000010F4003F3FF4AAAEFEF7D4FFD1
:10389000411B03206429F3D9C4E620F00100C7F8D6
:1038A0008400D7F8840020F00400C7F88400FEF7F5
:1038B000C3FF0546002EA5D141F28836D7F8840013
:1038C00010F0020F06D0FEF7B7FF411B0320B142F4
:1038D000F4D9A7E6B8F1010F02BFF86C20F08050D0
:1038E000F864207880062BD5A169D7F88C0099B1AF
:1038F00040F00100C7F88C00FEF79EFF054600BFB0
:10390000D7F88C0010F0020F1AD1FEF795FF411B7B
:1039100003200229F4D985E620F00100C7F88C00C5
:10392000FEF78AFF054600BFD7F88C0010F0020FA3
:1039300006D0FEF781FF411B03200229F4D971E66E
:10394000E669002E00F0A98057F8040C00F00C0086
:103950000C2803D1012E27D1012063E6D9F80000FD
:1039600020F08070C9F80000FEF766FF0546022EC1
:103970000CD100BFD9F8000010F0007F48D0FEF74E
:103980005BFF411B03200229F4D94BE6D9F8000064
:1039900010F0007F7AD0FEF74FFF411B0320022971
:1039A000F4D93FE601203DE63868216A00F00302C1
:1039B0008A4274D1616A6FF00F0202EB011100F0CC
:1039C000F0028A426DD1A16A00F4FE42B2EB012FEF
:1039D00069D1E16A00F07842B2EBC16F65D1216B29
:1039E0000022CFF6E07202EA015100F4C002A1F514
:1039F00000118A425BD1616B4FF07E4200F0C060E3
:103A000002EA016101F17E41884246D0012009E6C7
:103A100004F1200638686FF00F054ECE05EB021258
:103A200048F20C05C0F29F1528400843216B104353
:103A30000022CFF6E07240EA032002EA01514FF083
:103A40007E42A1F500110843616B40EAC66002EABC
:103A5000016101F17E4108433860D9F8000040F06F
:103A60008070C9F80000386840F080703860FEF758
:103A7000E3FE0446D9F8000010F0007F0DD1FEF7F8
:103A8000DBFE011B03200229F4D9CBE538684FF691
:103A9000FC71CFF6EE61084038600020C2E50120DD
:103AA000C0E50120BEE50120BCE50120BAE501200A
:103AB000B8E50000B0B50446002C04BF0120B0BD3D
:103AC000606A20B10020206104F1140005E0606804
:103AD000B0F5827F03D004F11C00002101600020BA
:103AE000A06294F85D1021B984F85C00204600F0D3
:103AF00053F802204FF4805E84F85D00206801686E
:103B000021F040010160D4F80CC0BCF5E06F4CF42A
:103B1000006388BF4FF0000EB3F5706F1CBF002329
:103B2000A362D4E90131D4E9042503F4827301F4DA
:103B3000044102F002021943114305F0010211434E
:103B4000A26902F400731943E36903F038031943CF
:103B5000236A03F080031943A36A03F40053194353
:103B60000160042101EA1241626A636B02F01002F3
:103B700042EA0E02114303F0080211430CF4706292
:103B800011434160C16921F40061C161002001213C
:103B9000206684F85D10B0BD2DE9F04786B000279F
:103BA000044643F6004240F21C0841F24C000597DF
:103BB000CDE90377CDE90177C4F20002C4F202082F
:103BC000C4F202002168914255D043F20002C4F2CF
:103BD0000102914240F0A5804169002741F48051E3
:103BE0004161416901F4805100910099016841F0FF
:103BF0000101016001A9006800F001000090009837
:103C0000E0200190022002900320039704900520F9
:103C100005904FF09040FEF721FD40F204750A2018
:103C200080264FF480794FF4806AC2F20005C5E91E
:103C3000008005F11000C5E9027780E840062846BB
:103C4000C5E90777FEF734F8002818BFFCF7B2FC87
:103C5000A565AC6240F2647508F114000B211022D6
:103C6000C2F2000585E8870005F1100080E84006F3
:103C7000C5E907774AE0C16841F40041C160C16805
:103C800001F4004100910099016841F002010160D6
:103C900001A9006800F0020000900098382001900F
:103CA0000220CDE9020706200497059040F200406B
:103CB000C4F60000FEF7D2FC40F2C47508F15000D3
:103CC0000E2180264FF480794FF4806AC2F20005FD
:103CD00085E883002846C5E90376C5E9059AC5E964
:103CE0000777FDF7E5FF002818BFFCF763FCA56523
:103CF000AC6240F6240508F164000F211022002375
:103D0000C2F2000585E84F06C5E907332846FDF7EE
:103D1000CFFF002805F1280618BFFCF74BFC6565AE
:103D2000346006B0BDE8F0872DE9F04381B01E464F
:103D300015460F460446FEF77FFD94F85D10814658
:103D400001290BD06068B0F5827F16D104294FF0AD
:103D5000020004BFA168002940F03E810120002F2D
:103D600000F03A81002D18BF002E00F0358194F844
:103D70005C00012803D102202EE102202CE1012069
:103D8000DDF8208084F85C0094F85D0004281CBFF6
:103D9000052084F85D00002020662564A4F84660B4
:103DA000A4F84460A763E687A687C4E913002068E7
:103DB000E1684268B1F5E06F22F480552B4698BF68
:103DC00042F48053012E88BF2B464360026812F0F4
:103DD000400F02BF026842F040020260B1F5E06F9E
:103DE0006368A6F10102B2FA82F24FEA5212B3FA04
:103DF00083F34FEA531342EA030247D9012A06D15B
:103E000037F8021BC160A763E08F0138E087012605
:103E100008F10105E08F20B9B4F84600002800F051
:103E2000BB802068816811F0020F0CD0E18F012E59
:103E300009D141B1A16B002631F8022BC260A16308
:103E4000E18F0139E187816811F0010F1CBFB4F8DF
:103E5000461000290AD0C068216C012621F8020B07
:103E60002164B4F846000138A4F84600FEF7E4FCEB
:103E7000002DCFD0A0EB09004045CBD3012084F822
:103E80005D00002084F85C000320A5E0012A13D126
:103E9000E18F022908D337F8021BC160A7634FF6F0
:103EA000FE71E08F084406E039780173A06B0130A1
:103EB000A063E08F0138E087012708F101054FF684
:103EC000FE7600BFE08F18B9B4F84600002863D032
:103ED0002068816811F0020F18D0E18F012F15D1F1
:103EE000A1B1E28FA16B022A06D331F8022BC26086
:103EF000A163E18F314407E009780173A06B0130C1
:103F0000A063E18F206801390027E187816811F003
:103F1000010F1CBFB4F84610002922D0B4F8461097
:103F2000022912D3C168226C22F8021B2264B4F861
:103F300046103144A4F84610B4F8461001299EBF3B
:103F4000416841F4805141600AE0007B216C0870B7
:103F5000206C01302064B4F846000138A4F8460013
:103F60000127FEF769FCA0EB0900294640454FF008
:103F7000000028BF0120002D18BF0121B8F1000F5B
:103F80001CBF084001289DD1012084F85D0000205D
:103F900084F85C0003201FE020464FF4C0514246E5
:103FA0004B4602F047FD68B9204641464A4602F0BA
:103FB000B9FD38B920464FF4C06142464B4602F085
:103FC00039FD68B1206E40F0200020662020206678
:103FD000002084F85C000120C0B201B0BDE8F0838D
:103FE000012084F85D00002084F85C00206E002829
:103FF00018BF0120F0E70000704700007047000084
:104000007047000090F83C20012A02BF0221C8B28C
:104010007047B0B5012248F2FF7480F83C20CEF61C
:10402000F074D1E900C3D1E902E203EA040522F405
:104030007C522EF470531A4304F500632A4303EABA
:104040000C0304F5C0551A430B692B4004F5F045E9
:104050001A434B691A4304F560531A400B6B2B400B
:1040600000251A43CB69CEF6FF751A438B6905EA22
:10407000034342F6004513430268C4F20105AA4215
:104080001EBF45F20005C4F20105AA4205D043F265
:104090000045C4F20105AA4216D14FF6FF75CDF6D0
:1040A0000F452B40D1E9085CD1E90A4E0021CDF63D
:1040B000F04101EA0451194325F0085319432CF04B
:1040C0000053194341EA0E030021536480F83C1069
:1040D000BDE8B040C8B270477047000070470000AC
:1040E0007047000090F83C300222012B6AD010B5D6
:1040F000012342F6004E80F83C3080F83D20C4F2A7
:10410000010E02685368D2F808C072451EBF45F21E
:104110000004C4F20104A24205D043F20044C4F2F8
:104120000104A24203D14C6823F4700323434FF6E9
:104130008F74CFF6FF5423400C682343536042F63C
:10414000FF33C4F201039A420BDC40F2FF73C4F266
:1041500000039A4210DCB2F1804F26D040F20043B7
:1041600012E043F6FF73C4F201039A4211DC724578
:104170001BD043F2004314E040F60003C4F20003F6
:104180009A4212D040F60043C4F200039A420CD087
:1041900010E045F20003C4F201039A4205D044F254
:1041A0000003C4F201039A4204D189682CF0800311
:1041B000194391600121002280F83D1080F83C20D5
:1041C000BDE81040D0B2704739B10322082908BFBA
:1041D0000222042908BF012200E00022024492F8D2
:1041E0004420012A1CBF01207047022241B1082946
:1041F00009D0042914BF80F8472080F8452004E046
:1042000080F8442001E080F8462001F00F010422EC
:104210008A400168086A90430862086A104308628D
:10422000486C40F40040486442F6FF30C4F201009C
:1042300081420BDC40F2FF70C4F20000814214DCCA
:10424000B1F1804F2AD040F2004016E043F6FF70F3
:10425000C4F20100814215DC42F60040C4F20100C4
:1042600081421BD043F2004014E040F60000C4F24B
:104270000000814212D040F60040C4F200008142AA
:104280000CD016E045F20000C4F20100814205D0D6
:1042900044F20000C4F2010081420AD1886807227A
:1042A000C0F2010202400020062A18BFB2F5803F8A
:1042B00004D0086840F0010008600020704700004A
:1042C0007047000010B50446002C04BF012010BD4B
:1042D00094F83D0028B9002084F83C00204600F006
:1042E000BFF8022040F6FF3284F83D00C4F200021D
:1042F0002068016890420EDD43F2FF32C4F20102F1
:10430000904218DC40F60042C4F2000290421ED0F7
:1043100042F6004217E0B0F1804F1EBF40F200426B
:10432000C4F20002904212D040F60002C4F2000231
:1043300090420CD00FE045F20002C4F2010290421C
:1043400005D043F20042C4F20102904203D1A268B8
:1043500021F07001114343F2FF32C4F20102904296
:1043600014DC40F2FF72C4F20002904223DD40F6FA
:104370000002C4F2000290421EBF40F60042C4F2A6
:10438000000290422DD042F6004226E044F2FF3275
:10439000C4F20102904218DD44F20042C4F201026C
:1043A00090421EBF45F20002C4F20102904218D0B2
:1043B00044F6000211E0B0F1804F12D040F200420A
:1043C000C4F2000290420CD00FE043F20042C4F26B
:1043D0000102904205D044F20002C4F20102904270
:1043E00003D1226921F440711143E268A36921F0ED
:1043F0008001C262194362688262A0F18042A2F524
:1044000096324FEAB222092A08D8012303FA02F2AF
:1044100040F2E5231A421CBF62690263026842F05F
:1044200004020260012242610160002084F84820F9
:1044300084F83E2084F83F2084F8402084F841200E
:1044400084F8422084F8432084F8442084F84520EE
:1044500084F8462084F8472084F83D2010BD0000F1
:1044600080B582B0016843F2004241F26000C4F2BC
:104470000102C4F2020091421FD042F60042C4F28F
:10448000010291421CBF02B080BD0168002241F4CC
:10449000006101600121006800F400600190019852
:1044A0001820FEF771FB1820FEF75EFB1920012192
:1044B0000022FEF769FB192016E00168002241F492
:1044C000005101600121006800F400500090009844
:1044D0002B20FEF759FB2B20FEF746FB2C20012159
:1044E0000022FEF751FB2C2002B0BDE88040FEF711
:1044F0003BBB000090F83D1001291CBF0120704714
:10450000022180F83D10016842F6FF30C4F201003C
:1045100081420BDC40F2FF70C4F20000814214DCE7
:10452000B1F1804F2AD040F2004016E043F6FF7010
:10453000C4F20100814215DC42F60040C4F20100E1
:1045400081421BD043F2004014E040F60000C4F268
:104550000000814212D040F60040C4F200008142C7
:104560000CD016E045F20000C4F20100814205D0F3
:1045700044F20000C4F2010081420AD18868072297
:10458000C0F2010202400020062A18BFB2F5803FA7
:1045900004D0086840F00100086000207047000067
:1045A00090F83D1001291CBF01207047022180F8BE
:1045B0003D100168C86840F00100C86042F6FF3055
:1045C000C4F2010081420BDC40F2FF70C4F2000033
:1045D000814214DCB1F1804F2AD040F2004016E055
:1045E00043F6FF70C4F20100814215DC42F6004040
:1045F000C4F2010081421BD043F2004014E040F6B7
:104600000000C4F20000814212D040F60040C4F223
:10461000000081420CD016E045F20000C4F2010017
:10462000814205D044F20000C4F2010081420AD167
:1046300088680722C0F2010202400020062A18BF43
:10464000B2F5803F04D0086840F001000860002007
:1046500070470000016841F21113C0F211030A6AA9
:104660001A4208D10A6A44F244431A4202BF0A6855
:1046700022F001020A60012180F83D1000207047FD
:1046800090F83C300222012B00F0A180B0B501234C
:1046900088244FF6887C80F83C3080F83D20CFF6A7
:1046A000CE74CFF6CF7C02689368234093600B688A
:1046B000B3F5005F0DDA3F2B21DD5F2B31DD602B81
:1046C00000F08780702B00F0B380B3F5805F75D069
:1046D000F5E02F24C0F21004A34217DD4F21C0F2F1
:1046E00010018B4250DD5021C0F210018B421EBFE1
:1046F0006021C0F210018B4259D0702152E01F2B73
:1047000049DC002B53D0102B51D0D8E0B3F1101F4F
:1047100046DAB3F5005F00F09A80B3F5801F46D00B
:10472000CDE04DF20044402BCBF6FE7400F09E80AD
:10473000502B40F0C480D1F804E0CB68116A156AB0
:1047400014444FEAB424092C25F0010515620AD857
:10475000012505FA04F440F2E5252C421EBF146A37
:1047600024F004041462946921F00A0141EA0E0164
:1047700024F0F00444EA031393611162916801EAA2
:104780000C0141F0570118E03021C0F210018B42BA
:104790000DD0402106E0202B18BF302B07D08EE033
:1047A00005D02021C0F210018B4240F08880916832
:1047B00001EA0C01194341F0070191600022012137
:1047C00080F83D10002180F83C10BDE8B040D0B228
:1047D0007047D1F804E0CB68116A146A24F0100421
:1047E000146242F60044C4F20104A2421EBF45F224
:1047F0000004C4F20104A24205D043F20044C4F212
:104800000104A24203D1146A24F0400414629469A2
:1048100021F0A00141EA0E1124F4704444EA03336C
:1048200093611162916801EA0C0141F06701C4E7EC
:10483000D1E90134C968234343EA0121936823F491
:104840007F4319439160916841F07701B5E7D1E961
:104850000134C968234343EA0121936823F47F4369
:1048600019439160916841F48041A6E7D1F804E0D2
:10487000CB68116A156A14444FEAB424092C25F058
:10488000010515620AD8012505FA04F440F2E52570
:104890002C421EBF146A24F004041462946921F0AF
:1048A0000A0141EA0E0124F0F00444EA0313936183
:1048B0001162916801EA0C0141F047017DE7012294
:1048C0007DE7000070470000F0B581B00446206825
:1048D000C768066907EA0605A90714D56FF0020143
:1048E000016101212177806910F0030F03D0204678
:1048F000FFF7E8FF05E0204600F01EF9204600F033
:10490000C3FC00202077680715D520686FF00401EC
:10491000016102212177806910F4407F03D0204695
:10492000FFF7D0FF05E0204600F006F9204600F032
:10493000ABFC00202077280715D520686FF0080110
:10494000016104212177C06910F0030F03D02046D4
:10495000FFF7B8FF05E0204600F0EEF8204600F033
:1049600093FC00202077E80615D520686FF0100131
:10497000016108212177C06910F4407F03D02046EF
:10498000FFF7A0FF05E0204600F0D6F8204600F033
:104990007BFC00202077E80706D020686FF001013B
:1049A0000161204600F098FD17F0800718BF16F44B
:1049B000025006D020686FF4025101612046FFF7D3
:1049C0001DFB002F18BF16F4807006D020686FF40E
:1049D000807101612046FFF70FFB680606D520684D
:1049E0006FF040010161204600F080FDA80606D569
:1049F00020686FF0200101612046FFF701FBE8020B
:104A000006D520686FF4801101612046FFF766FB30
:104A1000A80206D520686FF4001101612046FFF757
:104A20005BFB680206D520686FF4800101612046B7
:104A3000FFF756FB28025CBF01B0F0BD20686FF4A1
:104A400000010161204601B0BDE8F040FFF738BC2D
:104A50002DE9F04186B0002143F2004340F20044CA
:104A60000591CDE90311CDE90111C4F20103C4F6AA
:104A70000004026841F24C00C4F202009A4241D0A4
:104A800042F60041C4F201018A4252D1016801ADEF
:104A9000022600274FF0060841F00201016001687C
:104AA00001F0020100910099016841F001010160EB
:104AB0002946006800F00100009000984FF4C040C3
:104AC000019020460296CDE90377CDF81480FDF7DA
:104AD000C5FD4FF4004001A9C1C104200497294637
:104AE00005902046FDF7BAFD4FF4E06001A9C1C171
:104AF0004FF090402946CDE90478FDF7AFFD06B0B0
:104B0000BDE8F081026842F004020260006800F033
:104B10000400009000984FF4EE5001900220CDE97F
:104B200002010420049101A9059004F58060FDF7BD
:104B300095FD06B0BDE8F08170470000B0B50446B1
:104B40000D46002C04BF0120B0BD94F83D0028B9EB
:104B5000002084F83C00204600F0BAF8022040F61D
:104B6000FF3284F83D00C4F20002206801689042E0
:104B70000EDD43F2FF32C4F20102904218DC40F62F
:104B80000042C4F2000290421ED042F6004217E0FA
:104B9000B0F1804F1EBF40F20042C4F200029042CA
:104BA00012D040F60002C4F2000290420CD00FE096
:104BB00045F20002C4F20102904205D043F20042E5
:104BC000C4F20102904203D1A26821F070011143A6
:104BD00043F2FF32C4F20102904214DC40F2FF7251
:104BE000C4F20002904223DD40F60002C4F200024B
:104BF00090421EBF40F60042C4F2000290422DD007
:104C000042F6004226E044F2FF32C4F20102904232
:104C100018DD44F20042C4F2010290421EBF45F288
:104C20000002C4F20102904218D044F6000211E0E2
:104C3000B0F1804F12D040F20042C4F20002904224
:104C40000CD00FE043F20042C4F20102904205D0C2
:104C500044F20002C4F20102904203D1226921F41D
:104C600040711143E268A36921F08001C2621943D7
:104C700062688262A0F18042A2F596324FEAB222C7
:104C8000092A08D8012303FA02F240F2E5231A4266
:104C90001CBF62690263026842F0040202600122E2
:104CA00042610160016821F0080101600168294347
:104CB0000160002084F8482084F83E2084F83F20DA
:104CC00084F8442084F8452084F83D20B0BD0000DD
:104CD000006844F20001C4F20101884218BF704725
:104CE00080B582B041F260000022C4F20200016887
:104CF00041F4803101600121006800F480300190AE
:104D000001981820FDF740FF182002B0BDE8804050
:104D1000FDF72ABF90F83C30012B02BF0223D8B226
:104D200070474FEAB2020123052A80F83C3000F2B6
:104D3000D6812DE9F0474DF2004C48F6FF4A4FF678
:104D40008C79CBF6FE7CCFF6FF6ACFF6FE79DFE8F2
:104D500012F006005100A600FB004F018701026817
:104D6000D2F82080136A23F0010328F002061362B0
:104D70001346D2F804E053F8185F0F688C6805EA10
:104D80000905344345EA070802EB0C074FEAB7264A
:104D9000092E0FD8012740F2E525B7402F421FBF4B
:104DA000176A27F004071762CF681CBF24F00805B4
:104DB00047EA0504092E0CD80127B74040F2E52642
:104DC00037421FBFD1E905762EF440752F4347EADD
:104DD000060EC2F804E0C2F818804F6857631462E8
:104DE000976947F008079761976927F0040797616B
:104DF00009696EE10268D2F82080136A23F010037B
:104E000028F0200513621346D2F804E053F8186F17
:104E10008C680F6845EA041406EA0A0542F6004663
:104E2000C4F2010645EA0728B2421EBF45F2000659
:104E3000C4F20106B24205D043F20046C4F20106B4
:104E4000B24208D1166A24F0800426F040061662A9
:104E5000CE6844EA061402EB0C074FEAB726092E87
:104E60000DD80127B74040F2E52637421FBFD1E9F0
:104E700005762EF4406545EA870747EA860EC2F8B4
:104E800004E0C2F818804F6897631462976947F48A
:104E900000679761976927F48067976117E1026857
:104EA000146A136A23F4807324F4007413621346A3
:104EB000D2F804E053F81C5F0E688F6805EA090514
:104EC00044EA072445EA060842F60046C4F2010611
:104ED000B2421EBF45F20006C4F20106B24205D03E
:104EE00043F20046C4F20106B24208D1166A24F425
:104EF000006426F480661662CE6844EA062402EB5B
:104F00000C074FEAB726092E0DD80127B74040F20B
:104F1000E52637421FBFD1E905762EF4405545EA14
:104F2000071747EA061EC2F804E0C2F81C804F6863
:104F3000D7631462D76947F00807D761D76927F0AC
:104F40000407D7610969C4E00268146A136A23F48C
:104F5000805324F4005413621346D2F804E053F84B
:104F60001C5F0E688F6805EA0A0544EA073445EAC3
:104F7000062842F60046C4F20106B2421EBF45F2C0
:104F80000006C4F20106B24205D043F20046C4F264
:104F90000106B24208D1166A24F4004426F4804681
:104FA0001662CE6844EA063402EB0C074FEAB726D5
:104FB000092E0DD80127B74040F2E52637421FBF22
:104FC000D1E905762EF4404545EA871747EA861E63
:104FD000C2F804E0C2F81C804F6817641462D769F5
:104FE00047F40067D761D76927F48067D7616EE01F
:104FF0000268D2F820E0136A23F480332EF40035DF
:1050000013621346D2F8048053F8504F8F680E682D
:1050100045EA074E09F1030502EB0C072C40264335
:105020004FEAB724092C0AD8012740F2E525A7400A
:105030002F421EBF4F6928F4803545EA0728C2F881
:10504000048016654F689764C2F820E0176D47F03A
:1050500008071765176D27F004071765096938E019
:105060000268D2F820E0136A23F480132EF40016AD
:1050700013621346D2F8048053F8504F8F680D68BE
:1050800046EA075E0AF5407602EB0C07344044EA34
:1050900005254FEAB724092C0AD8012740F2E52656
:1050A000A74037421EBF4F6928F4802646EA87286A
:1050B000C2F8048015654F68D764C2F820E0176D08
:1050C00047F400671765176D27F48067176509694E
:1050D00009021A68114319600023BDE8F047002156
:1050E00080F83C10D8B2704710B50446002C04BFBD
:1050F000012010BD94F83D0028B9002084F83C0040
:10510000204600F0BFF8022040F6FF3284F83D0050
:10511000C4F200022068016890420EDD43F2FF32C3
:10512000C4F20102904218DC40F60042C4F20002D0
:1051300090421ED042F6004217E0B0F1804F1EBFF1
:1051400040F20042C4F20002904212D040F6000247
:10515000C4F2000290420CD00FE045F20002C4F20B
:105160000102904205D043F20042C4F20102904293
:1051700003D1A26821F07001114343F2FF32C4F25F
:105180000102904214DC40F2FF72C4F2000290422D
:1051900023DD40F60002C4F2000290421EBF40F63A
:1051A0000042C4F2000290422DD042F6004226E0B6
:1051B00044F2FF32C4F20102904218DD44F2004290
:1051C000C4F2010290421EBF45F20002C4F2010285
:1051D000904218D044F6000211E0B0F1804F12D096
:1051E00040F20042C4F2000290420CD00FE043F2C1
:1051F0000042C4F20102904205D044F20002C4F21F
:105200000102904203D1226921F440711143E26806
:10521000A36921F08001C262194362688262A0F131
:105220008042A2F596324FEAB222092A08D8012319
:1052300003FA02F240F2E5231A421CBF62690263DC
:10524000026842F004020260012242610160002013
:1052500084F8482084F83E2084F83F2084F84020D9
:1052600084F8412084F8422084F8432084F84420C4
:1052700084F8452084F8462084F8472084F83D20AF
:1052800010BD0000704700007047000071B180B58C
:105290000B1F4FF0010C05224FEAB30EBEF1040FB5
:1052A00038BF0CEBB302BDE8804000E000220244AE
:1052B00092F83E20012A1CBF0120704761B10A1FED
:1052C0004FEAB202032A0BD8DFE802F0020E1216F0
:1052D000022280F83F2012E0022280F83E200EE0F9
:1052E000022280F843200AE0022280F8402006E0F3
:1052F000022280F8412002E0022280F8422001F0E0
:105300001F01012202FA01F30168086A984308624A
:10531000086A18430862A1F18040A0F596304FEA70
:10532000B020072853D802FA00F010F0E50F4ED055
:10533000486C40F40040486442F6FF30C4F201007B
:1053400081420BDC40F2FF70C4F20000814214DCA9
:10535000B1F1804F2AD040F2004016E043F6FF70D2
:10536000C4F20100814215DC42F60040C4F20100A3
:1053700081421BD043F2004014E040F60000C4F22A
:105380000000814212D040F60040C4F20000814289
:105390000CD016E045F20000C4F20100814205D0B5
:1053A00044F20000C4F2010081420AD18868072259
:1053B000C0F2010202400020062A18BFB2F5803F69
:1053C00004D0086840F0010008600020704742F6F1
:1053D000FF30C4F201008142B4DD43F6FF70C4F235
:1053E00001008142C0DD44F20000C4F201008142AC
:1053F000DCD045F20000C4F20100814298D0E0E721
:1054000080B501F01F024FF0010E0EFA02FC026897
:10541000136A23EA0C0341F2111C1362C0F2110C4F
:10542000136A1362A2F18043A3F596334FEAB323C4
:10543000072B14D80EFA03F313F0E50F0FD0136AFD
:1054400013EA0C0F11D1D2F820E044F244431EEAD3
:10545000030F02BF536C23F40043536405E045F28D
:105460000003C4F201039A42E9D0136A13EA0C0F55
:105470000AD1D2F820C044F244431CEA030F02BF11
:10548000136823F0010313604FEAB101042909D81E
:10549000DFE801F0030D12171C00012180F83E1017
:1054A000002080BD012180F84310002080BD012133
:1054B00080F83F10002080BD012180F840100020BE
:1054C00080BD012180F84110002080BD012180F8BD
:1054D0004210002080BD0000006841F20041C4F28B
:1054E0000001884208BFFDF797BA70477047000077
:1054F00090F88410012902BF0221C8B2704724210C
:10550000C0F8881002681368116821F0010123F0C7
:10551000005311600021416613602022C0F88820EA
:1055200080F88410C8B270477047000070470000D0
:1055300090F88420012A02BF0221C8B27047B0B59A
:105540004FF0010E242280F884E0C0F88820026821
:10555000D2F800C0136823F001031360936823F0AE
:10556000606319439160416EC9B191684EF6A80E0F
:105570004EF6A005C0F6000EC0F60005C1F342616C
:105580001EF80130695CC900B1FBF3F193685B0F51
:105590001EF80340EB5CDB00B3FBF4FE00E00121EE
:1055A000A0F86AE0A0F868102021C2F800C0C0F896
:1055B0008810002180F88410BDE8B040C8B2704760
:1055C00090F88420012A02BF0221C8B27047B0B50A
:1055D0004FF0010E242280F884E0C0F88820026891
:1055E000D2F800C0136823F001031360936823F01E
:1055F000604319439160416EC9B191684EF6A80E9F
:105600004EF6A005C0F6000EC0F60005C1F34261DB
:105610001EF80130695CC900B1FBF3F193685B0FC0
:105620001EF80340EB5CDB00B3FBF4FE00E001215D
:10563000A0F86AE0A0F868102021C2F800C0C0F805
:105640008810002180F88410BDE8B040C8B27047CF
:105650007047000070470000704700002DE9F041DE
:10566000044640F62F012068C26902EA010701687A
:105670008368202F0DD101F0200703F080563743B7
:1056800007D0616F002900F0AC812046BDE8F041F1
:10569000084740F60F074FF6FE781740CEF6FF7822
:1056A00052D040F220160125C0F20046C1F200059A
:1056B0000E401D402E4347D0D6070BD011F4807604
:1056C0001FBF01260662D4F8906046F0010618BF9D
:1056D000C4F8906003F0010697070AD5002E1FBF9B
:1056E00002270762D4F8907047F0040718BFC4F887
:1056F000907057070AD5002E1FBF04270762D4F801
:10570000907047F0020718BFC4F8907017070CD5C7
:1057100001F020072F431FBF08270762D4F89070BD
:1057200047F0080718BFC4F8907017055ED511F050
:1057300080675BD04FF400672546076255F8907F7D
:1057400047F020072F6053E0E66E02EA0105EF06FE
:105750003DD5012E3BD110210162816811F0400F2F
:1057600040F0B680B4F85C10B4F85E20B4F85E3057
:10577000002B00F03681891A89B211B931E100BFDE
:10578000206850E8000F226820F4907042E800037F
:10579000002BF5D1206850E8020F226800EA0800CB
:1057A00042E80203002BF5D12020C4F88C00002031
:1057B000E0666067206850E8000F226820F0100063
:1057C00042E80003002BF5D102202067CCE0D7028D
:1057D00040F1CF8013F4800700F0CB804FF48011AC
:1057E00001622046BDE8F041FFF734BF04F19005A7
:1057F0002F68002F00F0F58012F020020BD001F08E
:10580000200103F0805211431CBF616F002902D0B8
:105810002046884720682968826801F0280102F044
:105820004002114309D12046FFF716FF0020C4F8BB
:105830009000BDE8F08100BF206850E8000F2168AB
:1058400020F4907041E80002002AF5D1206850E869
:10585000020F216800EA080041E80202002AF5D19F
:10586000E06E01280AD100BF206850E8000F2168CF
:1058700020F0100041E80002002AF5D12020C4F8F1
:105880008C000020E06660672068816811F0400F9E
:1058900001D17BE0206850E8020F216820F0400031
:1058A00041E80202002AF5D1D4F8800000286DD02A
:1058B00046F65561C0F600018163FCF75DF90028EA
:1058C00000F08F80D4F88000816BBDE8F04108477C
:1058D000D4F880100B685F68B4F85C20B9B2002976
:1058E00078D0914276D2A4F85E70196811F0200F3A
:1058F00001D033E0206850E8000F216820F4807068
:1059000041E80002002AF5D1206850E8020F216822
:1059100020F0010041E80202002AF5D1206850E899
:10592000020F216820F0400041E80202002AF5D170
:105930002020C4F88C000020E06600BF206850E8FA
:10594000000F216820F0100041E80002002AF5D184
:10595000D4F88000FCF7D6F8B4F85C200220206769
:10596000B4F85E00101A81B22046BDE8F041FFF79E
:10597000DBBD17060FD501F0800703F400033B439E
:1059800009D0A16F00297FF480AE2AE02046BDE84F
:10599000F041FFF761BE6B0625D550E8000F216886
:1059A00020F0400041E8000252B100BF206850E8FA
:1059B000000F216820F0400041E80002002AF5D1E4
:1059C0002020C4F888000020A0672046BDE8F041F0
:1059D00000F086B98A4204D1186810F0200F7FF4D5
:1059E000F3AEBDE8F081100207D511F0804004D07D
:1059F0002046BDE8F041FFF72BBED001F1D5B1F153
:105A0000FF3FC8BFBDE8F0812046BDE8F041FFF789
:105A10008DBD000010B50446DCB1D4F8880028B96B
:105A2000002084F88400204600F028F82420C4F8E0
:105A300088002068016821F001010160A06A002847
:105A40001CBF204601F02EF9204601F0A3FA0128E0
:105A500001D1012010BD2068416821F490414160CE
:105A6000816821F02A018160016841F00101016033
:105A70002046BDE8104001F08BB900002DE9F0414F
:105A80009CB00446002602A854211B96CDE9196655
:105A9000CDE91766FAF706FC206843F6000140F2EC
:105AA000080841F24C0740F20045C4F20101C4F27B
:105AB0000208C4F20207C4F60005884255D048F235
:105AC0000001C4F20001884240F0B5802020002689
:105AD000029002A80896FDF703FA002818BFFAF70B
