:020000040800F2
:10000000D80B0020ED010008DB53000891490008DF
:10001000D95300083F0500082F62000800000000C7
:100020000000000000000000000000000D56000865
:10003000FB05000800000000EF5300080F56000801
:10004000070200080702000807020008070200086C
:10005000070200080702000807020008070200085C
:10006000070200080702000807020008410500080F
:10007000070200080702000807020008070200083C
:100080000702000807020008F9020008070200083A
:1000900007020008690600080702000807020008B6
:1000A00089560008A5560008070200080702000844
:1000B00007020008070200080702000807020008FC
:1000C00007020008070200080702000807020008EC
:1000D00007020008070200080702000807020008DC
:1000E000070200080702000807020008B1560008CE
:1000F00007020008070200080702000815030008AD
:1001000007020008070200080702000807020008AB
:10011000070200080702000807020008070200089B
:10012000070200080702000807020008070200088B
:100130000702000807020008210300080702000860
:10014000070200080702000807020008070200086B
:10015000070200080702000807020008070200085B
:10016000070200080702000807020008070200084B
:10017000070200080702000807020008070200083B
:10018000070200080702000807020008070200082B
:10019000070200080000000007020008070200082C
:1001A000070200080702000807020008494A000881
:1001B00007020008070200080702000807020008FB
:1001C00007020008070200080702000807020008EB
:1001D0000702000807020008DFF80CD000F07AF8E8
:1001E0000048004729630008D80B002006488047D4
:1001F00006480047FEE7FEE7FEE7FEE7FEE7FEE70C
:10020000FEE7FEE7FEE7FEE779560008D9010008A1
:100210002DE9F05F0546002092469B46884606463B
:10022000814640241BE0284641464746224600F0CE
:1002300041F853465A46C01A914110D31146184608
:10024000224600F016F82D1A67EB01084F462246A9
:100250000120002100F00DF817EB00094E41201E8F
:10026000A4F10104DFDC484631462A464346BDE896
:10027000F09F202A04DB203A00FA02F100207047A8
:100280009140C2F1200320FA03F3194390407047D4
:10029000D2B201E000F8012B491EFBD270470022C8
:1002A000F6E710B513460A4604461946FFF7F0FF75
:1002B000204610BD202A04DB203A21FA02F000215A
:1002C000704721FA02F3D040C2F120029140084366
:1002D00019467047064C074D06E0E06840F0010300
:1002E00094E8070098471034AC42F6D3FFF778FF44
:1002F000C0640008E064000810B5044801F088F804
:10030000BDE81040024801F083B8000088000020DA
:10031000F4000020014801F07BB8000060010020DB
:10032000014801F075B80000CC01002070B504460A
:1003300000688168C1F3400504F03FFB48B345BB4A
:100340002068816801F00D01012914D18168124AE9
:100350001140891C816021680320086002F096F931
:10036000054612E002F092F9401B02280DD92068E0
:100370008068C00709D0E06D40F01000E065206E95
:1003800040F001002066012070BD20688068C00731
:10039000E8D1002070BD0000C0FFFF7FF8B5044623
:1003A00000200090206804F008FBE8BB206881680A
:1003B000264A114237D18168D6433140491C8160B9
:1003C0002068B0F1A04F02D02149884201D12148D4
:1003D00000E02148806800F0E07000020DD51F4861
:1003E0001F490068B0FBF1F0401C00EB40008000AA
:1003F00000E0401E00900028FBD102F047F90546BE
:100400001DE004F0DAFA20B9206881683140491C07
:10041000816002F03BF9401B022810D92068006877
:10042000C043C0070BD000E00EE0E06D40F01000CC
:10043000E065206E40F0010020660120F8BD2068D4
:100440000168C943C907DCD10020F8BD3F00008026
:100450000001005000030050000700502000002061
:10046000400D030010B5044643F6FE7100F050F84D
:1004700000EE100AF8EE400A94ED030A30EEC00ACE
:10048000B5EEC00AF1EE10FA02DDB0EE401A01E05E
:10049000B1EE401A11EE100A0F499FED101A884272
:1004A0000FDDD4ED041AB5EEC00AF1EE10FA02DD4C
:1004B0009FED0B0A01E0B0EE410A31EE800A84EDB7
:1004C000040ADFED081AC4ED030A94ED040A60EE95
:1004D000A10A00EE810A10BDCDCC4C46DB0FC9400D
:1004E000DB0FC9C00000803830B4C0E900129FEDB6
:1004F000070A0381144680ED030A80ED040A2046B2
:1005000030BC0122194602F0BBB800000000000018
:1005100010B5044641F48042104604F05FFF012804
:1005200001D142F400421146204604F085FF4FF409
:100530008041204604F080FFC0F30D0010BDFEE7AF
:10054000014801F033BB00001804002010B5026818
:100550000E4CD1B214230839A24203D2B1FBF3F1FD
:100560000B4A04E0B1FBF3F1094A20320831436C35
:1005700023F003031A448264054A8032C26401F006
:100580001F0201219140016510BD000008040240D6
:10059000000802400179084A01F07F0102EB810264
:1005A0004265054A4432491E826501F01F0201215D
:1005B0009140C16570470000FC08024030B5D0E9A9
:1005C00013456560446D14B1D0E91645656090F837
:1005D000444004F01F050124AC40056C6C600468C5
:1005E00063608368102B036803D099600068C26061
:1005F00030BD9A600068C16030BD704772B6FEE7DA
:1006000010B588B000240220CDE9024001200490FA
:1006100040020590019440F2FF70069001A9104835
:1006200001F04CFC0222002311460D48009401F019
:1006300073FC0B4801F02BFF00220121084801F058
:10064000CDFB084840F20221C0E900140821C0E9AE
:100650000241046144618461C461046208B010BD58
:1006600038020020D8060020014801F0FEBC00003E
:1006700038020020F8B500250446009590F858008F
:100680000E4601280BD0012084F858002046FFF7C1
:100690004DFE0200E06D04D040F010002AE0022080
:1006A000F8BD20F4885040F00200E06520688168C1
:1006B000134B194006F08043194341F0004181601B
:1006C000104B20680EE00099491C0091994209D313
:1006D000E06D20F0020040F01000E06584F8585012
:1006E0000120F8BD8168C90FEDD1E06D20F0020056
:1006F00040F00100E06584F858501046F8BD000055
:10070000C0FFFF3F02DE0400704700002DE9F84FF4
:100710004FF000090446CDF800900D4694F858209B
:10072000DFF8008461694F464846012A0AD0012655
:10073000FD4A84F8586041B1296A012905D0A36EA9
:10074000EBB129E00220BDE8F88F6868092838D1AC
:10075000A96A4FF4785041B12B6801F07C0100EA9E
:1007600053400843E96A084302E0296800EA51401F
:100770002168CB6C13400343CB64606621E0C4E97D
:100780001971A96A286A31B101F07C01401E084341
:10079000E96A084300E0401E2968C1F384632979AF
:1007A00001F01F018B40A16E0343491EA166606EDC
:1007B00040EA0300606604D12168CB6C1340034318
:1007C000CB64206804F0F5F858B995F8250098B185
:1007D0002068C16895F8262021F4401141EA425171
:1007E000C160206804F0F5F88246206804F0E1F862
:1007F0005AEA00010DD0FAE095F8260095F8241089
:10080000400540EA01512068C26822F440121143B9
:10081000E6E7A86A30B1E86A20B195F8250001281A
:100820005DD003E095F82500012804D02068C16858
:1008300021F0007103E02068C16841F00071C160DF
:1008400095F83000012851D02068016921F002019B
:100850000161AA6829682068B2F1004F37D004F01E
:10086000D3F82068416921F000414161206869693D
:10087000C268C2F3C102520091402A69042A43D0DF
:1008800000EB82002B68026EDFF8A0C203F0F84391
:1008900002EA0C020B431A4342F00041016622684F
:1008A0002869A96902EB8000026E22F080720A4377
:1008B0000266297F22682869012922D0002102EBE3
:1008C0008000026E22F000720A4302668FE000226E
:1008D00004F09AF82068416941F00041C5E7E06DF5
:1008E00040F02000E0654FF00109A9E7D5E90D10BF
:1008F00001432068026922F4FF7242F002021143B0
:10090000A6E74FF00071DAE7002104F048F8400351
:1009100020684FF0000171D004F041F890FAA0F087
:10092000B0FA80F1286842036DD090FAA0F0B0FAD6
:1009300080F0814204D100221146206804F07BF847
:100940000121206804F02BF8400320684FF00101DA
:100950005CD004F024F890FAA0F0B0FA80F1286896
:10096000420358D090FAA0F0B0FA80F0814204D14E
:1009700000220121206804F05EF80221206804F0C2
:100980000EF8400320684FF0020147D004F007F84A
:1009900090FAA0F0B0FA80F12868420343D090FAB0
:1009A000A0F0B0FA80F0814204D100220221206838
:1009B00004F041F80321206803F0F1FF40032068B0
:1009C0004FF0030132D003F0EAFF90FAA0F0B0FA42
:1009D00080F1286842032ED090FAA0F0B0FA80F09F
:1009E000814204D100220321206804F024F8206809
:1009F00003F0E7FF10B3B3E000E004E003F0CFFF43
:100A0000C0F384618EE7C0F3846092E703F0C7FF10
:100A1000C0F38461A3E7C0F38460A7E703F0BFFFDE
:100A2000C0F38461B8E7C0F38460BCE703F0B7FFAC
:100A3000C0F38461CDE7C0F38460D1E721682A7BED
:100A4000286851F8B03FC0F3120C23EA0C0302F0FF
:100A5000180C374A22FA0CF2024013430B60E96883
:100A600041457DD1286841031AD090FAA0F1B1FA2E
:100A700081F1491C01F01F0109294FEA403130D8AA
:100A8000002910D090FAA0F1B1FA81F101F1010131
:100A900001F01F0106FA01F608D1C0F3846109E0F4
:100AA000C0F38461E5E7C0F38461EFE790FAA0F159
:100AB000B1FA81F101F1010101F01F0146EA816102
:100AC00002D1C0F3846003E090FAA0F0B0FA80F0A5
:100AD00000F1010000F01F0000EB400041EA00516E
:100AE0003AE000290DD090FAA0F1B1FA81F101F1BC
:100AF000010101F01F0106FA01F605D1C0F384617E
:100B000006E0C0F38461F2E790FAA0F1B1FA81F156
:100B100001F1010101F01F0146EA81610BD1C0F32F
:100B200084600CE000007F400040100400F0FF03F0
:100B3000FFFF070014E090FAA0F0B0FA80F000F197
:100B4000010000F01F00394A00EB400002EB0050AA
:100B500041EA000141F00071AA68206803F054FFE7
:100B600033482A6802425CD020684FF0A04C314DD7
:100B7000314B324E604501D0A84201D1194600E008
:100B800031468968DFF8B88001F0E071424503D052
:100B9000DFF8B080424520D15FEA01281DD46045CE
:100BA00005D0294A90423CD1A84200D0334641F4B6
:100BB0000000996821F0E0710143996023482449BD
:100BC0000068B0FBF1F0801C00EB4000800000E00A
:100BD000401E00900028FBD123E0DFF878804245DA
:100BE0000DD15FEAC1180AD4A8421AD01A4A90421D
:100BF00017D0604500D0334641F080700CE0DFF83C
:100C00005C8042450DD14A020BD4A84209D0604510
:100C100000D0334641F48000996821F0E07101432F
:100C2000996084F8587048468DE50000000020FE69
:100C30000000088000010050000300500007005031
:100C4000000021C31000C0900006005020000020CA
:100C5000400D0300000052C700050050000084CB87
:100C600070B504462048214E844206F10C050AD195
:100C7000006850F8801F318000682881E868401CB7
:100C8000E86005F007FB1A4884420DD1006850F86F
:100C9000801FF1804268328180687081A5F842101F
:100CA000A5F84420A5F84600124884420AD10068FD
:100CB00050F8801F71800068A883286A401C286251
:100CC00005F0E8FA0C4884420CD1006850F8801F07
:100CD000B18000682886686B401C6863BDE870407E
:100CE00005F0D8BA70BD0000880000203400002054
:100CF000F400002060010020CC01002070470000BB
:100D00002DE9F041044600684FF0A0464C4FB04238
:100D100001D0B84201D14B4900E04B49896801F04C
:100D20001F0503F046FE08BB2068C168C06C01F0D7
:100D3000004110F4C07F00D191B194F8580001280F
:100D400014D0012084F858002046FFF727FB01004B
:100D50004FF000020CD084F858200846BDE8F0811E
:100D6000E06D40F02000E0650120F7E70220F5E7A4
:100D7000E06DC00504D5206E20F00800206600E07C
:100D80002266E06D42F20103984340F48050E06532
:100D900020682E4BDFF8B8C0B84201D1B64604E057
:100DA000984201D1E64600E08646864500D02DB93E
:100DB000D4F85CE02EF4801EC4F85CE04FF0600EC6
:100DC000C0F800E084F858202068C268920203D579
:100DD000426842F480624260A06908282068426844
:100DE00007D022F0400242602068426842F02002B0
:100DF00006E022F0200242602068426842F0400291
:100E000042602068B84204D0984201D1664600E0B2
:100E10000646864209D045B1062D06D0072D04D0DE
:100E2000E06D40F48010E06597E7C26812F0007F43
:100E300093D18268074B1A4042F0080282608CE727
:100E40000001005000030050000700500005005052
:100E500000040050C0FFFF7F704770472DE9F04F3E
:100E6000044690F858009BB00D464FF0000B012847
:100E700012D0012084F8580000271797189720688F
:100E80004FF0A048DFF80C91DFF80CA1434E40452D
:100E900006D13046009608E002201BB0BDE8F08F76
:100EA00048450AD15046CDF800A003F092FD0090CD
:100EB000206803F08EFD40B109E0E06D40F02000B5
:100EC000E06584F858700120E7E7009848B1E06DCC
:100ED00040F02000E0654FF0010B84F85870584650
:100EE000DBE72068C446604501D0B04201D12C4800
:100EF00000E02C4829682C4B0029816840F61F72BD
:100F000021F4604128D094F8388041EA4831D5F87E
:100F1000048041EA080181602168614501D0B14245
:100F200005D1DCF80810B368C1F3000109E0D9F875
:100F30000810DAF80860C1F30001C6F300069B68E8
:100F40003143C3F300031943C7D1AB682968194380
:100F50008368934319431BE081602168614501D098
:100F6000B14205D1DCF80810B368C1F3000109E013
:100F7000D9F80810DAF80850C1F30001C5F30005EC
:100F80009B682943C3F300031943A6D181689143A9
:100F90008160A2E7000400500005005000010050ED
:100FA0000003005000070050000600502DE9F84FE4
:100FB00000270446009790F85800DFF810840D468B
:100FC000B946012810D0012684F85860206803F043
:100FD000FCFC58B1E06D40F02000E065012784F88A
:100FE00058903846BDE8F88F0220FBE7D5E900218C
:100FF0000C23206803EA91131844036B01F01F01CE
:101000004FF01F0C0CFA01FCC2F3846223EA0C03BC
:101010008A4013430363206803F0D7FC82462068AC
:1010200003F0C3FC5AEA00013CD1AA682968206891
:10103000B2F1004F37D003F0D8FC2068416921F0AD
:101040000041416120686A69C168C1F3C10149007A
:101050008A402969042931D000EB81002B68016E98
:10106000DFF86CC303F0F84301EA0C0113431943A2
:1010700041F00041016622682869A96902EB8000FD
:10108000026E22F080720A430266297F2268286974
:10109000012910D0002102EB8000026E22F00072C4
:1010A0000A4302667DE0002203F09FFC206841694C
:1010B00041F00041C5E74FF00071ECE7002103F07B
:1010C00068FC400320684FF0000171D003F061FC20
:1010D00090FAA0F0B0FA80F1286842036DD090FA3F
:1010E000A0F0B0FA80F0814204D1002211462068BD
:1010F00003F099FC0121206803F04BFC40032068B9
:101100004FF001015CD003F044FC90FAA0F0B0FA7B
:1011100080F12868420358D090FAA0F0B0FA80F02D
:10112000814204D100220121206803F07CFC0221CD
:10113000206803F02EFC400320684FF0020147D0E6
:1011400003F027FC90FAA0F0B0FA80F1286842037F
:1011500043D090FAA0F0B0FA80F0814204D100228E
:101160000221206803F05FFC0321206803F011FCDA
:10117000400320684FF0030132D003F00AFC90FADC
:10118000A0F0B0FA80F1286842032ED090FAA0F0C7
:10119000B0FA80F0814204D100220321206803F0DC
:1011A00042FC206803F009FC10B3AAE000E004E070
:1011B00003F0EFFBC0F384618EE7C0F3846092E735
:1011C00003F0E7FBC0F38461A3E7C0F38460A7E703
:1011D00003F0DFFBC0F38461B8E7C0F38460BCE7D1
:1011E00003F0D7FBC0F38461CDE7C0F38460D1E79F
:1011F00021682A7B286851F8B03FC0F3120C23EA1B
:101200000C0302F0180C734A22FA0CF2024013434A
:101210000B60E968414574D1286841031AD090FAFF
:10122000A0F1B1FA81F1491C01F01F0109294FEA2F
:10123000403130D8002910D090FAA0F1B1FA81F1F4
:1012400001F1010101F01F0106FA01F608D1C0F316
:10125000846109E0C0F38461E5E7C0F38461EFE7EE
:1012600090FAA0F1B1FA81F101F1010101F01F0141
:1012700046EA816102D1C0F3846003E090FAA0F0F5
:10128000B0FA80F000F1010000F01F0000EB400018
:1012900041EA005131E000290DD090FAA0F1B1FAF5
:1012A00081F101F1010101F01F0106FA01F605D1FA
:1012B000C0F3846106E0C0F38461F2E790FAA0F124
:1012C000B1FA81F101F1010101F01F0146EA8161EA
:1012D00002D1C0F3846003E090FAA0F0B0FA80F08D
:1012E00000F1010000F01F003B4A00EB400002EB60
:1012F000005041EA000141F00071AA68206803F043
:1013000074FB36482A6802423FF469AE20684FF009
:10131000A04C334D334B344E604501D0A84201D12F
:10132000194600E031468968DFF8C08001F0E071BD
:10133000424503D0DFF8B880424521D15FEA012859
:101340001ED4604506D02B4A90427FF448AEA84296
:1013500000D0334641F40000996821F0E071014368
:101360009960254825490068B0FBF1F0401C00EB6E
:101370004000800000E0401E00900028FBD12EE6D7
:10138000DFF87C8042450DD15FEAC1180AD4A8423B
:10139000F5D01C4A9042F2D0604500D0334641F06F
:1013A00080700CE0DFF860804245E8D14A02E6D464
:1013B000A842E4D0604500D0334641F480009968EB
:1013C00021F0E0710143996009E6000000007F40D0
:1013D00000F0FF03FFFF0700000020FE0000088070
:1013E000000100500003005000070050000021C31E
:1013F0001000C0900006005020000020400D0300A7
:10140000000052C700050050000084CB70477047B1
:101410002DE9F84F04460068066845684FF0A0487B
:10142000DFF89092404501D0484501D1A24800E044
:10143000A248806800F01F07B0070ED5A8070CD59A
:10144000E06DC00603D4E06D40F40060E065204626
:10145000FFF75AF9216802200860DFF864B2DFF86C
:1014600064A2700701D5680703D430073FD5280769
:101470003DD5E06DC00603D4E06D40F40070E0653A
:10148000206803F0AAFA60B32068484501D14146BC
:1014900004E0584501D1514600E00146814208D0A0
:1014A0003FB1052F05D0092F03D0484503D1414650
:1014B00006E0C16805E0584501D1514600E001460B
:1014C000C96889040DD4016809070AD503F07DFABB
:1014D00058B3E06D40F01000E065206E40F0010070
:1014E00020662046FFF792FF21680C200860B006B6
:1014F00001D5A80603D470065FD568065DD5E06DFA
:10150000C00603D4E06D40F40050E0652068C16C73
:1015100011F4C07F1AD00021009103F05EFA024658
:101520002068484514D1414617E02068416821F001
:101530000C014160E06D20F48070E065E06DC00456
:10154000CFD4E06D40F00100E065CAE70121E3E798
:10155000584501D1514600E00146814208D03FB1D3
:10156000062F05D0072F03D0484503D1414606E09A
:10157000C16805E0584501D1514600E00146C968FF
:10158000009BA3B18B0102D58AB18A040FD40268F3
:1015900052060CD589020AD403F007FAF0B3E06DC5
:1015A00040F01000E065206E40F00100206620460B
:1015B000FFF756FB21686020086030060BD528062F
:1015C00009D5E06D40F48030E065204600F096F9E2
:1015D000216880200860F0050CD5E8050AD5E06D8B
:1015E00040F40030E0652046FFF736FC21684FF4F8
:1015F00080700860B0050CD5A8050AD5E06D40F4F0
:101600008020E0652046FFF728FC21684FF4007039
:101610000860F00631D5E8062FD500E009E0E06B60
:10162000E8B12068EFB3404501D0484512D12248C7
:1016300011E02068416821F060014160E06D20F414
:101640008050E065E06DC005B1D4E06D40F0010070
:10165000E065ACE71948806800F4604050B1E06D87
:1016600040F48060E065206E40F002002066204675
:10167000FFF7CDFE216810200860700517D56805BA
:1016800015D5E06D40F48040E065206E40F0080024
:10169000206621684FF4806008602046BDE8F84F5E
:1016A00000E001E0FFF72ABBC068C007D6E7BDE84D
:1016B000F88F0000000100500003005000070050A8
:1016C0000005005000040050F8B54FF0000504007C
:1016D0002E46009502D0E06D10B107E00120F8BD64
:1016E000204600F00DF9266684F85860206881686D
:1016F000C1F3407119B18168744A1140816020685A
:101700008168C1F3007189B98168714A114041F063
:10171000805181606F4870490068B0FBF1F0400073
:10172000801C00E0401E00900028FBD120688168EA
:10173000C1F3007141B9E16D41F01001E165216E25
:1017400041F001012166012503F03FF9E16DC90671
:1017500000D430B1E06D40F01000E065012528466E
:10176000F8BDE06D20F4807040F00200E065206874
:1017700003F023F940BB20684FF0A043574A98423A
:1017800001D0904204D199689668C1F300010AE043
:1017900053498968534EC1F30001B668C6F3000689
:1017A0003143514EB668C6F3000631430CD198421E
:1017B00001D0904201D14D4800E04D4861688268F7
:1017C00022F47C120A438260E168E06B627F084386
:1017D000A16841EA4231084394F8241040EA0140EC
:1017E000012904D1218D434A02EB41410843E16ABA
:1017F00029B101F47871226B014342EA01002168AA
:10180000CA683D4B1A400243CA6020680169626B96
:1018100021F0406111430161206803F0C6F870BBFC
:10182000207F94F83810800340EA41012068C268A4
:1018300044F202039A430A43C260206900282068E8
:1018400001690AD041F480310161206850F8C01F5D
:1018500022696FF30D01114307E021F4803101612A
:10186000206850F8C01F6FF30D01016094F840002C
:10187000012813D02068016921F00101016160692C
:1018800001282068016B19D021F00F010163E06D80
:1018900020F0020040F00100E06560E7D4E911208B
:1018A0000243D4E91301084302432068016940F26E
:1018B000FC7399430A4342F00101DFE721F00F0274
:1018C000216A491E0A430263E1E70000C0FFFF5F8F
:1018D000C0FFFF7F20000020400D030000010050EA
:1018E00000040050000500500006005000030050A6
:1018F000000700500000FEFF0740F0FF70470000A7
:101900002DE9F0419CB00446142115A8FEF7C7FC50
:1019100054216846FEF7C3FC4FF4004220680026BD
:101920009103614D0327614C4FF09048B0F1A04FF7
:1019300010D05F4B984276D168460092119101F029
:101940006FF908B1FEF75AFE2868401C286001288C
:1019500035D03CE068460092119101F061F908B180
:10196000FEF74CFE2868401C2860012807D1E06C77
:1019700040F40050E064E06C00F400501A90E06C19
:1019800040F00100E064E06C00F001001A90E06CAF
:1019900040F00200E064E06C179600F002001A903C
:1019A0000420CDE9150715A9404600F08DFD41F250
:1019B00002001796CDE9150715A93E4825E0E06C11
:1019C00040F40050E064E06C00F400501A90E06CC9
:1019D00040F00400E064E06C00F004001A90E06C59
:1019E00040F00100E064E06C179600F001001A90EE
:1019F0001820CDE9150715A92F4800F065FD012035
:101A00001796CDE9150715A9404600F05DFD0022A7
:101A10001146122000F092FF122000F081FF1CB04E
:101A2000BDE8F081FFE7254B9A01D10398421BD115
:101A300068460092129101F0F3F808B1FEF7DEFD5E
:101A40006868401C6860012807D1E06C40F4804061
:101A5000E064E06C00F480401A90002211462F20D0
:101A600000F06CFF2F20D8E7154B9842D7D168467D
:101A70000092129101F0D4F808B1FEF7BFFD68683A
:101A8000401C6860012807D1E06C40F48040E064AD
:101A9000E06C00F480401A90002211463E2000F0D5
:101AA0004DFF3E20B9E700000C000020001002406E
:101AB00000010050000400480008004800040050E5
:101AC0000006005010B5002140B190F825200123F8
:101AD000022A05D00421C163012124E0012010BDA8
:101AE0000268146824F0010414600268146824F089
:101AF0000E041460826C146824F48074146090F8EE
:101B00004420046C02F01F0203FA02F26260D0E982
:101B100013245460426D32B1146824F4807414604C
:101B2000D0E91624546080F82530002280F8242063
:101B3000084610BD70B590F82510002401222346F8
:101B4000022907D00421C16380F8252080F82430C1
:101B5000012429E001680D6825F001050D60016888
:101B60000D6825F00E050D60816C0D6825F48075FB
:101B70000D6090F84410154601F01F018A40016C79
:101B80004A60D0E913124A60416D31B10A6822F40B
:101B900080720A60D0E916124A6080F8255080F8F9
:101BA0002430816B01B18847204670BDF0B4016CD0
:101BB0000B6801680A6890F84440042504F01F048B
:101BC00005FA04F61E4211D056070FD50A68920690
:101BD00003D40A6822F004020A6090F8441001F06D
:101BE0001F018D40016C4D60016B1DE0022606FA5D
:101BF00004F71F424FF0000C4FF0010518D0970773
:101C000016D50A68920605D40A6822F00A020A600C
:101C100080F8255090F8441001F01F018E40016CAF
:101C20004E6080F824C0C16A00291AD0F0BC084771
:101C30000826A6401E4214D0120712D50A6822F0C8
:101C40000E020A6090F84410026C01F01F0105FAC0
:101C500001F15160C56380F8255080F824C0416BC4
:101C6000E2E7F0BC7047000070B504000CD02C4ACD
:101C700020681421904209D22A4A0244B2FBF1F1B1
:101C80008900616428490AE0012070BD244A52425B
:101C90000244B2FBF1F189006164214908392164F1
:101CA000022184F82510016847F6F0729143D4E9C7
:101CB00002231A43D4E904352B431A43A3691A4378
:101CC000E3691A43236A1A430A4302602046FEF777
:101CD0003DFCA0680025B0F5804F00D165602079FB
:101CE000A16C00F07F000860D4E9130141606068D6
:101CF000401E032808D82046FEF74CFC606D0560A6
:101D0000D4E91601416002E06565A565E565E56316
:101D1000012084F8250084F82450002070BD0000C4
:101D200008040240F8FFFDBF0000024070B5044601
:101D300090F82400002501280CD0012084F824000C
:101D400094F825600020012E06D084F82400022596
:101D5000284670BD022070BD022684F82560E0632D
:101D60002068066826F0010606602046FEF726FC7D
:101D7000206B00282068016802D041F00E0106E0C7
:101D800021F0040101602068016841F00A0101604E
:101D9000A06C0168C90303D5016841F4807101603A
:101DA000606D18B1016841F48071016020680168BC
:101DB00041F001010160CBE770B5044600F066FC1C
:101DC0000546601C02D004484068044400F05EFCF4
:101DD000401BA042FAD370BD1400002030B590F82B
:101DE0005C30012B07D0022B05D0016E41F00201BF
:101DF0000166012030BD0468A36D4D0701D0DD07E9
:101E00001DD011F0380F01D09D0718D511F4E07FD7
:101E100001D05D0713D511F4F05F01D01D070ED579
:101E200011F4604F01D0DD0609D511F4403F01D017
:101E30009D0604D511F47C0F05D05D0603D4E56D35
:101E400045F00105E5654C0701D0DC071DD111F017
:101E5000380F01D09C0718D411F4E07F01D05C0743
:101E600013D411F4F05F01D01C070ED411F4604FAD
:101E700001D0DC0609D411F4403F01D09C0604D403
:101E800011F47C0F06D05B0604D50368DC6D44F0CA
:101E90000204DC650B0604D5036853F8DC4F1443D9
:101EA0001C60CB0504D5036853F8E04F14431C6055
:101EB0000068426D0A434265002030BD10B590F8BD
:101EC0005C20012A07D0022A05D0016E41F00201F0
:101ED0000166012010BD0A687AB10B7B0A690C7A91
:101EE00042EA43734A69406C496842EA847200EBF3
:101EF000C100C0E90032002010BD0B7A4A690C8A8B
:101F000042EA83720B7B006CDB06496843EA0443B8
:101F10001A4340F82120EEE730B590F85C50039C5E
:101F2000012D05D0016E41F004010166012030BD94
:101F30000901006841EA820141EA430150F8802F1B
:101F4000214322F03F0211430160002030BD704761
:101F500070470000F0B590F85C40022C03D0016E91
:101F600041F0080162E00468402947D0D4F8985055
:101F70002D0758D0D4F89850D4F89860C5F30125AF
:101F8000F60106D5D4F88040E40502D56D1C05F0B5
:101F90000305C46C05EBC50604EBC606346814F0F3
:101FA00080445460346844D024F060441460346841
:101FB0002C4F04F00054946010CE04F000441461DF
:101FC00036F8044BA4B2D46156F8044CC4F303446D
:101FD000D46056F8044C04F48014546156F8044C50
:101FE00004F40014946156F8044CC4F306641462BB
:101FF00056F8044CE40F5462002422E0D4F89050C8
:102000002D0710D0D4F89050D4F89060C5F3012576
:10201000F60106D5D4F88040A40502D56D1C05F064
:102020000305846CB6E7016E41F4807101660120FE
:10203000F0BDC4F38A44B9E716F804C003F804C03D
:10204000641CD2F80CC017F80CC0A445F4D8006882
:10205000402903D0C0F89C500020F0BDC0F8945037
:10206000FAE700007064000870472DE9F05F04464D
:102070000068016D426D01F4E05102EA0108016D52
:10208000426D01F0070102EA0109016D426D01F0A4
:10209000380102EA010A016D476D01F471010F4038
:1020A000016D426D01F46021456D02EA010B016D85
:1020B000CE43710607D4E943490604D440210165A3
:1020C0002046FFF7D1FFF0050ED4E843C0050BD43E
:1020D0002068D0F8D820D0F8E01011404FF480727A
:1020E0000265204600F0EBF9B8F1000005D0216848
:1020F00008654146204600F0E4F9B9F1000005D03A
:10210000216808654946204600F0B6F9BAF100009A
:1021100005D0216808655146204600F0B7F9B005A2
:1021200009D4E843800506D421684FF4007008659F
:10213000204600F0C7F930060DD4E84300060AD463
:102140002068D0F8D420D0F8DC101140802202653D
:10215000204600F0B5F9B00409D4E843800406D461
:1021600021684FF400500865204600F0A7F93004BC
:1021700009D4E843000406D421684FF40040086500
:10218000204600F09AF970040AD4E843400407D4CA
:1021900021684FF480400865206E40F08000206682
:1021A000BBF1000005D02168086559462046FFF7BD
:1021B000CFFE27B120680765206E38432066206E69
:1021C000002802D02046FFF7C2FEBDE8F09F0000C5
:1021D0002DE9F041040006D0DFF8F48194F85C00AA
:1021E000002518B107E00120BDE8F08184F85D50BA
:1021F000204600F0F9F82068816921F01001816122
:1022000000F044FA0646032704E000F03FFA801B82
:102210000A2811D8206880690007F6D420688169EF
:1022200041F00101816100F031FA06460BE000F057
:102230002DFA801B0A2806D9206E40F00100206686
:1022400084F85C70CFE720688069C007EFD0206811
:10225000816941F0020181612168414502D15D49F6
:1022600060680860207C01282068816937D041F0CF
:1022700040018161607C01282068816932D021F4AD
:1022800080418161A07C0128206881692DD041F4C2
:102290008051816120688169A26821F440711143F5
:1022A00081612068816921F0A40181612068016950
:1022B00021F010010161E068012819D010B3022853
:1022C0001BD02068816941F080018161206801692B
:1022D00041F010010161E06803280ED012E021F006
:1022E0004001C6E741F48041CBE721F48051D0E7BB
:1022F0002068816941F0040103E02068816941F0B0
:1023000020018161207EE16940066FF0FF0202EB4F
:102310000121A0F100700843216AA38A491E0843E5
:10232000110201EB034318432368D861A068B0F59C
:10233000407F10D1D4E90A0302EB0322401E104370
:10234000226B0B1303EB02121043A28C01EB024130
:1023500008432168C860206850F8C01FE26B114331
:1023600001601E4A21681C48914200D11C481D4A48
:10237000914201D100F5D460206451F8802FA38EE2
:1023800022F4F81242EA03420A6000F1700161642B
:10239000216851F8802F94F8383022F0706242EAB8
:1023A00003620A6000F1B001A164D831E164D83160
:1023B000216518316165D83100E020C08842FCD326
:1023C000A5652566012084F85C0000200CE700006C
:1023D000006400400065004000A400400068004028
:1023E00050A70040006C004010B59CB0044614217A
:1023F00015A8FDF754FF54216846FDF750FF1C490E
:102400002068884231D18014009040030E906846C5
:1024100000F006FC08B1FEF7F1F81648816D41F0B6
:1024200000718165816D01F000711A91C16C41F0FC
:102430000101C164C06C15A900F001001A904FF4AD
:10244000C05015900220169000201790032018907D
:1024500009201990C00600F037F800221146152017
:1024600000F06CFA152000F05BFA1CB010BD000003
:102470000064004000100240024B034A4021FFF775
:1024800069BD000024000020FC060020704790F881
:102490005C10012905D0016E41F0040101660120A4
:1024A0007047022180F85C1001688A6922F00102FD
:1024B0008A6100210166084670477047704770477F
:1024C00070477047704700002DE9F84FDFF8909192
:1024D0000022A9F1040B03274FF00F0C09F1040AA5
:1024E000ABF1040EB4E0012595402B406FD00C7980
:1024F00004F00304012C01D0022C15D1866854008D
:1025000007FA04F826EA0806D1F80C8008FA04F85D
:1025100048EA0608C0F808804468AC430D79C5F362
:1025200000159540254345600C79E443A40702D18A
:102530008C68012C08D0C568540007FA04F6B5432E
:102540008E68A6402E43C6600C7904F00304022C6A
:1025500011D1D40800EB8406356A5407E40E0CFA56
:1025600004F825EA0805D1F8108008FA04F848EACA
:102570000508C6F820800568540007FA04F6B5433C
:102580000E7906F00306A6402E4306604C6814F44C
:10259000403F5CD0334C256E45F001052566246E26
:1025A00022F0030504F0010400942F4C05EB04080D
:1025B000D8F808509407260F0CFA06F4A543B0F19A
:1025C000904F05D0294CA04204D1012417E03EE0F1
:1025D000002414E0264CA04201D102240FE0254C37
:1025E000A04201D103240AE0234CA04201D10424DB
:1025F00005E0224CA04201D1052400E00624B440AD
:102600002C43C8F80840D9F800404D464E689C431A
:10261000F60200D51C432C60DAF8004055464E689F
:102620009C43B60200D51C432C60DBF800405D469D
:102630004E689C43B60300D51C432C60DEF8004076
:1026400075464E689C43F60300D51C432C60521C13
:102650000B6833FA02F47FF446AFBDE8F88F000050
:10266000080401400010024000000140000400483E
:1026700000080048000C0048001000480014004802
:102680000AB181617047816270470000014880682B
:10269000704700001400002090F84120202A24D127
:1026A00090F84020012A20D0012280F840202422E6
:1026B00080F841200268136823F001031360026868
:1026C000136823F480531360026813680B4313608C
:1026D00001680A6842F001020A60202180F8411076
:1026E000002180F84010084670470220704790F89B
:1026F0004120202A22D190F84020012A1ED0012218
:1027000080F84020242280F841200268136823F0DA
:10271000010313600268136823F4706343EA012124
:10272000116001680A6842F001020A60202180F805
:102730004110002180F84010084670470220704781
:1027400070B5040004D094F84100002510B106E0F3
:10275000012070BD84F84050204600F04FF824203E
:1027600084F841002068016821F00101016060687F
:10277000216820F0706008612068816821F40041C0
:102780008160E0680128A06830D040F404402168EE
:102790008860E0680228206841682AD021F400613E
:1027A000416020684168144A114341602068C16853
:1027B00021F40041C160D4E904010843A16940EA61
:1027C00001202168C860D4E9070108432168086036
:1027D0002068016841F0010101606564202084F8EF
:1027E0004100256384F84250002070BD40F4004051
:1027F000CDE741F40061D3E70080000230B59BB023
:102800000446142115A8FDF74AFD54216846FDF73A
:1028100046FD17492068884227D1402000250090B6
:102820000795684600F0FCF908B1FDF7E7FE114C8A
:10283000E06C40F00200E064E06C15A900F00200DA
:102840001A904FF4407015901220CDE9160504201F
:10285000CDE918500848FFF737FEA06D40F400108E
:10286000A065A06D00F400101A901BB030BD0000F0
:1028700000540040001002400004004802488168F3
:1028800042681144816070471400002010B5002494
:10289000032000F073F80F2000F008F808B10124BD
:1028A00001E000F025F8204610BD000070B50E4E86
:1028B00005460024706898B14FF47A71B1FBF0F0CE
:1028C0000A490968B1FBF0F001F062F840B9102D37
:1028D00006D200222946501E00F030F8356000E094
:1028E0000124204670BD00001400002020000020BC
:1028F0000A4882B0016E41F001010166016E01F0EB
:1029000001010091816D41F080518165806D00F081
:102910008050009002B000F07BB90000001002402F
:10292000002809DB00F01F020121914040098000CE
:1029300000F1E020C0F8001170470000F0B40E4B29
:102940001B68C3F30223C3F10704042C00D9042439
:102950001D1D072D01D2002300E0DB1E012606FA13
:1029600004F56D1E0D409D409E40761E164045EAC2
:102970000601F0BC03F05CBC0CED00E0064A00F080
:10298000070110684FF6FF03184040EA0120034991
:1029900008431060704700000CED00E00000FA05ED
:1029A000F8B504004FF0000514D094F83A0005285B
:1029B00010D094F83A0002280CD03448016E41F04F
:1029C00001010166006E00F00100009094F83A00E9
:1029D00010B104E00120F8BD002084F83900204641
:1029E00000F058F8A0682A4A4FF48071402836D089
:1029F000602834D020680368E66A23F0100333436C
:102A00000360D4E901031843D4E903363343184380
:102A1000237D012B00D000210843616A0843A16A8D
:102A20000843218E40EAC14094F8341040EA016125
:102A300020680368134019430160206881690029F8
:102A400009DBD4E906121143226A836923F03F03AC
:102A50001A431143816194F83A0090B114E0206860
:102A60000368E66A23F0100333430360D4E90103EB
:102A70001843267D2369012E00D000210B43184303
:102A8000CBE7012084F83A002846F8BD0010024048
:102A9000113E00E030B587B0044614216846FDF7CA
:102AA000FEFB1E48216800231D4A032481420FD1EA
:102AB000D06C40F00100D064D06C694600F0010099
:102AC00005900A20CDE9000402934FF090400EE0FB
:102AD000124D14480835A9420DD1D16C41F00201C4
:102AE000D164D16C01F002010591052111E0FFF7DD
:102AF000EBFC07B030BD094D0C35A942F9D1D16CC2
:102B000041F00201D164D16C01F0020105914FF452
:102B10004061CDE9001402936946E8E700030140F3
:102B20000010024000040048002138B190F83A201B
:102B3000052A03D090F83A20012A02D00121084644
:102B400070470268136843F001031360042280F8A1
:102B50003A20F4E72B492C4B0A6832214A432B498F
:102B600040B1B0F5007F086829D020F4C06040F47F
:102B700080602CE00868C0F34120022804D051F89E
:102B8000800F20F4807022E0D1F8800020F4807063
:102B9000C1F88000086820F4C06040F4007008604C
:102BA000B2FBF3F0401C00E0401E4A69520501D51B
:102BB0000028F9D1486940050AD503207047C0F3C1
:102BC0004120022806D051F8800F40F48070086040
:102BD00000207047D1F8800040F48070C1F8800078
:102BE000086820F4C06040F400700860B2FBF3F0A5
:102BF000401C00E0401E4A695205DBD50028F9D18F
:102C0000D8E700002000002040420F000070004084
:102C10000248816841F48041816070470070004043
:102C20002DE9F84F044600260068C14D37460003E1
:102C30005DD5A86D4FF00009C00009D4A86D40F023
:102C40008050A865A86D4FF0010900F080500090F9
:102C5000DFF8E0A2DAF8001041F48071CAF8001041
:102C6000FFF714FD804607E0FFF710FDA0EB08001A
:102C7000022801D9032632E0DAF80000C005F3D5B6
:102C80006EBBD5F8900010F4407014D0216D8142D5
:102C900011D0D5F89000D5F8901020F4407041F490
:102CA0008031C5F89010D5F8901021F48031C5F826
:102CB0009010C5F89000C0077ED0FFF7E7FC804673
:102CC00041F2883A05E0FFF7E1FCA0EB080151452D
:102CD000D0D8D5F890008007F5D5002E6CD03746B7
:102CE000B9F1000F03D0A86D20F08050A8652078BE
:102CF000C00707D0D5F88800616820F003000843BA
:102D0000C5F888002078800707D5D5F88800A16825
:102D100020F00C000843C5F888002078400707D54C
:102D2000D5F88800E16820F030000843C5F8880035
:102D30002078000707D5D5F88800216920F0C00069
:102D40000843C5F888002078C00607D5D5F8880064
:102D5000616920F440700843C5F888002078800637
:102D600007D5D5F88800A16920F440600843C5F86C
:102D700088002078400607D5D5F88800E16920F45E
:102D800040500843C5F888002078000607D5D5F8DC
:102D90008800216A20F440400843C5F88800208854
:102DA000C00507D5D5F88800616A20F44030084393
:102DB000C5F88800206800E024E0800307D5D5F836
:102DC0009C00A16A20F003000843C5F89C002088FD
:102DD000800507D5D5F88800E16A20F44020084333
:102DE000C5F888002088400519D5D5F88800216BE2
:102DF00020F440100843C5F88800206BB0F5801F10
:102E000009D00CE0D5F89000216D20F44070084303
:102E1000C5F8900064E7E86840F48010E860208816
:102E200000050FD5D5F88800616B20F440000843F9
:102E3000C5F88800606BB0F5800F03D1E86840F4F6
:102E40008010E8602088C0040FD5D5F88800A16BF9
:102E500020F040700843C5F88800A06BB0F1807F77
:102E600003D1E86840F48010E860208881044FF0C6
:102E700000600ED5D5F88810E26B21F04061114357
:102E8000C5F88810E16B814203D1E96841F48011F3
:102E9000E960218849040ED5D5F88810226C21F00C
:102EA00040611143C5F88810216C814203D1E86864
:102EB00040F48010E860208800040FD5D5F8880021
:102EC000616C20F040500843C5F88800606CB0F198
:102ED000805F03D1E86840F48030E8602068C00378
:102EE0000FD5D5F88800A16C20F040400843C5F804
:102EF0008800A06CB0F1804F03D1E86840F48030C6
:102F0000E860206840030FD5D5F89C00E16C20F400
:102F100040100843C5F89C00E06CB0F5001F03D1D9
:102F2000E86840F48010E8603846BDE8F88F00009B
:102F300000100240007000402DE9F0470D460400EB
:102F40004FF0000725D0DFF8A091D9F8000000F07D
:102F50000F00A8420CD2D9F8001021F00F0129432C
:102F6000C9F80010D9F8000000F00F00A84210D1F5
:102F700021685E4EC80741F2883A52D06068DFF897
:102F80007081032808D00228306826D04005002828
:102F900025DB0120BDE8F08730688001F9D5F068B5
:102FA000F068544BC0F30310401CB3FBF0F0F26820
:102FB000C2F306225043F268C2F34162521C52002F
:102FC000B0FBF2F0404515D9B06810F0F00F0AD010
:102FD00088070FD5A06830B10CE08003D7E700F078
:102FE000B5F8404506D9B06820F0F00040F0800008
:102FF000B0608027B068616820F003000843B060CB
:10300000FFF744FB804605E0FFF740FBA0EB08011B
:1030100051453BD8B068616800F00C00B0EB810FFF
:10302000F2D12068810714D5400703D5B06840F479
:10303000E060B0602078000705D5B06820F46050EB
:1030400040F4E060B060B068A16820F0F000084390
:1030500004E0802F03D1B06820F0F000B060D9F810
:103060000010484601F00F01A94217D90168C8466F
:1030700021F00F0129430160FFF708FB0746D14605
:1030800006E0FFF703FBC11B494501D9032081E797
:10309000D8F8000000F00F00A842F2D120784007D5
:1030A00005D5B068E16820F4E0600843B06020789E
:1030B000000706D5B068216920F4605040EAC100DD
:1030C000B06000F043F8B1680B4AC1F30311515CE2
:1030D00001F01F01C8400949086009480068BDE8BF
:1030E000F047FFF7E3BB0000002002400010024061
:1030F00000B4C4040024F400A864000820000020E8
:10310000140000200548064900688968054AC1F393
:103110000221515C01F01F01C840704720000020CF
:1031200000100240B8640008054806490068896834
:10313000054AC1F3C221515C01F01F01C84070472C
:103140002000002000100240B8640008134A906874
:10315000C0F38101124801290AD09168C1F38101AD
:10316000022905D09168C1F38101032901D0002013
:103170007047D16801F00303D168C1F30311491C02
:10318000B0FBF1F0D168C1F306214843D168C1F327
:103190004161491C4900B0FBF1F07047001002404A
:1031A0000024F4002DE9F843040078D02078F54D90
:1031B000C00745D0A868E96800F00C0001F00301E1
:1031C0000C2802D0082817D001E0032914D0606829
:1031D000B0F5803F17D0B0F5A02F286817D020F4A5
:1031E00080302860286820F4802028606068D8B18A
:1031F000FFF74CFA064613E02868800320D5606884
:103200000028D2D01CE0286840F48030EDE740F47C
:1032100080202860F7E7FFF739FA801B64286ED812
:1032200028688003F7D50BE0FFF730FA064604E084
:10323000FFF72CFA801B6428F1D828688003F7D4A4
:10324000207880074BD5A868E96800F00C0001F0F1
:1032500003010C2802D004280DD001E002290AD075
:10326000E068002828682BD040F480702860FFF7C1
:103270000DFA064619E02868400502D5E0680028E6
:1032800093D06868217C20F0FE4040EA01606860CD
:10329000BD480068FFF70AFB002800D11FE06DE180
:1032A000FFF7F4F9801B0228B9D828684005F7D544
:1032B0006868217C20F0FE4040EA016068600EE012
:1032C00020F480702860FFF7E1F9064604E0FFF77C
:1032D000DDF9801B0228A2D828684005F7D42078A1
:1032E000000728D560690028D5F8940012D040F076
:1032F0000100C5F89400FFF7C9F9064605E08FE024
:10330000FFF7C4F9801B022889D8D5F894008007FC
:10331000F6D510E020F00100C5F89400FFF7B6F9EB
:10332000064604E0FFF7B2F9801B022878D8D5F8EA
:1033300094008007F6D42078400761D5A86D002757
:10334000C00008D4A86D40F08050A865A86D012782
:1033500000F0805000908D480168C90511D40168C3
:10336000804641F480710160FFF790F9064604E061
:10337000FFF78CF9801B022852D8D8F80000C0054E
:10338000F6D5A068012815D00528D5F8900016D0EC
:1033900020F00100C5F89000D5F8900020F004005E
:1033A000C5F89000A06841F28838B8B1FFF76EF90F
:1033B00006460EE0D5F8900040F00100F0E740F03E
:1033C0000400C5F89000F5E7FFF760F9811B41455F
:1033D00026D8D5F890008007F6D50CE0FFF756F90F
:1033E000064604E0FFF752F9811B414518D8D5F88D
:1033F00090008007F6D41FB1A86D20F08050A8651A
:103400002078800628D5A0690028D5F8980012D029
:1034100040F00100C5F89800FFF738F9064605E0CE
:1034200072E0FFF733F9801B02286DD8D5F89800B9
:103430008007F6D510E020F00100C5F89800FFF7EE
:1034400025F9064604E0FFF721F9801B02285BD826
:10345000D5F898008007F6D4E069E8B3A968C1F30D
:10346000810103295BD00228286820F08070286041
:1034700003D0FFF70BF9044649E0FFF707F90646CA
:1034800004E0FFF703F9801B02283DD8286880017B
:10349000F7D4F4E908016FF00F0202EB01110843C1
:1034A000218A5204490802EB4151A26841EA0221F3
:1034B0000843217D4FF07E42490802EB41610843F9
:1034C000217B40EAC160E968314A11400843E86065
:1034D000286840F0807000E052E02860E86840F022
:1034E0008070E860FFF7D2F8044604E0FFF7CEF8FA
:1034F000001B022808D828688001F7D540E0FFF7B4
:10350000C5F8001B022802D90320BDE8F88328680B
:103510008001F4D4E8681F490840E86030E00128E1
:10352000F3D0E868226A00F00301914226D1616A73
:1035300000F0F0020901103991421FD1A26A00F493
:10354000FE41B1EB022F19D194F82C2000F0784104
:10355000B1EBC26F12D1218E00F4C00249084905B7
:10356000A1F50011914209D194F8341000F0C06027
:1035700049084906A1F10071814201D00120C4E748
:103580000020C2E70010024014000020007000403C
:103590000C809F01FCFFEEFE70B5040009D0606A4C
:1035A000002540B125616561A56294F85D0040B1D8
:1035B0000CE0012070BD6068B0F5827FF4D0E56159
:1035C000F2E784F85C50204600F05CF8022084F8B2
:1035D0005D002068016821F040010160E0684FF45F
:1035E000E062904201D9002101E04FF48051B0F532
:1035F000706F02D0904200D0A562A088228900F4AA
:10360000827002F404421043227C02F00202104352
:10361000227D02F001021043228B02F4007210435B
:10362000227F02F03802104394F8202002F080023A
:103630001043228D02F40052104322681060A069EA
:10364000042202EA104094F8242001F4805102F090
:103650001002104394F8342002F008021043A289AB
:1036600002F4706210430843216848602068C16911
:1036700021F40061C1612566012084F85D0000200D
:1036800070BD000010B586B0044614216846FCF7F2
:1036900006FE2168204C002220480223A1421BD1B3
:1036A000016E41F480510166016E01F48051059173
:1036B000C16C41F00101C164C06C694600F00100B9
:1036C0000590E020CDE900030320CDE9022005208C
:1036D00004904FF090401BE0114CA1421AD1816D33
:1036E00041F400418165816D01F400410591C16C97
:1036F00041F00201C164C06C694600F0020005900F
:1037000038200090CDE901320620CDE9032005489C
:10371000FEF7DAFE06B010BD003001400010024096
:10372000003C0040000400482DE9FF5F1F4693461F
:10373000044601250E9EFEF7A9FF804694F85D0021
:103740006168012806D0B1F5827F39D1A168B1BB8B
:10375000042835D1019800287DD0BBF1000FFBD0A3
:10376000002FF9D094F85C00012829D04FF0010A0D
:1037700084F85CA094F85D00042802D0052084F849
:103780005D004FF00009C4F86090C4F840B0A4F8A0
:103790004670A4F844700199A163E787A787C4F82D
:1037A0004C90C4F85090E0684FF4E061884201D832
:1037B000012F09D92068426822F4805208E0FFE70F
:1037C000022004B0BDE8F09F2068426842F48052B5
:1037D000426020680268520603D4026842F0400248
:1037E0000260E0688842606844D908B1012F39D18D
:1037F000A06B21680088C860A06B801CA063E08F6C
:10380000401EE0872EE02068816889070DD5E18F92
:1038100059B1012D09D1A16B0988C160A06B801C31
:10382000A063E08F401EE087002520688168C907FB
:103830000ED0B4F8461059B1C068216C0880206CD5
:10384000801C2064B4F84600401EA4F84600012500
:10385000FEF71CFF00E099E0A0EB0800B04201D3A6
:10386000701C72D1E08F0028CDD1B4F8460000283A
:10387000C9D173E008B1012F69D1E08F0128A06B95
:1038800008D921680088C860A06B801CA063E08F05
:10389000801E07E0216800780873A06B401CA063BD
:1038A000E08F401EE08752E020688168890718D5C4
:1038B000E18FB1B1012D14D1E18F0129A16B07D99D
:1038C0000988C160A06B801CA063E08F801E06E0A9
:1038D00009780173A06B401CA063E08F401EE08755
:1038E000002520688168C90727D0B4F8461021B3A5
:1038F000B4F84610012914D9C068216C0880206CE6
:10390000801C2064B4F84600801EA4F84600B4F879
:103910004600012810D82068416841F48051416078
:103920000AE0007B216C0870206C401C2064B4F815
:103930004600401EA4F846000125FEF7A7FEA0EBB6
:103940000800B04202D3701C01D012E08EB1E08FAB
:103950000028A9D1B4F846000028A5D14246314636
:10396000204601F045FD50B12020206684F85C908F
:103970000CE084F85DA084F85C90032021E784F8D3
:103980005DA084F85C90206E0028F7D0012018E735
:1039900010B5401EB0F1807F01D3012010BD4FF063
:1039A000E02460610F21601702F042FC0020A0615A
:1039B00007202061002010BD70477047704700004D
:1039C00030B590F83C20012A45D0012280F83C20F7
:1039D000CA688B6822F440721A434B6822F48062F2
:1039E0001A430B6822F400621A430B6922F48052D6
:1039F0001A434B6922F400521A430B6B22F48042A3
:103A00001A430B8B22F4702242EA0342CB6922F064
:103A100080521A43114D03680024AB4205D0104D6B
:103A2000AB4202D00F4DAB4210D10D8D22F470028B
:103A300042EA05520D6A22F080722A434D6A22F052
:103A400000722A43C96A22F000520A435A6480F87D
:103A50003C40002030BD022030BD0000002C014061
:103A6000003401400050014070477047704700002B
:103A7000F0B590F83C20012A43D0012580F83C5055
:103A8000022280F83D2003685A689C681E4E1F4F32
:103A9000DFF87CC0B34203D0BB4201D0634504D100
:103AA00022F4700E4A6842EA0E02DFF868E002EA89
:103AB0000E02D1F800E04EEA020EC3F804E00268FC
:103AC000B24212D0B2F1804F0FD0134B9A420CD0B9
:103AD000124B9A4209D0124B9A4206D0BA4204D0F5
:103AE000104B9A4201D0624504D1896824F08003CA
:103AF0001943916080F83D50002180F83C10084641
:103B0000F0BD0220F0BD0000002C01400034014057
:103B1000005001408FFFFFFD0004004000080040FE
:103B2000000C004000400140704710B5040003D075
:103B300094F83D0010B107E0012010BD002084F88A
:103B40003C00204600F022F8022084F83D00211DB0
:103B5000206801F0B3FD012084F8480084F83E009D
:103B600084F83F0084F8400084F8410084F8420063
:103B700084F8430084F8440084F8450084F8460043
:103B800084F8470084F83D00002010BD08B50068A7
:103B9000184A1949904216D1086E40F40060086630
:103BA000086E002200F40060009011461820FEF715
:103BB000C5FE1820FEF7B4FE002211461920FEF7BC
:103BC000BDFE192010E00D4A904211D1086E40F45C
:103BD00000500866086E002200F400500090114664
:103BE0002B20FEF7ABFE2B20BDE80840FEF798BE69
:103BF00008BD0000002C01400010024000340140CC
:103C000090F83D10012901D001207047022180F871
:103C10003D100168CA6842F00102CA600068134999
:103C2000884214D0B0F1804F11D0114988420ED093
:103C3000104988420BD01049884208D00F49884269
:103C400005D00F49884202D00E49884207D18168C9
:103C50000D4A1140062906D0B1F5803F03D0016816
:103C600041F001010160002070470000002C01407C
:103C70000004004000080040000C004000340140F7
:103C80000040014000500140070001002DE9F041D3
:103C9000044690F83C0000250F4601281CD0012660
:103CA00084F83C60022084F83D0020688168324A34
:103CB000114021F47F4181603968B1F5005F2DD05A
:103CC00017DC402948D00ADCD9B1102919D02029A5
:103CD00017D0302948D114E00220BDE8F0815029E6
:103CE00028D060292ED070290DD0B1F5805F3BD14E
:103CF0003BE011F00F0F37D10811A0F580300728F5
:103D000032D8206825E0D7E90121FB68206801F05E
:103D100050FD2068816841F0770109E0D7E9012171
:103D2000FB68206801F045FD2068816841F480410E
:103D300081601AE0FA687968206801F01DFF50215F
:103D4000206806E0FA687968206801F049FF602180
:103D5000206801F039FD08E0FA687968206801F010
:103D60000BFF40212068F4E7012584F83D60002026
:103D700084F83C002846B0E788FFCEFF70472DE965
:103D8000F04104460068C66805694FF00007A907BE
:103D900013D5B10711D5F91E0161012020772068E4
:103DA00080698007204602D0FFF7E8FF04E000F0BA
:103DB0001DF9204600F028FA2777680716D5700706
:103DC00014D521686FF00400086102202077206874
:103DD000806910F4407F204602D0FFF7CFFF04E057
:103DE00000F004F9204600F00FFA2777280715D5D0
:103DF000300713D521686FF0080008610420207790
:103E00002068C0698007204602D0FFF7B7FF04E0B2
:103E100000F0ECF8204600F0F7F92777E80616D511
:103E2000F00614D521686FF0100008610820207793
:103E30002068C06910F4407F204602D0FFF79EFF43
:103E400004E000F0D3F8204600F0DEF92777E80719
:103E500008D0F00706D021686FF001000861204605
:103E600000F064FA280601D4A80408D5300606D567
:103E700021686FF4025008612046FFF79EFDE805B7
:103E800008D5300606D521686FF480700861204699
:103E9000FFF792FD680608D5700606D521686FF019
:103EA00040000861204600F067FAA80608D5B00671
:103EB00006D521686FF0200008612046FFF77EFDDF
:103EC000E80208D5F00206D521686FF48010086179
:103ED0002046FFF7CAFDA80208D5B00206D5216822
:103EE0006FF4001008612046FFF7BEFD680208D598
:103EF000700206D521686FF4800008612046FFF744
:103F0000B5FD28020AD5300208D521686FF40000FB
:103F100008612046BDE8F041FFF706BEBDE8F0812C
:103F20002DE9F04186B0044614216846FCF7B7F944
:103F3000294A21680024294802250426914232D1C9
:103F4000C16C41F00201C164C16C01F00201059134
:103F5000C16C41F00101C164C06C062700F0010092
:103F600005904FF4C0400090CDE90154DFF8708017
:103F7000CDE9034769464046FEF7A6FAA80300903C
:103F8000CDE90154CDE9034669464046FEF79CFA67
:103F90004FF4E0600090CDE90154CDE90347694654
:103FA0004FF0904013E00F4A914212D1C16C41F0A2
:103FB0000401C164C06C694600F0040005904FF430
:103FC000EE500090CDE90154CDE903460648FEF7D6
:103FD0007BFA06B0BDE8F081002C014000100240E1
:103FE000000400480034014000080048704770B5E4
:103FF0000D46040003D094F83D0010B107E0012005
:1040000070BD002084F83C00204600F01BF8022020
:1040100084F83D00211D206801F050FB20680168F4
:1040200021F00801016054F8480B01682943016040
:10403000012004F81F096075A075E07620772075CF
:10404000002070BD08B500680B49884212D10B48AA
:10405000016E41F480310166006E002200F4803070
:10406000009011461820FEF769FCBDE808401820B2
:10407000FEF756BC08BD00000040014000100240A1
:1040800070B5044690F83C0000260D4601280BD080
:10409000012084F83C000C2A4AD007DC82B1042AB3
:1040A00020D0082A06D131E0022070BD102A53D05A
:1040B000142A63D00126002084F83C00304670BDED
:1040C000206801F08BFB2068816941F00801816163
:1040D0002068816921F004018161206881692A6971
:1040E000114311E0206801F0D1FB2068816941F49F
:1040F000006181612068816921F4806181612068AB
:1041000081692A6941EA02218161D4E7206801F0CE
:1041100011FC2068C16941F00801C1612068C169D2
:1041200021F00401C1612068C1692A69114311E0CD
:10413000206801F053FC2068C16941F40061C1614D
:104140002068C16921F48061C1612068C1692A6960
:1041500041EA0221C161AEE7206801F093FC2068CA
:10416000016D41F0080101652068016D21F0040135
:1041700001652068016D2A69114311E0206801F092
:10418000BDFC2068016D41F4006101652068016D8E
:1041900021F4806101652068016D2A6941EA0221EC
:1041A000016588E710B5040003D094F83D0010B114
:1041B00007E0012010BD002084F83C00204600F0FC
:1041C00022F8022084F83D00211D206801F076FAD3
:1041D000012084F8480084F83E0084F83F0084F809
:1041E000400084F8410084F8420084F8430084F8D9
:1041F000440084F8450084F8460084F8470084F8B9
:104200003D00002010BD70477047000070B50446A7
:1042100069B104290ED008290FD00C2910D010291B
:1042200011D094F84300012810D0012070BD94F8FB
:104230003E00F8E794F83F00F5E794F84000F2E715
:1042400094F84100EFE794F84200ECE70220E9B36C
:1042500004294AD008294BD00C294CD010294DD024
:1042600084F843000122206801F096FA254920686D
:10427000254A264B264D88420BD0904209D09842C1
:1042800007D0244EB04204D0234EB04201D0A84201
:1042900003D1466C46F4004646642068884211D03B
:1042A000B0F1804F0ED01D4988420BD01C49884286
:1042B00008D01C49884205D0904203D0984201D0D2
:1042C000A84209D18168184A114000E00AE0062995
:1042D00006D0B1F5803F03D0016841F001010160D3
:1042E000002070BD84F83E00BCE784F83F00B9E7C9
:1042F00084F84000B6E784F84100B3E784F8420050
:10430000B0E70000002C01400034014000400140B3
:1043100000500140004401400048014000040040BA
:1043200000080040000C0040070001000C4910B5D7
:10433000884214D10B480178491C017000780A4862
:10434000FCF790F8F1EE0C0A084820EE200A80ED08
:10435000000A07480068D0F880000649C88010BDF0
:10436000F405002000000020240700204C07002056
:10437000F400002034000020704790F884100129D8
:1043800018D0012180F884102421C0F88810016819
:104390000A680B6823F001030B6022F00051002231
:1043A0004266036819602021C0F8881080F88420D4
:1043B00010467047022070477047704770B504463A
:1043C00090F8840001281DD0012084F88400242066
:1043D000C4F8880020680568026822F001020260C3
:1043E0002068826822F060620A438260204601F001
:1043F0001DFC206805602020C4F88800002084F897
:10440000840070BD022070BD70B5044690F8840031
:1044100001281DD0012084F884002420C4F88800DD
:1044200020680568026822F0010202602068826844
:1044300022F060420A438260204601F0F7FB2068C8
:1044400005602020C4F88800002084F8840070BD36
:10445000022070BD70477047704700002DE9F041A1
:1044600003680446D86919689A6840F60F0528421F
:104470004FF000054FF002060AD187067ED501F005
:10448000200702F0805C57EA0C0777D0616F42E1A9
:10449000B64FDFF8DCC2174001EA0C0C57EA0C0CEF
:1044A0006CD05FEAC07C0CD05FEAC15C09D54FF0EC
:1044B000010CC3F820C0D4F8903043F00103C4F8D5
:1044C0009030830709D5D30707D023681E62D4F83C
:1044D000903043F00403C4F8903043070AD5D30763
:1044E00008D0266804233362D4F8903043F00203E6
:1044F000C4F8903003070CD501F020033B4308D0EB
:10450000266808233362D4F8903043F00803C4F8D7
:10451000903003050BD54B0109D526684FF4006395
:104520003362D4F8903043F02003C4F89030D4F8CC
:104530009030002B3DD0800609D501F0200002F01C
:104540008051084303D0616F09B120468847D4F8F1
:10455000900021688968490602D410F0280F2AD0FB
:10456000204601F08DFC2068806840061ED520683A
:10457000083050E8001F21F0400100E021E040E851
:104580000012002AF3D1D4F8800078B17949816310
:10459000D4F88000FDF7CEFA00280AD0D4F88000C5
:1045A000816B00E02046BDE8F04108472046FFF758
:1045B00053FFBDE8F0812046FFF74EFFC4F890504E
:1045C000F7E7D4F86CC02027BCF1010F7ED15FEA79
:1045D000C06C7BD55FEAC16C78D51020186220686A
:1045E0008068400651D5D4F880100A6850680004ED
:1045F000000C3ED0B4F85C3083423AD9A4F85E0097
:104600000868006880062CD4206850E8001F21F458
:10461000807140E80012002AF6D12068083050E886
:10462000001F21F0010140E80012002AF5D12068A6
:10463000083050E8001F21F0400140E80012002A35
:10464000F5D1C4F88C70E566206850E8001F21F0B1
:10465000100140E80012002AF6D1D4F88000FDF7DE
:1046600031FA2667B4F85C00B4F85E10401A81B2E3
:1046700007E0B4F85C1081429BD11068800698D5A1
:1046800026672046FFF798FE93E7B4F85C00B4F87D
:104690005E10401A81B2B4F85E00002889D000296B
:1046A00087D0206850E8002F22F4907240E8002361
:1046B000002BF6D12D4BDB432068083050E8002F4B
:1046C0001A4040E8002CBCF1000F00E00EE0F3D1EE
:1046D000C4F88C70E5666567206850E8002F22F00A
:1046E000100240E80023002BF6D1C9E7C60209D525
:1046F000560207D54FF4801018622046BDE8F041FD
:10470000FFF7A9BE03060AD501F0800302F40002F8
:10471000134304D0A16F00297FF444AF49E7420658
:1047200011D54A060FD52046016851E8002F22F026
:10473000400241E80023002BF6D1C0F8887085675D
:1047400000F024F935E7020206D54A0004D52046D8
:10475000BDE8F041FFF77EBEC00195D5002993DA90
:104760002046BDE8F041FFF728BE00000100001020
:1047700020010004E55D000810B5040003D0D4F862
:10478000880010B107E0012010BD002084F88400EB
:10479000204600F027F82420C4F88800206801682B
:1047A00021F001010160A06A10B1204601F060FA19
:1047B000204601F0A7FB0128E6D02068416821F4DB
:1047C000904141602068816821F02A018160206861
:1047D000016841F0010101602046BDE8104001F090
:1047E000ABBA0000F0B59BB00646142115A8FBF744
:1047F00056FD54216846FBF752FD39493068394C63
:1048000002270025884243D1202000900695684663
:10481000FEF706FA08B1FBF7F1FEE06D40F001008B
:10482000E065E06D00F001001A90E06C40F00400DB
:10483000E064E06C15A900F004001A900320CDE9B3
:104840001507CDE91750082019902748FDF73CFEC1
:10485000274C26482060232060601020C4E9020510
:104860008020C4E90405A561E56120462562FDF7C5
:10487000FBF908B1FBF7C2FEF467002211465B208A
:10488000A662FEF75BF85B20FEF74AF81BB0F0BDAE
:1048900018498842FAD10120CDE900056846FEF7A3
:1048A000BFF908B1FBF7AAFE206E40F480402066F5
:1048B000206E00F480401A90E06C40F00200E0644A
:1048C000E06CCDE9167500F002001A90C02015903A
:1048D0000720CDE9185015A90748FDF7F5FDD5E7E4
:1048E000008000400010024000080048080002401C
:1048F00018040020003801400004004870B5044648
:10490000D0F88800202801D0022070BD39B332B31E
:104910002165A4F85420A4F856200021C4F8901072
:104920002120C4F88800E06FD8B1154BC362E36F53
:1049300014481863E36F14485863E06F13468163AB
:104940002068E56F00F128022846216DFDF7EEF999
:1049500038B11020C4F890002020C4F8880001204D
:1049600070BD2168402008622068083050E8001FB0
:1049700041F0800140E80012002AF5D1002070BD0E
:10498000335E0008755E0008EF5D000870477047F1
:10499000FEE700EB8100006E00F0F840704700EB8E
:1049A0008100006E00F0F84070478068C0F3C000DE
:1049B00070478068C0F3C00070478068C0F3000093
:1049C00070478068C0F3000070478068C0F38000C3
:1049D00070478068C0F380007047C06810F4406F73
:1049E00001D00020704701207047042303EAD1530F
:1049F00010B518444369C1F3045107248C40A34304
:104A00008A401343436110BD042303EAD15310B518
:104A100018444369C1F3045107248C40A3438A40DE
:104A20001343436110BD00EB8100016E21F0004192
:104A300011430166704700EB8100016E21F00041D7
:104A400011430166704700000148FFF707BD0000F1
:104A5000F002002070B592B000240F9410943C2115
:104A600068461194FBF71BFC22484FF0A041042537
:104A700001604FF44031C0E90114C4600461C0E931
:104A80000545047744770126066280F8244080F8C3
:104A90003840C46380F84040FCF716FE08B1FBF7CD
:104AA000ADFD0FA913480F94FCF7D8F908B1FBF737
:104AB000A5FD1148009009200190032002907F205D
:104AC00008960594CDE9030584200A908DF82440CA
:104AD00080208DF825400B908DF826408DF83040D1
:104AE00069460448FBF712FE002801D0FBF786FD5B
:104AF00012B070BD88000020002090B6F0B597B0CD
:104B000020210FA8FBF7CBFB3C216846FBF7C7FB36
:104B100033483249002401604FF44031C0E90114A8
:104B2000042585610121C460C0E90441047744770C
:104B3000016280F82440C462046380F83840C46392
:104B400080F84040FCF7C0FD08B1FBF757FD254E4B
:104B500010A906207F270F9681E89100CDE9135414
:104B60000FA91F48FCF722FA08B1FBF747FD1E48C2
:104B70000090092001900320CDE90207CDE90454FB
:104B800008909C200A908DF8244080208DF82540C4
:104B90000B908DF826408DF8304069461048FBF7A1
:104BA000B5FD08B1FBF72AFD40F20F10CDE900601A
:104BB00069460B48FBF7AAFD08B1FBF71FFD0B4840
:104BC000009040F21520019069460548FBF79EFDD4
:104BD000002801D0FBF712FD17B0F0BD0001005016
:104BE000F4000020020030040002B0252000F01480
:104BF00070B592B000240F9410943C216846119433
:104C0000FBF74DFB23482249042501604FF4403156
:104C1000C0E90114C4600461C0E905450477447724
:104C20000126066280F8244080F83840C46380F88A
:104C30004040FCF749FD08B1FBF7E0FC0FA915481F
:104C40000F94FCF70BF908B1FBF7D8FC1248009061
:104C500009200190032002907F2008960594CDE959
:104C6000030584200A908DF8244080208DF825408B
:104C70000B908DF826408DF8304069460548FBF7CB
:104C800045FD002801D0FBF7B9FC12B070BD000053
:104C90000004005060010020002098B670B590B06C
:104CA0003C216846FBF7FBFA1F481E4900240160BF
:104CB000C901C0E90114C46004250461C0E90545C7
:104CC000047744770126066280F8244080F8384053
:104CD000C46380F84040FCF7F7FC08B1FBF78EFC9A
:104CE0001248009009200190032002907F2008962E
:104CF0000594CDE9030584200A908DF82440802096
:104D00008DF825400B908DF826408DF8304069468F
:104D10000548FBF7FBFC002801D0FBF76FFC10B047
:104D200070BD000000060050CC0100202000F0946F
:104D30000D4808B5816C41F004018164816C01F07B
:104D400004010091816C41F001018164806C0022BA
:104D500000F00100009011460B20FDF7EFFDBDE8CB
:104D600008400B20FDF7DCBD00100240144810B5D0
:104D70001249016000214FF44072C0E90112C16084
:104D80000174417481740A22426103220C23C0E938
:104D90000623026202220123C0E909230D23C0E990
:104DA0000B321C22C0E90D21C163FDF711FA002866
:104DB00003D0BDE81040FBF721BC10BD00640040EB
:104DC000380200202DE9F04786B014216846FBF731
:104DD00066FA3C48C16C41F00401C164C16C01F049
:104DE00004010591C16C41F02001C164C16C01F066
:104DF00020010591C16C41F00101C164C16C01F059
:104E000001010591C16C41F00201C164C16C01F066
:104E100002010591C16C41F00801C164C06CDFF86A
:104E2000A89000F008000590002242F224014846B4
:104E3000FDF726FC48F210074FF090480022394653
:104E40004046FDF71DFCDFF884A0002204215046F7
:104E5000FDF716FC0024B8100125022603948DE806
:104E6000610069464846FDF72FFB4FF44040CDE90D
:104E70000004694648460294FDF726FB0097CDE9F9
:104E80000154694640460394FDF71EFB20208DE83F
:104E900061000320039069464846FDF715FB680250
:104EA0008DE8510069464846FDF70EFB042000904E
:104EB000CDE90154694650460394FDF705FB06B061
:104EC000BDE8F0870010024000080048000C0048D0
:104ED000134810B5114901601249416000210122B7
:104EE000C0E90212016141618161C1610162FDF7A6
:104EF00027FC08B1FBF782FB00210948FDF7CCFB3A
:104F000008B1FBF77BFB00210548FDF7F0FB00280B
:104F100003D0BDE81040FBF771BB10BD005400404A
:104F20009C020020E49DD230174810B5154901605D
:104F300016494160002181600C22C160C0E9041261
:104F40008161016241628162FFF716FC08B1FBF7E3
:104F500055FB00210C48FFF757FA08B1FBF74EFB51
:104F600000210948FFF72AFA08B1FBF747FB06487A
:104F7000FFF703FA002803D0BDE81040FBF73EBB63
:104F800010BD000000800040F0020020808D5B001A
:104F90000D4810B50B49016000214022C0E9011203
:104FA0000122016102755204426281619210C0E9DE
:104FB0000A21FDF7F5FC002803D0BDE81040FBF7FF
:104FC0001DBB10BD00030140780400200D4810B542
:104FD0000B49016000214022C0E901120122016158
:104FE00002755204426281619210C0E90A21FDF704
:104FF000D7FC002803D0BDE81040FBF7FFBA10BD76
:1050000008030140B40400200E4810B50C490160AB
:1050100000214022C0E9011208220261012202752A
:105020005204426281619210C0E90A21FDF7B8FC86
:10503000002803D0BDE81040FBF7E0BA10BD000027
:105040000C030140F0040020124810B51049016023
:105050004FF48271416000214FF47062C0E9021286
:105060000122C0E90412520282611022C0E9072124
:1050700007224162C0E90A1201634163FEF78CFA1C
:10508000002803D0BDE81040FBF7B8BA10BD0000FF
:10509000003001402C050020124810B51049016075
:1050A0004FF48271416000214FF47062C0E9021236
:1050B0000122C0E90412520282611022C0E90721D4
:1050C00007224162C0E90A1201634163FEF764FAF4
:1050D000002803D0BDE81040FBF790BA10BD0000D7
:1050E000003C0040900500203EB50024104800948C
:1050F00001940E490294C0E900144FF6FF71C0E913
:1051000002410461446108218461FEF770FF08B127
:10511000FBF774FA0094694605480294FEF7A8FC70
:10512000002801D0FBF76AFA3EBD000000400140B4
:105130008C06002010B59CB0002419941A94179482
:105140001894149415941C2168461694FBF7A7F83C
:10515000342107A8FBF7A3F83D483C49C0E90014F7
:105160002021816040F69F71C1604FF40071C0E959
:1051700004148461FEF7D9FC08B1FBF73FFA4FF441
:105180008050179017A93248FEF780FD08B1FBF751
:1051900035FA2F48FFF706F808B1FBF72FFA702011
:1051A000CDE9140414A92A481694FEF761FC08B14D
:1051B000FBF724FA602000904FF4FA60CDE9010477
:1051C0000394049405940022694621480694FEF74E
:1051D00057FF08B1FBF712FA042269461C48FEF794
:1051E0004FFF08B1FBF70AFA082269461848FEF794
:1051F00047FF08B1FBF702FA40F2CE7001900C2293
:1052000069461348FEF73CFF08B1FBF7F7F907942E
:1052100078200894CDE909404FF40050CDE90B40C7
:105220000220CDE90D040006CDE90F40119412943F
:1052300007A907481394FEF7C3FB08B1FBF7DEF993
:105240000348FEF76DFE1CB010BD0000002C0140AD
:10525000F405002010B59CB0002419941A941794FA
:105260001894149415941C2168461694FBF717F8AB
:10527000342107A8FBF713F83C483B49C0E9001468
:105280002021816040F69F71C1604FF40071C0E938
:1052900004148461FEF749FC08B1FBF7AFF94FF441
:1052A0008050179017A93148FEF7F0FC08B1FBF7C2
:1052B000A5F92E48FEF776FF08B1FBF79FF970209D
:1052C000CDE9140414A929481694FEF7D1FB08B1BE
:1052D000FBF794F9602000904FF4FA60CDE90104E7
:1052E0000394049405940022694620480694FEF72E
:1052F000C7FE08B1FBF782F9042269461B48FEF796
:10530000BFFE08B1FBF77AF9082269461748FEF795
:10531000B7FE08B1FBF772F940F2CF7001900C2292
:1053200069461248FEF7ACFE08B1FBF767F907942F
:10533000089409944FF400500A94CDE90B400220E0
:10534000CDE90D040006CDE90F401194129407A990
:1053500006481394FEF734FB08B1FBF74FF90348F6
:10536000FEF7DEFD1CB010BD0034014040060020F9
:10537000184810B5164901604FF4E1314160002131
:1053800081600C22C160C0E904128161C1610162C7
:1053900041628162FFF7F0F908B1FBF72FF90021B4
:1053A0000C48FFF731F808B1FBF728F9002109484C
:1053B000FFF704F808B1FBF721F90648FEF7DDFF17
:1053C000002803D0BDE81040FBF718B910BD00005D
:1053D0000038014084030020FEE7FEE7002101E0E1
:1053E000414040080028FBD101F0010070477047A0
:1053F000F8B515460E460B460092044600224FF4BF
:10540000C05100F037F888B9334600228021204689
:10541000009500F09DF848B9334600224FF4C06172
:105420002046009500F026F8002804D0206E40F0B9
:10543000200020660320F8BD13B50446018982B020
:1054400040680022FDF71CF94FF47A7000900123A8
:1054500001AA03A92068FEF767F910B10020ADF892
:105460000400218901226068FDF70AF9BDF80400F3
:1054700004B010BD2DE9FC5F4FF0000B98461646B6
:105480000F4604460C9D8DF804B0FDF7FFF8411B54
:10549000A8EB0105FDF7FAF88246206800F10C0937
:1054A0002A480068C0EBC00000EB8000000D684394
:1054B00016E0B7F5C06F06D12EB999F800008DF847
:1054C00004009DF80400B8F1FF3F0AD0FDF7DEF8B4
:1054D000A0EB0A00A8420CD25DB1009898B3401E20
:1054E0000090206880683840B042E2D10020BDE8DA
:1054F000FC9F2068416821F0E00141606068B0F5E0
:10550000827F0BD1A068B0F5004F02D0B0F5806F5C
:1055100004D12068016821F040010160A06AB0F563
:10552000005F09D12068016821F400510160206802
:10553000016841F400510160012084F85D0084F8A5
:105540005CB00320D3E7FFE70025CAE72000002076
:105550002DE9F8431E46914688460446089DFDF70E
:1055600095F8401B351AFDF791F807462648006864
:10557000C0F3CB3068430AE0701C09D0FDF786F811
:10558000C01BA8420FD275B10098B8B3401E00905E
:105590002068816838EA010033D000204845EBD10B
:1055A0000020BDE8F8832068416821F0E0014160F7
:1055B0006068B0F5827F0BD1A068B0F5004F02D0D3
:1055C000B0F5806F04D12068016821F040010160CE
:1055D000A06AB0F5005F09D12068016821F400518C
:1055E00001602068016841F400510160012084F8E5
:1055F0005D00002084F85C000320D2E7FFE700256F
:10560000C6E70120CAE70000200000207047FDF730
:1056100035B910B594B038216846FAF740FE142128
:105620000EA8FAF73CFE0020FDF794FA01210804C9
:10563000CDE900100324CDE9084102201421CDE971
:105640000A1007900C900D906846FDF7ABFD08B16D
:1056500072B6FEE70F20CDE90E04002010901190E5
:10566000129004210EA8FDF767FC002801D072B645
:10567000FEE714B010BD00000248016841F470015B
:105680000160704788ED00E010B50448FEF777FB35
:10569000BDE810400248FEF772BB0000F405002090
:1056A0008C0600200148FEF76ABB0000F4050020CC
:1056B0000148FEF764BB0000400600202DE9F04FD2
:1056C00002682C4D2C4E2D4FDFF8B4C02D4B2E4CC4
:1056D0004FF0804BA8420BD0584509D0B04207D0BC
:1056E000B84205D0604503D0984201D0A04204D111
:1056F00022F070084A6842EA0802DFF89080DFF87A
:105700009090DFF890A0A84211D058450FD0B04239
:105710000DD0B8420BD0604509D0984207D0404523
:1057200005D0484503D0504501D0A04203D122F412
:105730004076CA6832434E6922F0800232438E6856
:10574000C6620E688662A84209D0984207D04045DA
:1057500005D0484503D0504501D0A04201D1096988
:105760000163016841F004010160012141610260AF
:10577000BDE8F08F002C014000040040000800400C
:10578000000C004000340140005001400040014046
:10579000004401400048014010B501F01F01012301
:1057A000046A8B409C430462036A8A401343036289
:1057B00010BD10B5846842EA032224F47F440A43F2
:1057C0002243826010BD00008268034B1A400A43E6
:1057D00042F00701816070478FFFCFFF2DE9F0474E
:1057E000046A026A22F00102026243688269204D63
:1057F00024F002042A400D6822F0030215438A684F
:105800001C4E22431C4FDFF874C0DFF87480DFF8B1
:105810007490DFF874A0B04209D0B84207D0604558
:1058200005D0404503D0484501D0504507D1046A12
:1058300024F00404046222F00804CA682243B0423F
:1058400009D0B84207D0604505D0404503D048454F
:1058500001D0504505D14C6923F440731C438B693A
:10586000234343608561496841630262BDE8F08774
:105870008FFFFEFF002C014000340140004001403A
:10588000004401400048014000500140F0B5056A65
:10589000026A22F010020262426883691E4C204EA6
:1058A00023400C6823F4407343EA042425F02003CA
:1058B0008D681C4F43EA0513184DA84203D0B0422F
:1058C00001D0B8420BD1D0F820C02CF0400CC0F869
:1058D00020C0D1F80CC023F0800343EA0C13A84287
:1058E0000CD0B0420AD0104DA84207D00F4DA842AC
:1058F00004D00F4DA84201D0B84207D14D6922F41F
:10590000406242EA85028D6942EA85024260846112
:10591000496881630362F0BDFF8FFFFE002C0140E8
:10592000003401400050014000400140004401406B
:1059300000480140F0B5056A026A22F480720262F2
:105940004268C3691E4C204E23400C6823F00303B9
:105950001C4325F400738D681C4F43EA0523194D41
:10596000A84203D0B04201D0B8420BD1D0F820C039
:105970002CF4806CC0F820C0D1F80CC023F4006374
:1059800043EA0C23A8420CD0B0420AD0104DA842E2
:1059900007D0104DA84204D00F4DA84201D0B84204
:1059A00007D14D6922F4405242EA05128D6942EA5C
:1059B00005124260C4614968C1630362F0BD000022
:1059C0008FFFFEFF002C01400034014000500140D9
:1059D000004001400044014000480140F0B5056A24
:1059E000026A22F4805202624268C3691E4C204E51
:1059F00023400C6823F4407343EA042425F4005345
:105A00008D681C4F43EA0533184DA84203D0B042BD
:105A100001D0B8420BD1D0F820C02CF4804CC0F893
:105A200020C0D1F80CC023F4004343EA0C33A84251
:105A30000CD0B0420AD0104DA84207D00F4DA8425A
:105A400004D00F4DA84201D0B84207D14D6922F4CD
:105A5000404242EA85128D6942EA85124260C46181
:105A6000496801640362F0BDFF8FFFFE002C014016
:105A7000003401400050014000400140004401401A
:105A80000048014030B5056A026A22F480320262A1
:105A90004268036D124C23400C681C4325F400330C
:105AA0000D8943EA05430F4DA8420ED00E4DA84282
:105AB0000BD00E4DA84208D00D4DA84205D00D4D7B
:105AC000A84202D00C4DA84204D14D6922F4803284
:105AD00042EA05224260046549688164036230BD80
