:020000040800F2
:1000000078460020ED010008F7530008F349000886
:10001000F5530008FF080008E35F00080000000037
:100020000000000000000000000000007154000803
:10003000210A00080000000001540008A154000833
:10004000070200080702000807020008070200086C
:10005000070200080702000807020008070200085C
:10006000070200080702000807020008010900084B
:10007000070200080702000807020008070200083C
:1000800007020008070200087907000807020008B5
:1000900007020008950A0008070200080702000886
:1000A0003D550008555500080702000807020008E2
:1000B00007020008070200080702000807020008FC
:1000C00007020008070200080702000807020008EC
:1000D00007020008070200080702000807020008DC
:1000E0000702000807020008070200086D55000813
:1000F0007555000807020008070200089507000868
:1001000007020008070200080702000807020008AB
:1001100007020008070200080702000861550008EE
:10012000070200080702000807020008070200088B
:100130000702000807020008A107000807020008DC
:10014000070200080702000807020008070200086B
:10015000070200080702000807020008070200085B
:10016000070200080702000807020008070200084B
:10017000070200080702000807020008070200083B
:10018000070200080702000807020008070200082B
:10019000070200080000000007020008070200082C
:1001A000070200080702000807020008354A000895
:1001B00007020008070200080702000807020008FB
:1001C00007020008070200080702000807020008EB
:1001D0000702000807020008DFF80CD000F0BAFAA6
:1001E000004800470962000878460020064880471A
:1001F00006480047FEE7FEE7FEE7FEE7FEE7FEE70C
:10020000FEE7FEE7FEE7FEE72D550008D9010008EE
:100210002DE9F05F0546002092469B46884606463B
:10022000814640241BE0284641464746224600F0CE
:1002300098F953465A46C01A914110D311461846B0
:10024000224600F07FF92D1A67EB01084F4622463F
:100250000120002100F076F917EB00094E41201E25
:10026000A4F10104DFDC484631462A464346BDE896
:10027000F09F40EA01039B0703D009E008C9121F61
:1002800008C0042AFAD203E011F8013B00F8013B50
:10029000521EF9D27047D2B201E000F8012B491E7C
:1002A000FBD270470022F6E710B513460A46044613
:1002B0001946FFF7F0FF204610BD2DE9FE4F80469E
:1002C00081EA0300C00F0C46009021F0004123F0AA
:1002D0000045B8EB0200A94105D2404621469046B0
:1002E0001C460B46024623F00040104347D0270D22
:1002F000C7F30A00C3F30A510290401A0190402844
:100300006BDAC3F3130040F4801B0098924620B1CF
:100310000023D2EB030A63EB0B0B01985946C0F1A3
:100320004002504600F00EF906460D46504659462A
:10033000019A00F026F910EB08006141002487EAD9
:10034000115284EAE7731A4340D0009A62B3019ACB
:10035000012A4FEA075215DC001B61EB02014FF046
:10036000004202EA0752CDE90042001C41F580112B
:1003700032462B4600F05DF903B0BDE8F08F4046F1
:100380002146F9E7001B61EB0201001C41F58013D7
:1003900000185B412018A2F5001747EB030140EA63
:1003A000D570B6196D4111E06D084FEA360645EA81
:1003B000C0754FEA0752001B61EB0201001C41F5BA
:1003C000801149084FEA30000019514132462B464E
:1003D00003B0BDE8F04F00F01DB9009801224000C5
:1003E0000023D0EB020263EBE073009821464FEA52
:1003F000E074B8EB000061EB0401E9E783F000432F
:100400005BE781F0004158E72DE9F04D81EA0304F4
:1004100004F0004B21F0004514464FF0000A23F091
:10042000004150EA050220D054EA01021DD0C5F374
:100430000A570246C5F31303C1F31300C1F30A566A
:1004400040F4801543F48013A7EB0608101BD64632
:1004500008F2FD3873EB050002D308F1010801E052
:1004600092185B41B8F1000F03DA00200146BDE8A5
:10047000F08D00204FF48011064684460EE0171BD5
:1004800073EB050705D3121B63EB050306434CEA28
:10049000010C49084FEA300092185B4150EA01070D
:1004A000EDD152EA030012D082EA040083EA05018A
:1004B000084305D0101BAB4106D20122002306E001
:1004C00000224FF0004302E06FF0010253101AEBDC
:1004D00006004CEB085110EB0A0041EB0B01BDE8A4
:1004E000F04D00F097B800F0004230F000400AD024
:1004F000C10D01F56071C0F3160042EA0151C20856
:1005000040071143704700200146704701F0004347
:1005100030B421F0004150EA010206D00A0DA2F5E4
:100520006072C1F31301002A02DC30BC0020704766
:10053000440F44EAC104C100E01830BC00EBC250D3
:1005400000F031B8202A04DB203A00FA02F1002042
:1005500070479140C2F1200320FA03F31943904001
:100560007047202A04DB203A21FA02F0002170476C
:1005700021FA02F3D040C2F120029140084319460B
:100580007047202A06DBCB17203A41FA02F043EAF3
:10059000E07306E041FA02F3D040C2F1200291403C
:1005A0000843194670470029A8BF7047401C4900FE
:1005B00008BF20F00100704710B4B0FA80FC00FAC8
:1005C0000CF050EA010404BF10BC704749B1CCF1F3
:1005D000200421FA04F411FA0CF118BF012121437F
:1005E0000843A3EB0C01CB1D4FEA00614FEA10203A
:1005F00042BF002010BC704700EBC35010440029DC
:10060000A4BF10BC7047401C490008BF20F0010087
:1006100010BC704710B5141E73F1000408DA401CBA
:1006200041F1000192185B411A4301D120F0010011
:1006300010BD2DE9F04D92469B4611B1B1FA81F201
:1006400002E0B0FA80F220329046FFF77BFF0446CA
:100650000F4640EA0A0041EA0B0153465A46084356
:1006600013D0114653EA010019D0C8F14002504698
:10067000FFF777FF05460E46504659464246FFF7BC
:1006800061FF084305D0012004E020463946BDE85B
:10069000F08D0020054346EAE0762C4337430A9864
:1006A0006305E40AA0EB08000022FD0A44EA47546F
:1006B0000A3002D500200146E9E701051019694119
:1006C000DDE9084500196941BDE8F04DA2E72DE9D3
:1006D000FE4FC3F30A5701F000450024C1F30A5648
:1006E000C3F31303C1F3130143F4801312EB020AA3
:1006F000A64641F48011009543EB030CA7F1010BD2
:1007000016E0B0EB0A0061EB0C01071E71F1000767
:1007100007DA4FF00008D0EB080085F0004568EBE1
:100720000101171A73EB0107EBD3761E001849413C
:100730005E45F6DA50EA010209D0CDE900E5002273
:1007400013460296FFF775FF03B0BDE8F08F204611
:100750000099F9E7064C074D06E0E06840F0010318
:1007600094E8070098471034AC42F6D3FFF738FD01
:10077000848A0008A48A000880B5044800F006FFB7
:100780000348BDE8804000F001BF00BFCC0300205B
:1007900038040020014800F0F9BE00BFA404002086
:1007A000014800F0F3BE00BF10050020B0B50446BC
:1007B000002021688B688A6813F0020F2DD112F097
:1007C000010208BFB0BD886800F00D0001281BD1F0
:1007D0008868414A104040F00200886003200860A9
:1007E00001F0EEFF05462068806810F0010F04BF9D
:1007F0000020B0BD01F0E4FF401B0328F3D32068C4
:10080000806810F0010FEED0E06D40F01000E06560
:10081000206E40F0010020660120B0BD7CB504468A
:100820000020019021688A6812F0010F52D1886877
:10083000294E06F17F02104209D0E06D40F0100011
:10084000E065206E40F001002066012042E08868EB
:10085000304040F001008860204800F5007281427D
:10086000134618BF00F5C063B1F1A04F08BF13468F
:10087000986810F4000F10D0194800681949B0FBAF
:10088000F1F00C2100EB400001EB800001E0019849
:100890000138019001980028F9D101F091FF054637
:1008A0002068016811F0010F13D1816811F0010F68
:1008B00001BF8168314041F00101816001F080FF9A
:1008C000401B0328ECD32068006810F0010FE7D12B
:1008D000B3E7002002B070BDC0FFFF7F00010050F1
:1008E000CC000020400D0300C0E90012002103816C
:1008F000C0E9031110461946012201F059BFFEE775
:10090000014801F004BA00BF7C05002010B5D0F802
:1009100044C00468124BA3F57E7E03F120022CF044
:10092000030174453CBF40F60002C4F20202744564
:1009300001EB020C03F180026FF007034FF014018A
:1009400053FA84F3B3FBF1F14FF0010328BF0831F0
:10095000C0E912C201F01F0103FA01F1016510BDE7
:10096000000802404168094B4FF4FE7202EA81021E
:100970001F3102EB030C01F01F010122443302FA84
:1009800001F1C0E915C3C165704700BFFC08024012
:1009900010B5D0E913CE0124CCF804E0D0F854C04F
:1009A000BCF1000F1CBFD0E916CECCF804E0D0E9B2
:1009B00010CE0EF01F0E04FA0EF4CCF804400468BA
:1009C000636080681028084608BF1046A06008BF12
:1009D0000A46E26010BD00000D494FF0000C0A68A5
:1009E00042F080720A604FF47A720A49C1F804C07A
:1009F0000B6843F001030B60084B07494843B0FB09
:100A0000F2F2B0FBF1F1C3E90002C3E9021C704746
:100A1000FCED00E0001000E040420F00F00200207A
:100A20007047EFF3108072B6FEE70000B0B588B0F3
:100A300000250220194C02A9CDE90255049001209D
:100A400005904FF40070069040F2FF70079020462A
:100A500001F0EEFA2046022102220023009501F067
:100A600013FB204601F0BFFD20460121002201F0CA
:100A70005FFA074840F202210822C0E90415C0E9E4
:100A8000065220301421FFF70DFC08B0B0BD00BFA6
:100A9000F0000020014801F0AABB00BFDC050020E7
:100AA000BCB5044600200D46019094F8580001287A
:100AB00001D1022036E0012084F858002046FFF7DB
:100AC00075FEE16D10B141F0100127E041F2021016
:100AD00021EA000040F00200E06520688168124AC7
:100AE000114005F08042114341F00041816081686E
:100AF000B1F1FF3F0DDC0199013101910B49019AE0
:100B00008A42F4D3E06D20F0120040F01001012081
:100B100004E0E16D012060F301010020E1650021A6
:100B200084F8581002B0B0BDC0FFFF3F02DE0400E1
:100B3000704700002DE9F843814600200D460090E3
:100B400099F85800012802D14FF00208E1E1012094
:100B500089F85800D9F81410E04811B12B6A012B1C
:100B600017D16968092940D1AA6A29684FF47853D6
:100B700003EA514122B102F07C021143EA6A1143B7
:100B8000D9F80020D36C18400843D064C9F8641029
:100B90002BE0D9F868701FB1D9F8641000220CE07E
:100BA00000215A1EC9E91913AF6A2FB107F07C0161
:100BB0001143EA6A0A4300211F46D5E90036013F86
:100BC000C9F8687006F01F07C3F3846303FA07F3DC
:100BD00042EA030241EA0201C9F8641005D1D9F8DA
:100BE0000020D36C18400843D064D9F80000816815
:100BF00011F0080F0ED195F82530C16895F8262020
:100C000021F4401152051BB995F8243042EA0352F1
:100C10001143C16081688268C04CD20842EA9101E8
:100C2000C90710D1AA6A95F825107AB1EA6A6AB1A3
:100C3000012914D1D9F85C104FF0010841F02001CE
:100C4000C9F85C1011E04FF00008B2E0C268012959
:100C500022F0007308BF42F00073C36003E0C16874
:100C600021F00071C1604FF0000895F83020016953
:100C7000012A08D1D5E90D2321F4FF71114319434D
:100C800041F0020101E021F002010161AA68296836
:100C9000B2F1004F08D1002203F0BCFED9F80000E9
:100CA000416941F0004106E003F0B4FED9F80000CC
:100CB000416921F000414161D5E90412C36804296A
:100CC0004CD1016E026E2968C1F3846391FAA1F7D9
:100CD000214218BFB7FA87F3C2F384629A4201BF78
:100CE000016E21F0004101662968426EC1F3846201
:100CF00091FAA1F3214218BFB3FA83F2436EC3F312
:100D00008463934201BF416E21F00041416629682E
:100D1000826EC1F3846291FAA1F3214218BFB3FA43
:100D200083F2836EC3F38463934201BF816E21F02B
:100D3000004181662968C26EC1F3846291FAA1F311
:100D4000214218BFB3FA83F2C16EC1F384619142AC
:100D500002BFC16E21F00041C1662AE000F16007C8
:100D6000D5F800C057F821E06D4E0EEA060E0626B3
:100D700006EA93039A400CF0F8431A4342EA0E0243
:100D800042F0004247F821202969AA6957F821302A
:100D900023F080731A4347F821202A69297F57F8E6
:100DA0002230012923F0007308BF43F0007347F895
:100DB0002230816811F0010F38D12968EB68594E53
:100DC00003F018070E4301EA040224FA07F766400D
:100DD000D0F8B040174026403743C0F8B070524CAE
:100DE000A34223D191FAA1F3002A4FF08067B3FA0E
:100DF00083F308BF8B0E591C07EB8363012701F0B7
:100E00001E0203F0F84301F01F010A2A07FA01F756
:100E100028BF43F000730A2A28BF0A39AA683B4357
:100E200001EB410143EA015103F0F4FD2F683F4813
:100E300007426BD0D9F80020BD4D05F5C06005F51F
:100E40000071AA42034608BF0B46B2F1A04F08BF8B
:100E50000B469E68364CA74206F0E07C1CBF354C22
:100E6000A74221D1300251D43348824218BFB2F197
:100E7000A04F4BD1986820F0E07040EA0C0040F49D
:100E8000000098602D4800682D49B0FBF1F0182152
:100E900000EB400001EB800001E000980138009079
:100EA00000980028F9D131E0F30119D4254B9F4275
:100EB00016D1B2F1A04F08D0E54B9A421CBF9D4B12
:100EC0009A4223D0AA4218BF0146886820F0E070F9
:100ED00040EA0C0040F0807017E000BF00401004B2
:100EE000730213D4184B9F4210D1B2F1A04F05D01A
:100EF000D74B9A420AD0AA4218BF0146886820F010
:100F0000E07040EA0C0040F480008860002089F81E
:100F100058005FFA88F001B0BDE8F083FFFF0700DA
:100F200000F0FF030000F8FF00007F400000088091
:100F3000000021C31000C09000060050CC0000202B
:100F4000400D0300000052C7000084CB23498842B3
:100F500017D02349884221D02249884230D02249E3
:100F6000884218BF70470868204AD0F880109181E5
:100F7000D0F88000A2F84400906C0130906405F035
:100F8000FDB80868194AD0F880101181D0F88000A7
:100F90009083106A0130106205F0F0B80868134AB7
:100FA000D0F88010D181D0F884301382D0F8880036
:100FB0005082A2F85610A2F85830A2F85A00704792
:100FC00008680A4AD0F880105181D0F88000108655
:100FD000506B0130506305F0D1B800BFCC03002046
:100FE00038040020A4040020100500201000002078
:100FF0007047000070B504462068954D05F50071F6
:10100000A8420A4618BF05F5C062B0F1A04F08BF5C
:101010000A469668816811F0080F11D1C168C06C4A
:10102000002909DB10F4C07001BFE06D40F0200022
:10103000E065012008BF70BD94F85800012801D177
:10104000022070BD012084F858002046FFF7E6FB1F
:1010500018B1002184F8581070BDE06D43F2010210
:1010600006F01F0110F4807F1ABF206E20F00800E8
:1010700000202066E06D904340F48050E0652068D9
:10108000734A904205D02B4A904207D105F5407231
:1010900001E04FF0A04209B1824203D1E26D22F497
:1010A0008012E26560226FF040030260002284F843
:1010B0005820C26812F4001F1EBF426842F48062CA
:1010C0004260A269082A08BF6FF020034668082A18
:1010D00003EA060343604FF0200308BF4023426841
:1010E0001A4342605A4A904205D0124A90420ED1A9
:1010F00005F5407201E04FF0A042824207D0072977
:1011000010D8012202FA01F111F0C10F0AD0C16812
:1011100011F0007F0AD18168074A114041F00801AF
:10112000816003E0E06D40F48010E065002070BD58
:101130000001005000050050C0FFFF7F704770475E
:1011400090F85820012A01D102217DE0BCB501228E
:10115000002480F858200194009403683B4D05F565
:101160007E72934205F1F80208BF05F59F64B3F162
:10117000A04F08BF144654B3D4F808C09C6844EA92
:101180000C04640723D405F53E749342A44618BFAB
:1011900005F5DF6CB3F1A04F08BFA446D1F800E01D
:1011A000DCF80820BEF1000F22F4604215D04C6834
:1011B000224390F8384042EA4432CCF8082043F405
:1011C0008072E94B9A4212D155F8F82B16E0C16DA6
:1011D00041F02001C165012131E0CCF8082043F441
:1011E0008071E14A914217D155F8F81B1BE0D5F800
:1011F0000024D5F8003505F5BF651A43AB681A43DE
:10120000D2071BD1DCF80820896840F61F739A4387
:1012100042EA0E0211430FE0D5F80014D5F800257C
:1012200005F5BF651143AA681143C90706D1DCF86B
:10123000081040F61F729143CCF8081000210022DC
:1012400080F85820BDE8BC40C8B270470800005084
:10125000000100502DE9FC41074600200D46019099
:1012600097F85800012801D102236EE1012087F888
:1012700058003868816811F0040F27D1D5E90012B1
:101280001F2602F01F03C2F3012200EB82029E40E0
:10129000146BC1F38461994024EA0606314311635B
:1012A00081688268AB4CD20842EA9101C90740F0DC
:1012B0009980AA682968B2F1004F0DD1002203F08D
:1012C00099FB3868416941F000410BE0F86D01235A
:1012D00040F02000F86535E103F08CFB3868416987
:1012E00021F000414161D5E90412C36804294CD1C1
:1012F000016E026E2968C1F3846391FAA1F621425E
:1013000018BFB6FA86F3C2F384629A4201BF016E37
:1013100021F0004101662968426EC1F3846291FAAE
:10132000A1F3214218BFB3FA83F2436EC3F384637F
:10133000934201BF416E21F0004141662968826EEF
:10134000C1F3846291FAA1F3214218BFB3FA83F288
:10135000836EC3F38463934201BF816E21F0004129
:1013600081662968C26EC1F3846291FAA1F32142B9
:1013700018BFB3FA83F2C16EC1F38461914202BF18
:10138000C16E21F00041C1662CE0A04600F160046E
:10139000D5F800C054F821E06F4E0EEA060E06267E
:1013A00006EA93039A400CF0F8431A4342EA0E020D
:1013B00042F0004244F821202969AA6954F82130FA
:1013C00023F080731A4344F821202A69297F54F8B6
:1013D0002230012923F0007308BF43F0007344F862
:1013E00022304446816811F0010F3BD1EB68296837
:1013F000224603F0180601EA040C24FA06F6574CBC
:1014000006EA0C060C435440D0F8B0202240324388
:10141000C0F8B020524A934224D191FAA1F2BCF113
:10142000000F4FF08066B2FA82F208BF8A0E511C9C
:1014300006EB8262012601F01E0302F0F84201F081
:101440001F010A2B06FA01F628BF42F000720A2B90
:1014500028BF0A39324301EB410142EA0151AA682F
:1014600003F0C8FA28683F4908426AD03A68EF4D4D
:1014700005F5C06E05F50071AA42734608BF0B461C
:10148000B2F1A04F08BF0B469E68384CA04206F050
:10149000E07C1CBF364CA04221D1300251D43548EB
:1014A000824218BFB2F1A04F4BD1986820F0E07093
:1014B00040EA0C0040F4000098602F4800682F4973
:1014C000B0FBF1F00C2100EB400001EB800001E0EB
:1014D00001980138019001980028F9D131E0F30119
:1014E00017D4274B984214D1B2F1A04F09D0CF485E
:1014F000002382421CBFCE48824223D0AA4218BF9A
:101500007146886820F0E07040EA0C0040F080707E
:1015100016E073024FF0000314D41A4CA04211D10C
:10152000B2F1A04F05D0C14882420AD0AA4218BFEA
:101530007146886820F0E07040EA0C0040F48000BA
:1015400088600023002087F85800D8B202B0BDE8B8
:10155000F08100BFFFFF070000F0FF030000F8FF6D
:1015600000007F400000088000010050000021C3FF
:101570001000C09000060050CC000020400D030079
:10158000000052C7000084CB704770472DE9F04738
:1015900004462068A54F07F5C06807F5007AB842F1
:1015A000414608BF5146B0F1A04F08BF51460268FE
:1015B00043688E6802EA0305A9070DD5E06D10F0B7
:1015C000100F02BFE06D40F40060E0652046FFF7B9
:1015D000AFFA206802210160690706F01F0958BFB1
:1015E0005FEA057151D5214651F85C2F12F0100FBA
:1015F00002BF0A6842F400720A60C26812F4406FC7
:101600003DD107F5806203469042024608BF07F5C8
:101610004072B84208BF4FF0A04282420CD0B9F1EC
:10162000090F00F20081012340F2212603FA09F399
:101630003342034608BF1346DA6812F4005F1ED136
:10164000026812F0080F1AD0826812F0040F0CD151
:10165000426822F00C024260086820F48070086042
:10166000086810F4805F06D009E0E06D04F16001C5
:1016700040F01000E065086840F001000860204676
:10168000FFF782FF20680C210160A90658BF5FEABE
:10169000456130D5214651F85C2F12F0100F02BF82
:1016A0000A6842F400520A60C26C02F4C073C26855
:1016B000E14EB04206D05E4EB042064613D107F569
:1016C000407601E04FF0A046864206460BD0B9F1C5
:1016D000070F00F29080012606FA09F616F0C10FF6
:1016E000064600F08880F668F3B32046FFF72EFC2C
:1016F000206860210160290609D5E06D40F4803042
:10170000E065204600F09EF9206880210160E9052F
:101710000AD5E06D40F40030E0652046FFF70EFD8D
:1017200020684FF480710160A9050AD5E06D40F48E
:101730008020E0652046FFF702FD20684FF400712D
:101740000160E90643D5E16B99B3B9F1000F2AD0E6
:10175000B8424FF4604208BFD046B0F1A04F08BF76
:10176000D04608F1080121E0B30105D502F440623A
:1017700006F400531A43B8D10268B302B5D412F08C
:101780004002B2D0826812F0080F3ED1426822F0C7
:1017900060024260086820F480500860086810F415
:1017A000807FA2D137E000F10C01012209681142CB
:1017B0000BD0E06D40F48060E065206E40F00200E8
:1017C00020662046FFF7E1FE2068102101606905D0
:1017D00058BFBDE8F087E16D41F48041E165216EBD
:1017E00041F0080121664FF4806101602046BDE8A8
:1017F000F047FFF7FDBB904EB04211D00C4EB04207
:10180000064608BF07F540766DE7E06D04F160011C
:1018100040F01000E065086840F00100086064E7EF
:101820004FF0A0465FE7134606E700BF00010050F7
:10183000000500507CB504460020002C019039D0F2
:10184000E06D30B9204600F0FFF80020206684F8F3
:10185000580021688A68744812F0005F1EBF8A68C9
:1018600002408A608A6812F0805F15D18A6800F1B0
:101870008050104040F0805088606C4800686C4A8E
:10188000B0FBF2F0022202EB400001E001980138C7
:10189000019001980028F9D1886810F0805F0BD181
:1018A000E06D40F01000E065206E40F00100206621
:1018B000012002E00120B4E000208A68C2F3800227
:1018C000E36D03F010031343E36D03D043F0100105
:1018D0000120A5E023F4817343F00203E3658B68E4
:1018E00013F0010F29D1534D534E41F48073B3428D
:1018F00003D12B4653F8F8CB07E0D5F80034D5F8E0
:10190000006546EA030C05F5BF639B6843EA0C03D8
:10191000DB0712D105F1F80305F53E76994233460F
:1019200018BF05F5DF63B1F1A04F08BF3346666805
:101930009D6825F47C152E439E60637FE66B46EA26
:101940004333D4E902652B43334394F8246043EADC
:101950000643012E01BFA66A384D05EB46463343C8
:10196000E56A25B105F478763343266B3343CE68B8
:10197000334D2E403343CB600B69666B23F04063DD
:1019800033430B618B68C3F3C0031A433AD194F815
:101990003830227FCE6844F202055B00AE4343EA52
:1019A00082323243CA6022690B694AB143F4803300
:1019B00043F6FF760B61D1F8C030B3431A4307E01A
:1019C00023F4803243F6FF730A61D1F8C0209A43B2
:1019D000C1F8C02094F840300A69012B0FD140F2C1
:1019E000FD7322EA030CD4E91136D4E9135243EA19
:1019F0000C0333432B431A4342F0010201E022F06F
:101A000001020A6163690A6B22F00F02012B02BF17
:101A1000236A013B1A430A630122E16D62F301016B
:101A2000E16502B070BD00BFC0FFFF5FCC000020C9
:101A3000400D030008000050000100500000FEFFB0
:101A40000740F0FF70470000F0B59BB0044616A8B1
:101A50001421FEF727FC01A85421FEF723FC20687F
:101A60006E4D6F4C00F130404FEA3020062800F2F6
:101A7000D380DFE800F00444D1D18CD1AE004FF424
:101A8000004001904FF00050129001A801F06CF955
:101A900008B1FEF7C6FF634801684A1C00290260CE
:101AA00008D1286840F400502860286800F40050ED
:101AB0000090009828680326002740F00100286065
:101AC000286800F0010000900098286840F00200AB
:101AD0002860286816AD294600F0020000900098A2
:101AE000042016904FF090401796189700F098FD3C
:101AF00041F2020016A9C1C1204629463EE04FF43A
:101B0000004001904FF00050129001A801F02CF914
:101B100008B1FEF786FF434801684A1C00290260AD
:101B200008D1286840F400502860286800F400506C
:101B3000009000982868002640F00400286028687B
:101B400000F0040000900098286840F00100286030
:101B50002868032500F001000090009818201690D6
:101B600004F5806016AC17951896214600F058FDD4
:101B7000012016A961C14FF09040214600F050FDB0
:101B800012200221002200F083FF122042E04FF4D5
:101B9000803001904FF00040139001A801F0E4F86C
:101BA00008B1FEF73EFF1F4841684A1C0029426009
:101BB00008D1286840F480402860286800F48040FC
:101BC000009000982F200221002200F061FF2F20BA
:101BD00020E04FF4803001904FF00040139001A8B6
:101BE00001F0C2F808B1FEF71CFF0E4841684A1C1C
:101BF0000029426008D1286840F4804028602868A5
:101C000000F48040009000983E200221002200F065
:101C10003FFF3E2000F02EFF1BB0F0BD4C100240F5
:101C200000040048E800002038B390F8251002298D
:101C300025D1016801230A6822F001020A600A68BE
:101C400022F00E020A60816C0A6822F480720A6037
:101C5000D0E9101202F01F0203FA02F24A60D0E942
:101C600013124A60416D31B10A6822F480720A6031
:101C7000D0E916124A60002104E0012108E00421A5
:101C8000C1630121012280F82520002280F8242050
:101C90000846704790F8251002292ED101680A687D
:101CA00022F001020A600A6822F00E020A60816CCA
:101CB0000A6822F480720A60D0E9102101F01F0343
:101CC000012101FA03F35360D0E913235360426DFD
:101CD00032B1136823F480731360D0E91623536084
:101CE00080F82510002180F82410826B6AB180B53D
:101CF00090470021BDE8804007E004210022C16335
:101D0000012180F8251080F8242008467047B0B5DE
:101D1000D0E910C4DCF80010026804F01F0E13684C
:101D200013F0040F1EBF042404FA0EF414EA010594
:101D30000BD0116811F0200F02BF116821F00401CF
:101D40001160CCF80440016B31E09C0717D50224E8
:101D500004FA0EF414EA010511D0116811F0200FF5
:101D600006D1116821F00A011160012180F82510C7
:101D70000021CCF8044080F82410C16A17E01B074A
:101D800019D5082303FA0EF3194008BFB0BD116836
:101D900021F00E011160012101FA0EF2CCF80420AD
:101DA000C16380F82510002180F82410416B11B127
:101DB000BDE8B0400847B0BDF8B50446002C4CD093
:101DC00020682D492D4B04F1180701F108029042BB
:101DD00038BF03F58063904247F6F07203EB000CC6
:101DE0004FF0140338BFA1F58061BCFBF3F39B00F7
:101DF000C4E91013022184F82510016821EA020CBD
:101E0000D4E90223D4E9041EE0CF42EA0C021A43CB
:101E1000114341EA0E012943314339430160204611
:101E2000FEF774FDA068B0F5804F06BF002060602B
:101E30006068A16C00F07F0201380A600328D4E9D1
:101E400013124A600BD82046FEF78CFD606D00210E
:101E50000160D4E91601416005E001200AE000209C
:101E6000C4E91500E06500200121E06384F8251035
:101E700084F8240001B0F0BD00040240F8FBFDBF6F
:101E800010B5044694F82400012820D0012084F8DD
:101E9000240094F82500012816D1022084F825009A
:101EA0000020E063D4F800C0DCF8000020F001005E
:101EB000CCF800002046FEF76BFD2068226B01681D
:101EC0003AB141F00E010AE0002084F8240002201B
:101ED0001AE021F004010160016841F00A0101608B
:101EE000A16C0A6812F4803F1EBF0A6842F4807237
:101EF0000A60616D19B10A6842F480720A60016873
:101F000041F0010101600020C0B210BDB0B504462F
:101F100000F056FC05460548611C406818BF0444A3
:101F200000F04EFC401BA042FAD3B0BD6C00002074
:101F300090F85C30013BDBB2012B71D810B5006822
:101F400011F0070CD0F858E00EF0010300D01BB3DD
:101F500011F0380F02D01EF002041DD011F4E07F02
:101F600002D01EF0040417D011F4F05F02D01EF06E
:101F7000080411D011F4604F02D01EF010040BD0F1
:101F800011F4403F02D01EF0200405D011F47C0F64
:101F900006D01EF0400403D1C46D44F00104C465B2
:101FA00013B1BCF1000F23D111F0380F18BF1EF090
:101FB00002031DD111F4E07F18BF1EF0040317D1F6
:101FC00011F4F05F18BF1EF0080311D111F4604F37
:101FD00018BF1EF010030BD111F4403F18BF1EF0C4
:101FE000200305D111F47C0F18BF1EF0400303D06D
:101FF000C36D43F00203C3650B06BDE8104042BF4A
:10200000D0F8DC301343C0F8DC30CB0542BFD0F849
:10201000E0301A43C0F8E02000F15402002003E051
:1020200000F160020120022113681943116070471A
:10203000B0B590F85C20013AD2B2012A13D8D1E9A8
:102040000042D1E90253D1E904CEA9078CB1406C1A
:102050004CEA437341EA0E0140F8323000EBC20013
:1020600041600020B0BD016E41F002010166012017
:10207000B0BD006C41EA0E0141EAC36141EA0C4186
:1020800040F822100020B0BD90F85CC0BCF1010FF8
:1020900010D100689200DDF800C042EA011141EA67
:1020A000430150F8802F41EA0C0122F03F020A431D
:1020B000002104E050F8601F41F004020121026099
:1020C0000846704770477047F0B590F85C60022E84
:1020D0001DD1D0F800E040291DD1DEF8906016F047
:1020E0000F0F7BD0DEF89040C4F3012CDEF8905047
:1020F00015F0807F08D0DEF8806016F4007F1EBFE8
:10210000260A013606F0030C00F148061CE0016EB9
:1021100041F0080165E0DEF8986016F00F0F5DD021
:10212000DEF89840C4F3012CDEF8985015F0807F5B
:1021300008D0DEF8806016F4807F1EBF260A0136C4
:1021400006F0030C00F14C0636680CEBCC05264F6C
:1021500056F8354014F08044546056F835E0CEF31C
:102160008A4418BF2EF06044146056F8354004F0DD
:102170000054946056F8354004F00044146106EBB6
:10218000C504A688D661E68806F00F0EC2F80CE0FA
:10219000656805F480155561656805F4001595615D
:1021A000E57905F07F05156265680834ED0F556225
:1021B000002504E0665D5E550135D2F80CE017F8A5
:1021C0000E60B542F6D30068402900F19C0208BFBA
:1021D00000F194020020C2F800C0F0BD016E41F48D
:1021E000807101660120F0BD3082000870472DE942
:1021F000F04F85B004462068016D426DD0F85090D4
:10220000D0F854A0D0F850B0D0F8548001EA0205BC
:10221000016D0491416D0391016D0291416D019138
:10222000416D026D01EA0207790604D5402101657E
:102230002046FFF7DBFF09EA0A0605F4E055F8053A
:102240000BD520684FF48073D0F8D810D0F8E02078
:1022500003652046114000F0DEF908EA0B0806F09D
:1022600007062DB1206829460565204600F0D5F9FE
:1022700008F038052EB1206831460665204600F08A
:10228000A9F92DB1206829460565204600F0AAF974
:10229000B80506D520684FF400710165204600F0AE
:1022A000BDF938060AD520688023D0F8D410D0F8BC
:1022B000DC2003652046114000F0AEF9B80406D5D5
:1022C00020684FF400510165204600F0A3F9DDE9D4
:1022D000011000EA0105380406D520684FF40041DA
:1022E0000165204600F095F9DDE903107A0400EA63
:1022F000010005F4602107D522684FF4804313657F
:10230000226E42F08002226600F4710521B120683D
:1023100001652046FFF7D7FE3DB1206805652046E0
:1023200050F8601F2943016001E004F1600000687B
:1023300028B1204605B0BDE8F04FFFF7C3BE05B099
:10234000BDE8F08FF8B50446DCB194F85C0028B91C
:10235000002084F85D00204600F0F0F820688169D4
:1023600021F01001816100F02BFA05462068816997
:1023700011F0080F07D000F023FA401B0B28F5D30B
:1023800012E00120D6E0816941F00101816100F095
:1023900017FA05462068816911F0010F0BD100F092
:1023A0000FFA401B0B28F5D3206E032140F00100EB
:1023B00020660120BCE0816941F002018161834F08
:1023C000B84204BF6268C7F80021227C836943F0E9
:1023D0004005012A08BF23F040058561627C8369BE
:1023E00023F48045012A08BF43F480458561A27C1F
:1023F000836943F48055012A08BF23F48055856121
:102400008369D4F808C023F4407343EA0C03836162
:10241000836923F0A4038361036923F0100303613C
:10242000E368ABB1012B03D1836943F004030EE0F1
:102430008569022B09D045F08005032B856105696C
:1024400045F01005056103D1856945F020038361DE
:10245000D4E90553D4E907214FF07E46BCF5407F0F
:1024600006EB43666FF0FF03A1F1010103EB0222CB
:1024700042EA060241EA02012F4A02EB054241EA22
:102480000201C16111D1D4E909C2D4E90B656FF031
:102490000F0103EB0623013A01EB05111A43114327
:1024A000254A02EB0C421143C160E16BD0F8C02019
:1024B000114307F58042C0F8C01007F580618842DB
:1024C00007F5006104BF4AF25072C4F2000288426C
:1024D00008BF02F5D4622264D0F88010636B21F447
:1024E000F81141EA0341C0F8801002F17001616403
:1024F000D0F88010A36B21F0706141EA0361C0F84D
:10250000801002F1B0000021A06402F5C470E06404
:1025100002F51870206502F51E70606502F55470B2
:1025200000E002C28242FCD300200121A0652066A7
:1025300084F85C1001B0F0BD0000FFFF10B59CB046
:10254000044617A81421FDF7ADFE02A85421FDF79B
:10255000A9FE20681D49884236D14FF48050029070
:102560004FF00070109002A800F0FEFB08B1FEF7DB
:1025700058FA1748C16841F00071C160C16801F0A4
:10258000007101910199016841F00101016017A9F1
:10259000006800F00100019001984FF4C0501790BE
:1025A000022018900020199003201A9009201B90F7
:1025B0004FF0904000F034F815200321002200F085
:1025C00067FA152000F056FA1CB010BD00640040F8
:1025D0004C100240024B402103F13402FFF774BD5E
:1025E000F0000020704790F85C1001290AD1022108
:1025F00080F85C1001688A6922F001028A6100217A
:10260000016604E0016E41F0040101660121084603
:1026100070477047704770477047704770470000B9
:102620002DE9F84F5C4A4FF0060E4FF0000A4FF0CC
:1026300003094FF0000C0026904200F138424FEAA7
:10264000B22308BF4FF0050E052B38BF4FEAB22E5C
:102650000A6832FA06F308BFBDE8F88F0123B340D9
:1026600012EA030B00F091804C6804F00302571E3D
:10267000012F16D8D0F8088009FA0CF728EA0708C5
:10268000CF6807FA0CF747EA08078760C4F300171A
:1026900007FA06F8476827EA030343EA080343609A
:1026A00005E0032A03D18B68012B01D11DE08B6863
:1026B000C56809FA0CF703FA0CF3022A25EA0705A4
:1026C00043EA0503C36010D1344C0AF01C020F2307
:1026D000934004EA56040444256A25EA03030D697D
:1026E00005FA02F21A4322624C68056804F00302FC
:1026F00009FA0CF314F4403F02FA0CF225EA030342
:1027000042EA0302026040D0254A0AF00C070F2576
:10271000BD400EFA07F7136843F00103136026F07B
:102720000303126802F0010200921E4A009C1E4C34
:10273000134453F8048028EA05053D431D5193686E
:102740004C6823EA0B0314F4801F18BF43EA0B0301
:1027500014F4001F9360154B1D6825EA0B0518BF84
:1027600045EA0B0514F4003F1D60536823EA0B0390
:1027700018BF43EA0B0314F4803F5360136823EA45
:102780000B0318BF43EA0B0313600AF1040A0CF1B0
:10279000020C01365CE700BF00140048FCFFFF7F1D
:1027A000601002400004014008FCFFFF0C040140DF
:1027B00000F12803002A18BF00F1180319607047C0
:1027C00072488068704700BF90F84120202A03D1EA
:1027D00090F84020012A01D1022118E0242280F83B
:1027E00041200268136823F001031360136823F487
:1027F00080531360136819431160116841F001019F
:102800001160202180F84110002180F84010C8B2EA
:10281000704790F84120202A03D190F84020012AE7
:1028200001D1022117E0242280F8412002681368B8
:1028300023F001031360136823F4706343EA01215A
:102840001160116841F001011160202180F84110F0
:10285000002180F84010C8B27047000010B504464F
:10286000002C4BD094F8410028B9002084F8400097
:10287000204600F047F824204FF4044384F8410038
:102880002068016821F001010160616821F0706138
:102890000161816821F400418160D4E90212012ABA
:1028A00008BF4FF40043022A41EA030181604168F6
:1028B00021F4006308BF41F40063436004F1100396
:1028C00041680F4A11434160C16821F40041C16071
:1028D0000ECB114341EA0321C160D4E90712114331
:1028E0000160016841F00101016000202021606465
:1028F00084F84110206384F8420010BD012010BD0F
:1029000000800002B0B59CB0044617A81421FDF762
:10291000C9FC02A85421FDF7C5FC2068174988426C
:1029200029D140200024029002A8099400F01CFA4A
:1029300008B1FEF776F8CD4D17A9286840F00200DF
:102940002860286800F00200019001984FF4407060
:1029500017901220CDE9180404201A941B90C44843
:10296000FFF75EFEE86840F40010E860E86800F4F5
:102970000010019001981CB0B0BD00BF0054004091
:102980000248416882681144816070476C000020F1
:1029900080B5032000F0A8F80F2000F007F808B178
:1029A000012080BD00F046F8002080BDB0B586B0A3
:1029B00004462F48016841F0200101606946006823
:1029C00000F020000190019801A800F007FC00F041
:1029D00023FC1549154A0A6040F2E732CA60DD4A15
:1029E000B0FBF2F0013848600020086188600846BA
:1029F00001F07FF805469DB90B4801F0EDF805465A
:102A000075B9372000F036F80F2C08D8372021464A
:102A10000022002500F03CF80548046000E0012594
:102A2000284606B0B0BD00BF3C090020001400409D
:102A30006C000020E0B50E480022816841F00101E1
:102A40008160816801F0010101910199016841F003
:102A5000805101600F21006800F0805000900098C4
:102A60006FF0010000F014F8BDE88C4000F074B97C
:102A700058100240002808DB00F01F010122400925
:102A800002FA01F1014A42F82010704700E100E02B
:102A9000B0B5144C1A4D00F00F03B0F1FF3FA3F195
:102AA00004032B4403F10C03C8BF03192868C0F3C7
:102AB0000220051DC41E80F00700072D4FF0010500
:102AC00038BF0024042828BF042005FA00F001388C
:102AD000084005FA04F10F31A040114008430001FD
:102AE0001870B0BD00E400E005494FF6FF030A6826
:102AF0001A4060F30A22034810430860704700BF81
:102B00000CED00E00000FA05BCB504463CB194F8B9
:102B10003A0005281CBF94F83A00022801D1012090
:102B200058E02D48016841F001010160006800F0A3
:102B300001000190019894F83A0010B9002084F83F
:102B40003900204600F04CF8A168E26A41F020000C
:102B5000602809D1206804F10801036823F01003FC
:102B60001A430260626809E02068036823F01003DA
:102B70001A43026062680A4304F10C010368174DAE
:102B80000968114322692B4019431143D4E90923F1
:102B90001143227D012A08BF41F480711943D4E911
:102BA0000C2341EAC24141EA0361016081690029C5
:102BB00009DB816904F118052CCD21F03F01114397
:102BC00019432943816194F83A0010B9012084F82F
:102BD0003A00002002B0B0BD60100240113E00E09B
:102BE00010B586B0044601A81421FDF75BFB2268EE
:102BF0001E491F481F4B9A4218D01F4B9A4221D0A2
:102C00001E48824230D1086840F001000860086820
:102C100001A900F00100009000980A200190032013
:102C20000290002003904FF090401BE00A6842F0B1
:102C300002020A60096801F00201009100994FF454
:102C4000406109E00A6842F002020A60096801F086
:102C500002010091009905210191032102910021B7
:102C6000039101A9FFF7DCFC06B010BD4C10024037
:102C7000000400480C030140080301400003014028
:102C800088B190F83A1005290DD090F83A10012932
:102C900009D101680A6842F001020A60042180F843
:102CA0003A1000207047012070470000D54910B34A
:102CB0000A68B0F5007F43D1D1F8800040F48070FD
:102CC000C1F8800002F4C060B0F5806F3CD10868A4
:102CD000012262F34A20322208601D4800685043F6
:102CE0001C4AB0FBF2F0C0434A6918B3013012F439
:102CF0008062F9D11EE00868D1F8802000F4C0603D
:102D000022F48072B0F5806FC1F880201CD1086871
:102D1000012262F34A20322208600D4800685043C5
:102D20000C4AB0FBF2F0C0434A6918B1013012F40A
:102D30008062F9D1486910F4806F05D0032004E067
:102D4000022060F34A220A600020C0B2704700BF30
:102D5000CC00002040420F000248016841F480414D
:102D600001607047087000402DE9FC410446A078DE
:102D7000A34E000701D4002060E0F06CA14F10F0DA
:102D8000805F0BD1F06C4FF0010840F08050F06490
:102D9000F06C00F080500190019801E04FF00008C5
:102DA000386840F480703860FFF70AFD05463868DF
:102DB00010F4807F06D1FFF703FD401B0228F6D9EF
:102DC000032034E0D6F8840010F4407026D0216D42
:102DD000884211D0D6F88400D6F8841041F48031AE
:102DE00020F44070C6F88410D6F8841021F48031A5
:102DF000C6F88410C6F88400C0070FD0FFF7E0FCC7
:102E0000054641F28837D6F8840010F0020F05D14C
:102E1000FFF7D6FC401BB842F5D9D1E7D6F88400BD
:102E2000216D20F440700843C6F884000020B8F1FA
:102E3000010F02BFF16C21F08051F164216811F0A3
:102E4000010F05D0F26F636822F003021A43F267A4
:102E50008A0705D5F26FA36822F00C021A43F267C5
:102E60004A0705D5F26FE36822F030021A43F26791
:102E70000A0705D5F26F236922F0C0021A43F267F0
:102E8000CA0605D5F26F636922F440721A43F267ED
:102E90008A0605D5F26FA36922F440621A43F267ED
:102EA0004A0605D5F26FE36922F440521A43F267ED
:102EB0000A0605D5F26F236A22F440421A43F267EC
:102EC000CA0505D5F26F636A22F440321A43F267ED
:102ED0008A0307D5D6F89020A36A22F003021A438A
:102EE000C6F890208A0505D5F26FE36A22F44022E5
:102EF0001A43F2674A050DD5F26F236B22F4401294
:102F0000B3F5801F42EA0302F26702BF326842F45F
:102F1000801232600A050DD5F26F636B22F4400215
:102F2000B3F5800F42EA0302F26702BF326842F44F
:102F300080123260CA040DD5F26FA36B22F040728A
:102F4000B3F1807F42EA0302F26702BF326842F4C3
:102F5000801232608A040DD5F26FE36B22F040627A
:102F6000B3F1006F42EA0302F26702BF326842F433
:102F7000801232604A040DD5F26F236C22F0406259
:102F8000B3F1006F42EA0302F26702BF326842F413
:102F9000801232600A040DD5F26F636C22F0405249
:102FA000B3F1805F42EA0302F26702BF326842F483
:102FB00080323260CA030DD5F26FA36C22F040421A
:102FC000B3F1804F42EA0302F26702BF326842F473
:102FD0008032326049030FD5D6F89010E26C21F4AC
:102FE0004011B2F5001F41EA0201C6F8901002BF7D
:102FF000316841F480113160C0B202B0BDE8F081A7
:103000000C100240007000402DE9F04781468A46CE
:10301000B9F1000F4AD06D4F4FF48050395801F08C
:103020000F0151450AD2395821F00F0141EA0A0136
:103030003950385800F00F00504537D1D9F800000A
:1030400010F0010F02D14FF000085CE0D9F8041035
:103050005F4E032925D1396811F0007F26D0F96829
:103060000225F968FA68FB68C3F34163C1F30311F1
:103070008D4CC2F30622013105EB4303B4FBF1F1A1
:103080005143B1FBF3F1B14208D9B96811F0F00F27
:1030900016D0800702D5D9F8080088B14FF0000893
:1030A00015E03868022905D1800305D40120C0B29B
:1030B000BDE8F0874005F9D500F0CAF8B042EDD977
:1030C000B86808214FF0800861F30710B860B8684D
:1030D000D9F8041020F003000843B860FFF770FB34
:1030E000064641F28834B868D9F8041000F00C00A4
:1030F000B0EB810F05D0FFF763FB801BA042F2D934
:103100003AE0D9F80000810706D4B8F1800F17D152
:10311000B96821F0F00112E0410742BFB96841F4FB
:10312000E061B960010741BFB968072262F30D2170
:10313000B960B968D9F8082021F0F0011143B960ED
:103140004FF48054395901F00F01514518D93859BD
:1031500020F00F0040EA0A003851FFF731FB064625
:1031600041F28835385900F00F00504506D0FFF77E
:1031700027FB801BA842F5D9032098E7D9F8000067
:10318000410706D5B968D9F80C2021F4E061114354
:10319000B960000707D5B868D9F8101020F460505E
:1031A00040EAC100B86000F053F8B968094AC1F3B9
:1031B0000311515C01F01F01C84023490860064813
:1031C0000068BDE8F047FFF7F1BB00BF0010024008
:1031D00000B4C404DC8100086C0000200F220260EF
:1031E000304A136803F003034360136803F0F003ED
:1031F0008360136803F4E063C3604FF4E063126814
:1032000003EAD20202610348006800F00F00086080
:10321000704700BF002002400B480C4A006821495B
:103220000968C1F30221515C01F01F01C8407047D9
:103230000548064A00681B490968C1F3C221515C70
:1032400001F01F01C8407047CC000020EC8100084D
:103250001449086800F00C021348042A08BF70479C
:103260000A6802F00C02082A1AD00A6802F00C025E
:103270000C2A1CBF002070474A6802234A68D1F814
:1032800004C04968C1F34161C2F30312013203EB88
:103290004101B0FBF2F0CCF306225043B0FBF1F059
:1032A000704700BF081002400024F4002DE9F843E5
:1032B0008146B9F1000F00F0D98199F80000C84E9D
:1032C000C84FC00722D199F8000080074FD499F861
:1032D0000000000740F1AB80D9F81410D7F8900037
:1032E000002900F0928040F00100C7F89000FFF73D
:1032F00067FA0546D7F8900010F0020F40F097806B
:10330000FFF75EFA401B0228F4D9E0E0786800F08D
:103310000C01B868082954D000F003000C390338B8
:10332000B1FA81F1B0FA80F049094009084001285A
:1033300047D0D9F80440B4F5803F07D03068B4F5E1
:10334000A02F40F0E18040F480203060306840F4ED
:1033500080303060FFF734FA0546306810F4003FE3
:10336000B1D1FFF72DFA401B6428F6D9AFE0786899
:1033700000F00C01B86804292ED000F003000C39CD
:103380000238B1FA81F1B0FA80F0490940090840E9
:10339000012821D0D9F80C103068002900F099805C
:1033A00040F480703060FFF70BFA0546306810F487
:1033B000806F40F0A080FFF703FA401B0228F5D988
:1033C00085E0306810F4003F3FF47DAFD9F8040089
:1033D00000287FF478AF49E1306810F4806F04D0A2
:1033E000D9F80C00002800F041813868D9F8101095
:1033F00020F0FE4040EA01603860CD480068FFF7E9
:10340000D5FA002840F0328161E720F00100C7F8CA
:103410009000FFF7D5F90546D7F8900010F0020F9D
:1034200005D0FFF7CDF9401B0228F5D94FE099F8F8
:103430000000400740F1A580786D10F0805F0BD14F
:10344000786D4FF0010840F080507865786D00F09D
:1034500080500090009801E04FF00008B5483058C7
:1034600010F4807F12D1B348315841F4807131504B
:10347000FFF7A6F90546AF48305810F4807F05D114
:10348000FFF79EF9401B0228F5D920E0D9F8084043
:10349000012C07D0D7F88C00052C4ED140F0040049
:1034A000C7F88C00D7F88C0040F00100C7F88C00FA
:1034B000FFF786F9054641F28834D7F88C0010F002
:1034C000020F57D1FFF77CF9401BA042F5D903202A
:1034D000CDE020F480703060FFF772F90546306867
:1034E00010F4806F3FF4F3AEFFF76AF9411B03203D
:1034F0000229F4D9BBE03868D9F8101020F0FE405A
:1035000040EA01603860E2E620F4803030603068E4
:1035100020F480203060FFF753F90546002C7FF43B
:103520001CAF306810F4003F3FF4CDAEFFF748F910
:10353000411B03206429F4D999E020F00100C7F869
:103540008C00D7F88C0020F00400C7F88C00FFF73F
:1035500037F90546002CAED141F28834D7F88C00FB
:1035600010F0020F06D0FFF72BF9411B0320A142F8
:10357000F4D97CE0B8F1010F02BF786D20F08050E3
:10358000786599F8000080062ED5D9F81810D7F87C
:10359000940091B140F00100C7F89400FFF710F9D2
:1035A0000546D7F8940010F0020F1DD1FFF708F977
:1035B000411B03200229F4D959E020F00100C7F88B
:1035C0009400FFF7FDF80546D7F8940010F0020FBD
:1035D0000AD0FFF7F5F8411B03200229F4D946E091
:1035E0000010024004100240D9F81C40002C00F0EA
:1035F0009D80786800F00C000C283CD1012C35D05F
:10360000B868D9F8201000F003028A422ED1D9F808
:1036100024106FF00F0202EB011100F0F0028A4259
:1036200024D1D9F8281000F4FE42B2EB012F1DD1AD
:10363000D9F82C1000F07842B2EBC16F16D1D9F84E
:1036400030103F4A02EA015100F4C002A1F5001116
:103650008A420BD1D9F834104FF07E4200F0C0609E
:1036600002EA016101F17E4188425FD00120C0B2CF
:1036700001B0BDE8F083306820F080703060FFF763
:103680009FF80546022C0AD1306810F0007F11D057
:10369000FFF796F8411B03200229F5D9E7E73068C8
:1036A00010F0007F3ED0FFF78BF8411B032002296A
:1036B000F5D9DCE709F12005B8686FF00F042ECDCD
:1036C00004EB02121D4C20400843D9F8301010437F
:1036D0001B4A40EA032002EA01514FF07E42A1F565
:1036E00000110843D9F8341040EAC56002EA0161CC
:1036F00001F17E410843B860306840F0807030606E
:10370000B86840F08070B860FFF75AF80446306837
:1037100010F0007F0AD1FFF753F8011B03200229A4
:10372000F5D9A4E7B86804490840B86000209EE7CE
:103730006C0000200060FEFFFCFFEEFE0C809F018D
:103740000000E0FFB0B5044634B1606A30B100203B
:10375000206104F1140007E00120B0BD6068B0F5FD
:10376000827F03D004F11C00002101600020A062D0
:1037700094F85D1021B984F85C00204600F054F8FC
:1037800002204FF4805E84F85D002068016821F01B
:1037900040010160D4F80CC0BCF5E06F4CF400634C
:1037A00088BF4FF0000EB3F5706F1CBF0023A362FB
:1037B000D4E90131D4E9042503F4827301F404410E
:1037C00002F002021943114305F001021143A269FC
:1037D00002F400731943E36903F038031943236AC1
:1037E00003F080031943A36A03F4005319430160F3
:1037F000042101EA1241626A636B02F0100242EA9C
:103800000E02114303F0080211430CF470621143DD
:103810004160C16921F40061C1610020012120667D
:1038200084F85D10B0BD000010B586B0044601A854
:103830001421FCF737FD21682348244A914222D005
:10384000234A91423ED1416941F48051416141692D
:1038500001F4805100910099016841F0010101607B
:1038600001A9006800F0010000900098E02001909C
:103870000220029000200390032004900520059070
:103880004FF090401CE0C16841F40041C160C16844
:1038900001F4004100910099016841F002010160CA
:1038A00001A9006800F00200009000983820019003
:1038B000022002900020CDE9030006200590054873
:1038C000FEF7AEFE06B010BD4C100240003C0040BA
:1038D0000030014000040048704770477047000006
:1038E00090F83C20012A01D102214CE070B5012260
:1038F00080F83C20D1E900C3D1E902E4234A03EA7D
:10390000020524F47C542EF47053234302F5C05472
:103910002B4302F5006505EA0C052B430D69254094
:103920002B434D692B4302F5605502F5F0422B40C5
:103930000D6B2A401A43CB691A438B69144C04EA75
:10394000034313430268C24CA2421CBFC24CA242B2
:1039500002D0C04CA24210D10E4CD1E9085C2340E9
:10396000D1E90A410C4E06EA0456334325F00856C5
:1039700033432CF0005633430B430021536480F84B
:103980003C10BDE87040C8B2704700BFFF87F0EF41
:103990000000FFEFFFFF0FDC0000F0DC7047704716
:1039A0007047000090F83C300222012B42D010B545
:1039B000012380F83C3080F83D2002685368D2F83B
:1039C00008C0A34CA2421CBFA34CA24202D0A14CEF
:1039D000A24203D14C6823F470032343164CB2F186
:1039E000804F03EA04030C6843EA04035360BDE814
:1039F000104014D0934B9A421CBF934B9A420ED066
:103A0000924B9A421CBF924B9A4208D0914B9A42D9
:103A10001CBF914B9A4202D0904B9A4204D18968C4
:103A20002CF08003194391600121002280F83D10A1
:103A300080F83C20D0B270478FFFFFFD39B10322E0
:103A4000082908BF0222042908BF012200E0002241
:103A5000024492F84420012A1CBF01207047022230
:103A600041B1082909D0042914BF80F8472080F803
:103A7000452004E080F8442001E080F8462001F071
:103A80000F0104228A400168086AB1F1804F20EAE0
:103A900002000862086A40EA02000862486C40F4CA
:103AA0000040486414D0674881421CBF6648814288
:103AB0000ED0664881421CBF6548814208D06548E7
:103AC00081421CBF6448814202D06448814209D1CE
:103AD0008868634A02400020062A18BFB2F5803F7A
:103AE00000D17047086840F001000860002070476E
:103AF000704710B5044654B394F83D0028B900202F
:103B000084F83C00204600F025F80220211D84F8AE
:103B10003D00206801F034FD012084F8480084F85D
:103B20003E0084F83F0084F8400084F8410084F8A7
:103B3000420084F8430084F8440084F8450084F887
:103B4000460084F8470084F83D00002010BD0120A5
:103B500010BD0000E0B501681E483E4A91421ED0EB
:103B60003B4A914218BF8CBD0168002241F40061BC
:103B700001600121006800F40060019001981820A4
:103B8000FEF786FF1820FEF775FF1920012100229D
:103B9000FEF77EFF1920BDE88C40FEF76BBF016881
:103BA000002241F4005101600121006800F400503E
:103BB000009000982B20FEF76BFF2B20FEF75AFF9A
:103BC0002C2001210022FEF763FF2C20BDE88C4051
:103BD000FEF750BF6010024090F83D1001291CBF55
:103BE00001207047022180F83D100168C868B1F1DA
:103BF000804F40F00100C86014D0124881421CBFC1
:103C0000114881420ED0114881421CBF10488142A8
:103C100008D0FD4881421CBF0F48814202D00F48A6
:103C2000814208D188680E4A02400020062A18BF47
:103C3000B2F5803F04D0086840F001000860002021
:103C4000704700BF0004004000080040000C004026
:103C5000002C014000340140005001400040014070
:103C600007000100B0B50446022094F83C20012A68
:103C700054D0012284F83C2084F83D0020688268FA
:103C8000404B1A4082600A683F4DD2B3102A38D0A8
:103C9000202A18BF302A34D0402A43D0502A66D078
:103CA000602A4AD0394B9A422BD0B2F5805F2ED091
:103CB000B2F5005F4CD0B2F5801F22D0B2F1101FD8
:103CC0001CBF334B9A421CD0324B9A421CBF324B22
:103CD0009A4216D0314B9A421CBF314B9A4210D0B7
:103CE000702A1DD1D1E90123C9681A4342EA012192
:103CF000826822F47F4211438160816841F077013C
:103D000004E081682940114341F0070181600020EF
:103D1000012184F83D10002184F83C10C0B2B0BDF0
:103D20000120F5E74B68CA68194601F007FE2068D4
:103D30008168294041F04701E8E74B68CA681946A5
:103D400001F024FE20688168294041F06701DDE729
:103D5000D1E90123C9681A4342EA0121826822F4A9
:103D60007F4211438160816841F48041CEE74B6816
:103D7000CA68194601F0E2FD20688168294041F0D7
:103D80005701C3E78800CEFF88FFCFFF7000100007
:103D90002000100030001000400010005000100003
:103DA0006000100070470000F8B504462068C7683E
:103DB000066907EA0605A90714D56FF0020101613B
:103DC00001212177806910F0030F03D02046FFF70F
:103DD000E9FF05E0204600F019F9204600F0EFF970
:103DE00000202077680715D520686FF00401016175
:103DF00002212177806910F4407F03D02046FFF72D
:103E0000D1FF05E0204600F001F9204600F0D7F987
:103E100000202077280715D520686FF00801016180
:103E200004212177C06910F0030F03D02046FFF76B
:103E3000B9FF05E0204600F0E9F8204600F0BFF9A0
:103E400000202077E80615D520686FF01001016189
:103E500008212177C06910F4407F03D02046FFF786
:103E6000A1FF05E0204600F0D1F8204600F0A7F9B8
:103E700000202077E80706D020686FF0010101617B
:103E8000204600F043FA17F0800718BF16F40250DE
:103E900005D02068214901612046FFF71EFD47B18A
:103EA00016F4807005D020681D4901612046FFF797
:103EB00013FD680606D520686FF0400101612046B9
:103EC00000F066FAA80606D520686FF020010161AF
:103ED0002046FFF703FDE80205D52068114901617E
:103EE0002046FFF75CFDA80205D520680E49016158
:103EF0002046FFF753FD680205D520680B49016194
:103F00002046FFF74DFD280258BFF8BD206808493C
:103F100001612046BDE8F840FFF7EABD7FDFFFFF03
:103F2000FFFEFFFFFFFFEFFFFFFFDFFFFFFFBFFF12
:103F3000FFFF7FFF2DE9F04387B0044602A814215C
:103F4000FCF7B0F921682E482E4CEC4A91423BD048
:103F5000E94A914250D10168DFF8A09F02AD0226E4
:103F600000274FF0060841F002010160016801F0EE
:103F7000020101910199016841F0010101602946A6
:103F8000006800F00100019001984FF4C0400290D9
:103F900020460396CDE90477CDF81880C8474FF442
:103FA000004002A9C1C10420059706902046294679
:103FB000C8474FF4E06002A9C1C14FF09040CDE97D
:103FC00005782946C84717E0016841F004010160FF
:103FD00002A9006800F00400019001984FF4EE502F
:103FE0000290022003900020CDE9040004200690F6
:103FF00004F58060FEF714FB07B0BDE8F08300BF56
:104000004C10024000040048003401407047B0B535
:1040100004460D4634B394F83D0028B9002084F8D6
:104020003C00204600F020F80220211D84F83D00CD
:10403000206801F0A5FA2068016821F008010160FC
:10404000016829430160012084F8480084F83E009B
:1040500084F83F0084F8440084F8450084F83D006B
:104060000020B0BD0120B0BD0068A549884218BF3E
:104070007047E0B509480022016841F480310160D1
:104080000121006800F48030019001981820FEF7AB
:10409000FFFC1820BDE88C40FEF7ECBC601002402D
:1040A000B0B504460D4694F83C00012801D1022029
:1040B00052E04FEAB2010120052984F83C0048D8BB
:1040C000DFE801F0030B131B23332068294601F0BE
:1040D000C5FA206850F8181F1EE02068294601F034
:1040E000FDFA206850F8181F26E02068294601F0E4
:1040F00037FB206850F81C1F0EE02068294601F0AD
:1041000073FB206850F81C1F16E02068294601F058
:10411000B5FB206850F8501F41F0080101600168AC
:1041200021F00401016029690FE02068294601F0AF
:10413000D5FB206850F8501F41F400610160016810
:1041400021F480610160296909020268114301605C
:104150000020002184F83C10C0B2B0BD10B5044668
:1041600054B394F83D0028B9002084F83C00204660
:1041700000F024F80220211D84F83D00206801F0A1
:10418000FFF9012084F8480084F83E0084F83F00DD
:1041900084F8400084F8410084F8420084F8430029
:1041A00084F8440084F8450084F8460084F8470009
:1041B00084F83D00002010BD012010BD70477047FD
:1041C00071B180B50B1F4FF0010C05224FEAB30E01
:1041D000BEF1040F38BF0CEBB302BDE8804000E035
:1041E0000022024492F83E20012A1CBF01207047A1
:1041F00061B10A1F4FEAB202032A0BD8DFE802F0CE
:10420000020E1216022280F83F2012E0022280F8ED
:104210003E200EE0022280F843200AE0022280F8CD
:10422000402006E0022280F8412002E0022280F8CD
:10423000422001F01F01012202FA01F30168086A1D
:1042400098430862086A18430862274808444FEAFE
:10425000B02007282FD802FA00F010F0E50F2AD07E
:10426000486CB1F1804F40F40040486414D01F48BE
:1042700081421CBF1E4881420ED01E4881421CBF95
:104280001D48814208D01D4881421CBF1D48814203
:1042900002D01B48814208D188681B4A0240002096
:1042A000062A18BFB2F5803F04D0086840F001002C
:1042B000086000207047B1F1804FEDD00B4881427B
:1042C0001CBF0B488142E7D00A4881421CBF0A4804
:1042D0008142E1D0094881421CBF09488142DBD0BC
:1042E00008488142BCD0E0E700D4FEBF0004004093
:1042F00000080040000C0040002C01400034014048
:104300000040014000500140070001001CB5044678
:1043100020681849884208BFFEF732FB16488442DD
:1043200018BF1CBD154CDFED180A20680190144819
:10433000017801310170017890ED010A0E481149B0
:1043400091ED001A91ED032A31EE021A02F00EFDF2
:1043500002F03EFEBFF34F8F206800900B4801999A
:10436000016000994160009981600099019A891A61
:10437000C1601CBD00140040A4080020041000E02F
:1043800010000020880000200000000054010020E0
:10439000704790F88410012901D1022112E02421F4
:1043A000C0F8881002681368116821F0010123F039
:1043B000005311600021416613602022C0F888205C
:1043C00080F88410C8B2704770477047B0B5044693
:1043D00094F88400012801D102201BE0012084F818
:1043E00084002420C4F8880020680568026822F050
:1043F00001020260826822F06062114381602046FF
:1044000001F0EAFA206805602020C4F88800002046
:1044100084F88400C0B2B0BDB0B5044694F88400FE
:10442000012801D102201BE0012084F8840024200F
:10443000C4F8880020680568026822F00102026062
:10444000826822F0604211438160204601F0C4FA84
:10445000206805602020C4F88800002084F88400CB
:10446000C0B2B0BD7047704770470000B0B5044699
:1044700040F62F012068C26902EA01030168D0F802
:1044800008E0202B0DD101F020030EF080552B43C6
:1044900007D0616F002900F07F812046BDE8B04061
:1044A000084740F60F0313401FBFBC4B0B40BC4DE9
:1044B0000EEA050C18BF53EA0C0344D0D3070BD007
:1044C00011F480731FBF01230362D4F8903043F0CE
:1044D000010318BFC4F890300EF00105930708D50A
:1044E0003DB102230362D4F8903043F00403C4F8D2
:1044F0009030530708D53DB104230362D4F89030BF
:1045000043F00203C4F8903013070DD501F02003E7
:1045100053EA0C031FBF08230362D4F8903043F022
:10452000080318BFC4F8903013054ED511F080630E
:104530004BD04FF400632546036255F8903F43F09B
:1045400020032B6043E002EA0105EB06E36E7DD514
:10455000012B7BD110210162816811F0400F40F0E6
:104560008780B4F85C10B4F85E20B4F85E30002B9D
:1045700000F01281891A89B209B90DE1206850E86A
:10458000000F226820F4907042E80003002BF5D160
:10459000206850E8020F844A1040226842E8020373
:1045A000002BF5D12020C4F88C000020E066606765
:1045B000206850E8000F226820F0100042E8000355
:1045C000002BF5D1022020679DE004F190052B68B7
:1045D000002B00F0E18012F020020BD001F020014E
:1045E0000EF0805211431CBF616F002902D020469B
:1045F000884720682968806801F0280100F04000A1
:10460000084300F09080204601F036FB2068816866
:1046100011F0400F01D126E0206850E8020F216818
:1046200020F0400041E80202002AF5D1D4F88000D1
:10463000C8B15C498163FDF72DFB002800F0AC8018
:10464000D4F88000816BBDE8B0400847D3025FD545
:104650001EF480035CD04FF4801101622046BDE857
:10466000B040FFF700BF2046BDE8B040FFF7FCBEFA
:10467000D4F880100B685D68B4F85C20A9B20029FA
:1046800078D0914276D2A4F85E50196811F0200FCC
:1046900001D032E0206850E8000F216820F48070DB
:1046A00041E80002002AF5D1206850E8020F216895
:1046B00020F0010041E80202002AF5D1206850E80C
:1046C000020F216820F0400041E80202002AF5D1E3
:1046D0002020C4F88C000020E066206850E8000F1D
:1046E000216820F0100041E80002002AF5D1D4F83A
:1046F0008000FDF799FAB4F85C2002202067B4F836
:104700005E00101A81B22046BDE8B040FFF75CBEE3
:1047100013060FD501F0800C0EF4000353EA0C03CE
:1047200008D0A16FB6E62046FFF79EFE0020C4F831
:10473000900031E06B060AD4100223D511F08040BE
:1047400020D02046BDE8B040FFF78CBE206850E87E
:10475000000F216820F0400041E80002002AF5D156
:104760002020C4F888000020A0672046BDE8B040A3
:1047700000F024B98A420FD1186810F0200F7FF49E
:1047800021AF09E0D00107D5B1F1FF3F04DC20469D
:10479000BDE8B040FFF719BEB0BD00BF2001000466
:1047A00001000010C55B0008FEFFFFEF10B50446D6
:1047B000D4B1D4F8880028B9002084F884002046B9
:1047C00000F026F82420C4F888002068016821F051
:1047D00001010160A06A10B1204601F02BF92046CA
:1047E00001F08CFA012801D1012010BD2068416838
:1047F00021F490414160816821F02A0181600168C3
:1048000041F0010101602046BDE8104001F07CB993
:10481000F0B59BB0044616A81421FBF743FD01A890
:104820005421FBF73FFD20683C4E3D4D3D498842F9
:104830004AD03D4988426FD120200027019001A82D
:104840000797FEF791FA08B1FCF7EBF830690221FF
:1048500040F001003061306900F0010000900098E4
:10486000306840F004003060306800F004000090D0
:10487000009803201690CDE917171990082016A963
:104880001A9005F58060FDF7CBFE284D284828607A
:10489000232068601020C5E9020780202F62C5E947
:1048A0000677C5E904072846FDF786FA08B1FCF744
:1048B000B8F85B2004210022E567AC62FEF7E8F857
:1048C0005B20FEF7D7F827E001200024019001A823
:1048D0000294FEF749FA08B1FCF7A3F8706916A92B
:1048E00040F480407061706900F48040009000984E
:1048F000306840F002003060306800F00200009044
:104900000098C02016900220CDE9170407201994C2
:104910001A902846FDF784FE1BB0F0BD4C100240F3
:104920000004004800380140008000407C05002061
:104930000800024010B504461346D4F88800202829
:1049400023D101B3FBB14FF0000C21202165A4F865
:104950005430A4F85630C4F890C0C4F88800E06F12
:10496000B0B1134AC262134A0263134AC0E90D2C64
:1049700022682832FDF784FA50B11020C4F8900064
:104980002020C4F88800012000E00220C0B210BD41
:1049900020684021016200E0206850E8020F216891
:1049A00040F0800041E80202002AF5D10020EDE746
:1049B000155C0008555C0008CB5B00081F49884265
:1049C00000D070470848816C0131816407488168D4
:1049D000002908BF70474FF4805200238B5241F2E8
:1049E00002028B548360704750010020E4020020D3
:1049F0007047FEE7C1F3045CC1F34061072300EB9D
:104A0000810003FA0CF302FA0CF241699943114355
:104A100041617047C1F3045CC1F34061072300EBBF
:104A2000810003FA0CF302FA0CF241699943114335
:104A3000416170470148FFF719BD00BF940600208F
:104A400010B592B0002468463C211194CDE90F4482
:104A5000FBF728FC23484FF0A0414FF440320423D9
:104A600080E816000121C0E90344C0E9054304774A
:104A70004477016280F8244080F83840C46380F8AD
:104A80004040FCF7D7FE08B1FBF7CBFF15480FA954
:104A90000F94FCF755FB08B1FBF7C3FF1248012147
:104AA000009009200190032002907F2003900420B1
:104AB000049000200590089184218DF824008DF841
:104AC00025008DF826000A9180210B918DF8300089
:104AD00004486946FCF72EF808B1FBF7A2FF12B0B4
:104AE00010BD00BFCC030020002090B6F0B597B0F9
:104AF0000FA82021FBF7D6FB68463C21FBF7D2FB31
:104B0000324833494FF4403200250123042680E81F
:104B10002600C0E90355C0E90536057745770362ED
:104B200080F82450C0E90B5580F83850C56380F8F0
:104B30004050FCF77FFE08B1FBF773FF254C0620C1
:104B40007F270FA90F94CDE910052048CDE91276F3
:104B50001495FCF77FFB08B1FBF763FF1E480421A7
:104B60000090092001900320CDE902070491002163
:104B7000059108909C208DF824108DF825108DF853
:104B800026100A9080200B9010488DF8301069464E
:104B9000FBF7D0FF08B1FBF744FF40F20F10009481
:104BA000694601900948FBF7C5FF08B1FBF739FFDB
:104BB0000A486946009040F2152001900348FBF72F
:104BC000B9FF08B1FBF72DFF17B0F0BD3804002086
:104BD00000010050020030040002B0252000F01453
:104BE00010B592B0002468463C211194CDE90F44E1
:104BF000FBF758FB224823494FF44032042380E856
:104C000016000121C0E90344C0E905430477447755
:104C1000016280F8244080F83840C46380F8404046
:104C2000FCF708FE08B1FBF7FCFE15480FA90F942E
:104C3000FCF786FA08B1FBF7F4FE13480121009057
:104C400009200190032002907F200390042004900B
:104C500000200590089184218DF824008DF825000E
:104C60008DF826000A9180210B918DF830000448C0
:104C70006946FBF75FFF08B1FBF7D3FE12B010BD2A
:104C8000A404002000040050002098B670B590B035
:104C900001A83C21FBF706FB1D481E494FF440329A
:104CA00000240425012680E81600C0E90344C0E979
:104CB000054504774477066280F8244080F8384040
:104CC000C46380F84040FCF7B5FD08B1FBF7A9FECE
:104CD000114801A9019009200290032003907F2030
:104CE000CDE904058420069409968DF828408DF8B6
:104CF00029408DF82A400B9080200C9004488DF8B4
:104D00003440FBF717FF08B1FBF78BFE10B070BD06
:104D100010050020000600502000F094E0B50E4879
:104D20000022016841F004010160016801F0040102
:104D300001910199016841F00101016004210068BD
:104D400000F00100009000980B20FDF7A1FE0B2061
:104D5000BDE88C40FDF78EBE48100240B0B5134848
:104D600013494FF440724FF00A0E03234FF00C0C1E
:104D700001240D250160002141608260817401825F
:104D8000C160C0E905E3C0E907C3022200F12403C2
:104D900034C302631C22C0E90D21C163FDF7D2FABE
:104DA00018B1BDE8B040FBF73CBEB0BDDC0500204B
:104DB0000064004010B50748074A002101F026FBB7
:104DC000064C084A00212060054801F01FFB606086
:104DD00010BD00BF9554000840820008E00000208C
:104DE0005D5C00080C8200082DE9F04F87B00027B9
:104DF000414D002206973E48016841F004010160E0
:104E0000016801F0040101910199016841F020015C
:104E10000160016801F0200101910199016841F0F0
:104E200001010160016801F001010191019901682E
:104E300041F002010160016801F002010191019954
:104E4000016841F00801016042F22401006800F0AD
:104E5000080001900198274C2046A8474FF0904049
:104E600048F21001002248F21008A84704F5806AB1
:104E7000042100225046A847204D42F2040002AE11
:104E80004FF001094FF0020B029020463146CDF859
:104E90000C90CDE904B7A8474FF440403146CDE926
:104EA000020720460497A8474FF090403146CDE9CD
:104EB0000289CDE90477A847202002A981E8010AE8
:104EC0000320314605902046A8474FF4007002A900
:104ED00081E8810820463146A84704203146CDE9C3
:104EE00002095046CDE90477A84707B0BDE8F08F26
:104EF0004C10024000080048B12700082126000895
:104F000010B5124C12481421206012486060002035
:104F1000A0600120E06004F11000FBF7C3F9204617
:104F2000FDF79CFC08B1FBF77CFD08480021FDF76C
:104F30004BFC08B1FBF775FD04480021FDF769FC47
:104F400018B1BDE81040FBF76CBD10BD4006002055
:104F500000540040E49DD23080B5154815490C221C
:104F60000160154941600021C0E902110161C0E9F9
:104F70000521C0E908118162FFF718FC08B1FBF7B1
:104F800050FD0B480021FFF747FA08B1FBF749FD38
:104F900007480021FFF71AFA08B1FBF742FD044861
:104FA000FFF7F7F918B1BDE88040FBF73ABD80BDC7
:104FB0009406002000800040808D5B0080B50C4886
:104FC0000C490022402380E80E00012102614FF4C9
:104FD000004301754FF400318261C0E90913C262D8
:104FE000FDF792FD18B1BDE88040FBF71ABD80BD0A
:104FF000280700200003014080B50C480C4900221E
:10500000402380E80E00012102614FF40043017546
:105010004FF400318261C0E90913C262FDF774FDEB
:1050200018B1BDE88040FBF7FCBC80BD64070020E0
:105030000803014080B50D480D490022402380E857
:105040000E0008214FF400430161012101754FF466
:1050500000318261C0E90913C262FDF755FD18B144
:10506000BDE88040FBF7DDBC80BD00BFA00700208D
:105070000C030140B0B5104810494FF48272002370
:105080004FF4706C4FF0010E4FF40074102580E85F
:105090000E100721C0E9043EC0E90645C0E9083307
:1050A000C0E90A31C0E90C33FEF74CFB18B1BDE88A
:1050B000B040FBF7B6BCB0BDDC07002000300140BB
:1050C000B0B5104810494FF4827200234FF4706C51
:1050D0004FF0010E4FF40074102580E80E100721E8
:1050E000C0E9043EC0E90645C0E90833C0E90A3119
:1050F000C0E90C33FEF726FB18B1BDE8B040FBF762
:1051000090BCB0BD40080020003C00401FB500240A
:105110000E484FF6FF720394CDE901440C49C0E9F3
:1051200000140821C0E90242C0E904448461FEF78A
:105130006EFF08B1FBF775FC044801A901940394C4
:10514000FEF730FC08B1FBF76CFC1FBDF008002037
:105150000040014070B59CB00EAE00251C213046C9
:105160001B95CDE91955CDE91755CDE91555FBF737
:1051700099F801A83421FBF795F8F8483C4920221A
:1051800040F69F734FF40074C0E9001500F1080168
:105190003CC18561FEF7ADFC08B1FBF742FC4FF462
:1051A000805018A91890ED48FEF75CFD08B1FBF798
:1051B00038FCEA48FEF7D2FF08B1FBF732FC70205A
:1051C00015A915900020CDE91600E448FEF7EAFB8A
:1051D00008B1FBF726FC602014210E904FF4FA6012
:1051E0000F9006F10800FBF75DF8DC48314600221D
:1051F000FEF756FF08B1FBF714FCD8480EA90422AD
:10520000FEF74EFF08B1FBF70CFCD4480EA90822AC
:10521000FEF746FF08B1FBF704FC40F2CE700EA982
:105220000C220F90CD48FEF73BFF08B1FBF7F9FBCE
:1052300000207821CDE901000390CDE904104FF45E
:10524000005106910221CDE907104FF0007109903D
:10525000CDE90A10CDE90C00C04801A9FEF740FBDA
:1052600008B1FBF7DEFBBD48FEF764FE1CB070BD65
:10527000002C014070B59CB00EAE00251C213046BC
:105280001B95CDE91955CDE91755CDE91555FBF716
:1052900009F801A83421FBF705F8B848EB492022AA
:1052A00040F69F734FF40074C0E9001500F1080147
:1052B0003CC18561FEF71DFC08B1FBF7B2FB4FF462
:1052C000805018A91890AD48FEF7CCFC08B1FBF748
:1052D000A8FBAA48FEF742FF08B1FBF7A2FB70202B
:1052E00015A915900020CDE91600A448FEF75AFB39
:1052F00008B1FBF796FB602014210E904FF4FA6082
:105300000F9006F10800FAF7CDFF9C4831460022C5
:10531000FEF7C6FE08B1FBF784FB98480EA90422ED
:10532000FEF7BEFE08B1FBF77CFB94480EA90822ED
:10533000FEF7B6FE08B1FBF774FB40F2CF700EA982
:105340000C220F908D48FEF7ABFE08B1FBF769FB0E
:1053500001AC14212046FAF7A5FF4FF400504FF09E
:1053600000710690022007900020CDE90800CDE9E9
:105370000A10CDE90C0081482146FEF7B1FA08B1C8
:10538000FBF74FFB7D48FEF7D5FD1CB070BD00BF9D
:1053900010B5164C16484FF4E13100220C2384E876
:1053A000070004F118001421C4E903226361FAF72D
:1053B00079FF2046FFF7FAF908B1FBF732FB0B48FB
:1053C0000021FFF729F808B1FBF72BFB0748002164
:1053D000FEF7FCFF08B1FBF724FB0448FEF7D9FFFA
:1053E00018B1BDE81040FBF71CBB10BDD40900206C
:1053F00000380140FEE7FEE700000000000000006A
:10540000EFF30980BFF36F8F154B1A681EF0100F72
:1054100008BF20ED108A20E9F04F10602DE9090047
:105420004FF0100080F31188BFF34F8FBFF36F8FE1
:1054300002F0ACF84FF0000080F31188BDE80900DD
:1054400019680868B0E8F04F1EF0100F08BFB0EC04
:10545000108A80F30988BFF36F8F704700BF00BFC9
:10546000080B002000000000000000000000000009
:10547000074B19680868B0E8F04F80F30988BFF35C
:105480006F8F4FF0000080F31188704700BF00BF9E
:10549000080B002080B5012000F07EFFFBE7000034
:1054A00080B50548006802F02FFC01281CBFBDE84C
:1054B000804002F015B980BD10E000E0F0B593B077
:1054C00005AC1421142704F10800FAF7EBFE684636
:1054D0001421FAF7E7FE00200025FDF7E7FB012085
:1054E0004FF4803103260590069102210C91CDE9FD
:1054F0000D602046CDE90F71CDE91111FDF7D6FE03
:1055000018B1EFF3108072B6FEE70F200421CDE949
:1055100000066846CDE902550495FDF775FD18B102
:10552000EFF3108072B6FEE713B0F0BD02480168D9
:1055300041F470010160704788ED00E080B50748D4
:10554000FEF732FC0248BDE88040FEF72DBC00BFEC
:10555000F00800200148FEF727BC00BFA408002087
:105560000148FEF721BC00BF3C0900200348FEF7BC
:105570001BBC00BF0148FEF717BC00BF8809002014
:10558000B0F1804FD0F800C01CBF2D4B98420ED018
:105590002C4B98421CBF2C4B984208D0B44B9842DD
:1055A0001CBFB44B984202D0B34B984204D14B6815
:1055B0002CF0700243EA020CB0F1804F1AD0204B5D
:1055C00098421CBF1F4B984214D01F4B98421CBFDF
:1055D000A74B98420ED0A84B98421CBF1C4B984238
:1055E00008D01C4B98421CBFA24B984202D01A4BC9
:1055F000984204D1CB682CF4407243EA020C8B68C9
:105600004A69C3620B6883622CF0800343EA020C90
:10561000DD4B03444FEAB323092B07D801229A40FC
:1056200040F2E5231A421CBF09690163016841F099
:105630000401016001214161C0F800C0704700BF52
:105640000004004000080040000C0040003401400D
:1056500000400140004401400048014070B5026A2A
:10566000036A23F0010322F00202036246688369A1
:105670008D680C6845EA020E5A4A1A4042EA040C48
:10568000C14A02444FEAB222092A0FD8012340F24C
:10569000E524934023421FBF036A23F004030362FF
:1056A000CB681CBF2EF0080543EA050E092A0DD869
:1056B000012303FA02F240F2E5231A421FBFD1E9A7
:1056C000052326F44074224342EA03064660C0F8EC
:1056D00018C049684163C0F820E070BD70B5026A27
:1056E000036A23F0100322F02002036246688369F4
:1056F0008D680C6842EA051E5C4A1A4042EA042C96
:10570000B24A90421CBFB24A904202D0B14A904283
:1057100008D1026A2EF0800322F040020262CA68B9
:1057200043EA021E984A02444FEAB222092A0ED8DE
:10573000012303FA02F240F2E5231A421FBFD1E926
:10574000052326F4406444EA820242EA8306466066
:10575000C0F818C049688163C0F820E070BD00BF80
:1057600070B5026A036A23F4807322F40072036244
:105770004668C3698D680C6842EA052E194A1A40CA
:1057800042EA040C914A90421CBF914A904202D0D6
:10579000904A904208D1026A2EF4006322F480629B
:1057A0000262CA6843EA022E774A02444FEAB222F2
:1057B000092A0ED8012303FA02F240F2E5231A4225
:1057C0001FBFD1E9052326F4405444EA021242EAFD
:1057D00003164660C0F81CC04968C163C0F820E0E9
:1057E00070BD00BF8CFFFEFF70B5026A036A23F430
:1057F000805322F4005203624668C3698D680C68C6
:1058000042EA053E194A1A4042EA042C6F4A904285
:105810001CBF6F4A904202D06E4A904208D1026A81
:105820002EF4004322F480420262CA6843EA023E38
:10583000554A02444FEAB222092A0ED8012303FA3C
:1058400002F240F2E5231A421FBFD1E9052326F4F4
:10585000404444EA821242EA83164660C0F81CC003
:1058600049680164C0F820E070BD00BFFF8CFFFEF6
:10587000002C0140005001400034014070B5D0F8C8
:1058800020C0036A23F480332CF400350362466899
:10589000026D8C680B6845EA044C0F4C224042EACA
:1058A000030E394A02444FEAB222092A0BD80123D7
:1058B00003FA02F240F2E5231A421EBF4A6926F4B7
:1058C000803343EA02264660C0F850E049688164AC
:1058D000C0F820C070BD00BF8FFFFEFF70B5D0F8CC
:1058E00020C0036A23F480132CF400150362466879
:1058F000026D8C680B6845EA045C0F4C224042EA5A
:10590000032E214A02444FEAB222092A0BD801236E
:1059100003FA02F240F2E5231A421EBF4A6926F456
:10592000802343EA82264660C0F850E04968C1649B
:10593000C0F820C070BD00BFFF8FFFFE80B5D0F85B
:1059400020C0036A23F0010303620F4B03444FEAB4
:10595000B32EBEF1090F0BD8012303FA0EFE40F25D
:10596000E5231EEA030F1EBF036A23F0040303624C
:10597000836923F0F00343EA021282612CF00A02E9
:105980001143016280BD00BF00D4FEBFD0F820C02B
:10599000036A23F0100303620C4B98421CBF0C4BAC
:1059A000984202D00B4B984203D1036A23F0400384
:1059B0000362836923F4704343EA023282612CF06C
:1059C000A00242EA01110162704700BF002C0140B1
:1059D0000050014000340140416ED9B180B50268E9
:1059E0000FF2400C0FF2440E9168C1F342619268CD
:1059F0001CF801301EF80110520FC900B1FBF3F181
:105A00001CF802301EF80220D200B2FBF3F2BDE80F
:105A1000804001E001220121A0F86A20A0F868106E
:105A2000704700BF080402040801010101010103DD
:105A300007010000816A11F0080F08D0026853685E
:105A4000D0F838C023F4004343EA0C035360CA077C
:105A500008D002685368D0F82CC023F4003343EA1E
:105A60000C0353608A0708D502685368D0F830C029
:105A700023F4803343EA0C0353604A0708D50268D5
:105A80005368D0F834C023F4802343EA0C035360F6
:105A9000CA0608D502689368D0F83CC023F4805346
:105AA00043EA0C0393608A0608D502689368D0F82D
:105AB00040C023F4005343EA0C03936080B54A06C8
:105AC00015D5D0F800E0DEF804C0436C2CF4801249
:105AD000B3F5801F42EA0302CEF8042007D1DEF8B6
